:2000000000340120C544020039FB021039FB021039FB021039FB021039FB021039FB0210DC
:1C00200039FB021039FB021039FB021039FB021039FB021039FB021011FB021002
:20003C002DE9F04F99B0054680780224532800F2C785DFE810F054009900A800B800C80008
:20005C00DA00EA000C011B01C5052A0138015901C505C505C505C505C505C505C505C505BF
:20007C00C505C505C505C505C505C505C505C505C505C505C505650188019401A001AB01E5
:20009C00BA01D401EB0107023A02C505C505C505C505C505C505600276028C02A202B80201
:2000BC00CD02DE020303C505C505C505C505C505C50538034C036003C5056D03770395037A
:2000DC009E03AA03B603C503CF03F2030F0434043C044E045B0467048B0492049504EC1C01
:2000FC00E97A2A7B002320461DF096F88DF8180006AB65200021012221F0B0F9DFF8180BED
:20011C000078012800F25B85204628F08AF8002800F0558505460079012840F0508527F055
:20013C0017FE00274FF400018DF83F008DF83800000ACDF83A108DF841708DF83E708DF89B
:20015C0040008DF839000EAE214606F10A0028F0E0F8297815223346017069788770417026
:20017C004520FF2100F029BD28F082F86979AA790023002423F040FF8DF838000EAB6520DD
:20019C00012100F053BC27F025FE27F09EFF01460EA8022228F021F88DF8180006AB65200F
:2001BC00022100F043BC27F015FE27F08EFF01460EA8032228F011F88DF8180006AB65202D
:2001DC00032100F033BC27F005FE27F07EFFEA7901460EA80023002425F0F6FC8DF8180007
:2001FC0006AB6520042100F021BC27F0F3FD27F06CFF01460EA8052227F0EFFF8DF818006C
:20021C0006AB6520052100F011BC0020DFF8304A27F0C4FCADF85800681DA0478046E81D2D
:20023C00A04795F809B0824605F10A07BBF1100F00F2AE830EAC5E46002E00F0AC8338468F
:20025C0028F0A7F824F8020B013E0237F4E727F0C1FD27F03AFF01460EA8102227F0BDFF28
:20027C008DF8180006AB65200721DFE327F0B2FD27F02BFF01460EA8112227F0AEFF8DF825
:20029C00180006AB65200821D0E327F0F1FF6A7B691D0023002422F02DFC8DF838000EABAE
:2002BC0065200A21C2E302208DF8200027F0E0FFADF81800681D28F06CF8EA79064605F1AD
:2002DC0008018DF838200EAF781C27F039FB06A831463A46002300241FF0EAFA8DF85800C4
:2002FC0016AB65200B21A1E327F0C2FF0021002421F0CCFE8DF838000EAB65200C2195E354
:20031C000020DFF83C4927F049FCADF85800681DA047804695F80F9005F11000A04705F1AB
:20033C001304AD7C83460F2D00F247830EAE2F46002F00F04583204628F02BF826F8020BBC
:20035C00013F0234F4E727F045FD27F02EFC27F0E7FA40F0468306A827F0DBFF46E327F0C6
:20037C0039FD27F022FC27F0DBFA40F04D8306A827F0CFFF4DE327F07BFF27F06FFE8DF8AD
:20039C0038000EAB6520232100F016BCDFF88818C8208DF81800E81C0978002900F0818327
:2003BC0026F03DFF8DF81800A3E36879EE1CFE280BD1A879FF2808D12878082805D3304680
:2003DC0027F0E7FF314624F09FF80EA9304626F003FC002800F09183054600249FE3E81C7F
:2003FC00042124F0EFFDE97927F0F7FFDFF844188DF83800022027F045F8DFF83C18032099
:20041C0027F040F80EAB65202621D5E327F02AFF044605F10E0027F0BCFF297C6A7C034600
:20043C00E878CDE90012AA1D214624F0F7FADFF800188DF83800042027F024F80EAB652004
:20045C002721B9E34FF00208E81C8DF8408027F0A0FFADF8380068798DF85800A81D27F0DD
:20047C0098FF2E7A044600270935CDE9005716A80EA92246334620F04DF827F0C9FC10D1FD
:20049C00DFF890078DF84080CDE9005722463346C08AADF8380016A80EA920F03BF88DF83B
:2004BC00180006AB6520282186E30226E81C8DF8406027F06EFF27F008FEED7904460EA8C8
:2004DC00002321462A4626F06FFA27F0A1FC0ED1DFF840078DF8406021462A460023C08A6D
:2004FC00ADF838000EA826F05FFA8DF8180006AB6520292160E327F06DFCADF83800681D9C
:20051C00042124F05FFD6A7AAB7A0024014600940EA824F0AFFA8DF8180006AB652030218B
:20053C0084E227F057FC27F09EFD312201238DF8580016A8CDE90004DFF8F0060EA91FF0BE
:20055C00E9FF8DF8180006AB652031216EE227F041FC27F088FD322201238DF8580016A81F
:20057C00CDE90004DFF8C4060EA91FF0D3FF8DF8180006AB6520322158E227F02BFC27F0B7
:20059C0072FD332201238DF8580016A8CDE90004DFF898060EA91FF0BDFF8DF8180006ABBD
:2005BC006520332142E227F015FCADF83800687B0024691D0094C0F3400200F001030EA85D
:2005DC0021F046FD8DF8180006AB652034212DE227F000FC6A7BADF83800691D0EA8002340
:2005FC00002424F003FF8DF8180006AB652035211CE22C4614F8030B04281ABFE8782C1D44
:20061C0002208DF84000204627F0C3FEDFF81866A5780121E278ADF83800002300243170E6
:20063C000EA829461DF038FE8DF818002846347024F018FF06AB65203621F7E127F018FECA
:20065C00ADF83800687904218DF84000A81D24F0B9FC0446AE7AEF7A05F10C0027F099FEBD
:20067C00DFF8B0850546214632463B4627F06CFA0EA81FF02BFF27F0CBFB10D102202146F4
:20069C0032463B468DF84000B8F81600ADF8380027F05AFA0EA81FF019FF8DF8180006AB47
:2006BC006520372188E26C7827F0E2FD0146DFF8740500781FF0D6F88DF8380004F0E00080
:2006DC00202840F07C820EAB65203E2174E26C7827F0CEFD0146DFF84C05007820F002FCDA
:2006FC008DF8380004F0E000202840F068820EAB65203F2160E200206C788DF83800DFF873
:20071C0018050078411E022980F09481022095E127F0AEFD27F0A2FC8DF838000EAB65200F
:20073C00422149E2002006908DF83D00CDF83900E81C06A925F05AFA8DF83800069850B121
:20075C0027F009FA81788DF83B10C1788DF83C1000798DF83D000EAB6520432106222CE27D
:20077C00E81C26F05CFD8DF838000EAB6520442122E227F07DFD6979AA790DF0E1FF8DF88E
:20079C0038000EAB6520452116E227F071FD6979AA7919F0EBFE8DF838000EAB652046218B
:2007BC000AE2EC7827F05EFD0146204621F004FDB0FA80F0472140098DF838000EABC1E1B9
:2007DC00E87800248DF8384022F004FA0EAB652047212BE1E8780EA925F02CFA06468DF897
:2007FC00180040000130C5B2284627F0D6FD002800F0A381044600F8016B00219DF81820AD
:20081C00914280F0BE809DF83830013100F8023B9DF8393000F8013CF2E70EAC1321204677
:20083C0026F03AFFEE7827F01DFD0146304624F041FE002800F088810021231D8DF8381057
:20085C0027F089F9C11C827818468DF83B2027F077F87CE10020EC78CDF84600CDF8420055
:20087C00CDF83E00CDF83A0027F0FCFCAA79ADF838000F2A28BF0F228DF83A2022B10EA892
:20089C00E91D033027F05CF80EA9204601221CF033F88DF8180006AB65204B218CE126F05F
:2008BC004BFE8DF838000EAB65204C2184E1E87829798DF838100EA9032800F05F8102285B
:2008DC0000F06281012840F06681522020F04EFB64E127F0CDFC69790246A81D1AF000FC04
:2008FC008DF838000EAB65204E2165E127F0C0FC0146687919F0B6F98DF838000EAB65207E
:20091C004F2159E1C34D0822E88A05F13901ADF83800C24800788DF83A00A88CADF83B0003
:20093C00688BADF83D000EACE01D27F009F804F10F0005F11C01082227F002F8287E50218E
:20095C00182223468DF84F00652036E1B2480078002800F0018112200AE11FF003FD2EE121
:20097C0000208DF83800E878010606D5A94910F07F0018BF012081F868000EAB6520532140
:20099C001AE1652049212A46234620F067FD39E180208DF863003E78102E52D80DF1180925
:2009BC00013734464D46002C4DD0384627F0F1FC25F8020B013C0237F5E780208DF8630007
:2009DC0027780F2F54D801340DF1180A3E46002E50D0204627F0DDFC2AF8020B013E0234D1
:2009FC00F5E7084627F0D5FCADF81800687E06A926F09EFF0EA921201AF0FCFC8DF85800ED
:200A1C0016AB6520212111E0084627F0C2FCADF81800687E06A926F08BFF0EA922201AF029
:200A3C00E9FC8DF8580016AB65202221012220F015FDC5E0002840F0B580042008F04AFF73
:200A5C00B3E080200DE0BBF1100F0CD80EA9002052465B468DE84202039016A8414614F006
:200A7C00CBFC8DF863000DF1630365200621A3E080200FE00F2D0FD80EA9002002974A4666
:200A9C005B46CDE9005106A9CDE9031016A8414614F05AFC8DF863000DF163036520202169
:200ABC008AE016A90EAD2A4618F08CF804469DF85800F0B1614904EB4400002641F82060A6
:200ADC0001EB800046609DF94B00B0F1FF3F03DC05F1130021F0A6FD0EAD1421284626F018
:200AFC00DBFD0420214614222B4624F0D3F98DF8186006AB652024215EE0182027F04DFCA2
:200B1C00002800F083800446BDF8380000211822234626F0A7FD0546002818BFC825192079
:200B3C0027F03BFC002867D007460130002D4BD01821FF2226F0AAFD50E0002049218DF8D0
:200B5C00180006AB652037E001208DF838000EAB65204A21132230E027F08AFB044605F16C
:200B7C000D0027F016FC0246691D204623F098FF8DF838000EAB652051211DE0522020F059
:200B9C00F5F92748002104E0522020F0EFF924480121017002E0522023F0DAFF0EAB6520F0
:200BBC004D2109E001208DF8380004F0E000202805D10EAB65204021012220F04FFC0024B1
:200BDC00204619B0BDE8F08F3146082226F0B8FE07F109002146102226F0B2FE652025210E
:200BFC0019223B463D7020F039FC3846192126F053FD384627F0CFFB002CE0D02046182133
:200C1C0026F04AFD204627F0C6FBD8E7C825FFF7E4BB00BF08DE0020300C00202C0D002062
:200C3C004A0E00209EE900200B0E0020940C0020A1520200755702005947010050A3002009
:200C5C00AF8302002DE9F04F99B080466FF00700DFF8DCA80630ADF852009AF80000022836
:200C7C0014D1DFF8C808007880B9B8F8080010B11020012101E0302000210AF073FC002075
:200C9C008DF81C0007A9522020F070F90DF11C0998F80810D8F804004A460FF0F9FFE8B13D
:200CBC009DF81E609DF81F409DF82050BDF8267027F048F8844211D127F003004FF6F871FA
:200CDC0080B288420AD0012D08D8022E06D29AF80000022808D19DF84D0028B1D32013F0C6
:200CFC00DAF919B0BDE8F08FB8F82800ADF84800B8F83200ADF82A009DF82200D0B1D8F89A
:200D1C0004109DF81D209DF83830012025F0EAFD08B1CF20E3E7DFF81C08C078012809D10F
:200D3C00B8F8280027F021FA20B1417901F0E701083141719DF8210068B1BDF82610FF2065
:200D5C0024F0B8FB9DF82110E0B141F001012C268DF8211017E09DF83900002800F0EB80D6
:200D7C009DF83D10FF2902D0002940F02681DFF8C807BDF82620C18A8A4240F027810120CA
:200D9C00222607E0082601F00300012808BF46F0110601209AF800104FF6F877012908D828
:200DBC003446B20758BF64F07F04002808BF344600E034469DF82200DFF87C575FFA84FBFA
:200DDC0030B9E87A20B10BF02200222840F080801BF0400004901CD0012903D8A87B8007CA
:200DFC0000F1D880119801780C2900F2DB80012241F298438A401A4200F0D480032902D150
:200E1C0040780D2805D007A820F0D8FF01283FF468AFA88CB8F8441081420AD198F846201F
:200E3C00B8F84210B8F8280000230093002307F01DFF9DF82200F8B1B8F84210B8F8280096
:200E5C0021F08CFA002800F08F800646D8F804009DF81D10F2780844417B8A421EBF002299
:200E7C007260F1700130042124F0ACF871688842FFF437AF013070609AF80000022834D2D6
:200E9C00A87B80077FF52DAF9DF84D004FF6F87660B1BDF8280025F011FF002800F00781F4
:200EBC00D8F80400417801F0DF0141709DF82E00002800F0DF80D8F80400817901398171D3
:200EDC008DF82E1004F07F00090640F0D680D3E00BF0420042287FF41CAF1198007800F082
:200EFC00FE0006287FF415AF72E77FF4FAAE95F82600092802D004287FF4F3AE5FEA8B60D5
:200F1C0000F19E80049800283FF4EBAE11989DF838100078042808BF022900F04581072815
:200F3C0008BF042900F009810C2840F04D8107A814F01CFED5E6BDF8260021F037FC023814
:200F5C00DFF8F415B0FA80F0CA8A4109BDF82600904208BF023100293FD09DF81E20002A01
:200F7C0056D001F1400455E09DF84D00B8B3042024F02EFD00283FF4B4AE01464FF4B270AB
:200F9C000880B8F828004880DFF8B00500781DF04FF8A6E611980178A1F10C0212F10C0F49
:200FBC003FF62CAFE88ABDF8262082427FF496AEBDF8280022F070FE90E6109A9DF83C00CF
:200FDC001FF0E6FE30B101200026E3E690F826000428F8D100260020DCE600241AE095F8BB
:200FFC006C0001287FF448AF11980078062803D1049800287FF440AFF81DBDF82A1080B257
:20101C0081423FF46EAE07A841461DF0D1FA68E601F1200421F0CAFB0138B0FA80F04009BE
:20103C0044EA00069DF81E0000283FF4B2AE1198007825F07FFE012818BF04F07E06A8E639
:20105C0098F8460026F05DFD9DF82E00012840F0B480B8F82800BDF82810814240F0AD80F9
:20107C00BDF8260021F0A2FB022804BF00208DF82E00A2E004F07F000446210702D44FF08F
:20109C00000A34E0E1B24A0722D4C9069DF8211028D5C1F3820212B1072A18BF013A002A42
:2010BC0008BF044601F0E30040EA820118E0D32012F0F1FFDFF888040078002800F09F8093
:2010DC00DFF8801451F82000C0EB0010810098E09DF8210000F0E00100F0E30040EAD10116
:2010FC008DF82110D8F804004FF4805A017295F82600092801D0042823D1E98ABDF8260097
:20111C0088420AD021F052FB022806D09DF8210000F0030001287FF4E4AD9DF81E00002800
:20113C0047D011989DF838100078042808BF02293AD0072848D1042946D107A817F0CEF94D
:20115C00CFE5E7B214F0610F46D0F80709D0B8F8281007A8A94614F053FF002864D004F098
:20117C009F040025E7B2A00609D598F84600D8F83C2026F0C6FC07A815A905F085FD780632
:20119C0040F12681B8F8281007A80DF152022B460FF0FAFD00286FD005461198007801280F
:2011BC0008BF4AF0100A13E107A9002010F0E8FC97E598F8460026F0A4FCD8F83C2007A86D
:2011DC0015A905F061FD8CE503287FF48AAD07A800210FF0E7FA84E59DF81E0001285AD17C
:2011FC0011980078032849D0052854D1B8F8281007A80DF1520200230FF0C6FD71E5D148DF
:20121C000168D1480268BDF82800904701287FF468ADCE480168BDF828008847CC480168B9
:20123C00BDF8280088475CE524F094FF9DF82E100546BDF8280019B9B8F82810884291D01E
:20125C00B9F81610814204D1BA48807800283FF489AFB8F8281007A82A4609F09FFA0028B5
:20127C0000F09B8038074AF0040ABDF8260048BFF01DADF8520075E70025A9E0BDF82600F5
:20129C0025F01CFD38B1B8F8281007A80DF1520200230FF079FD9DF82E0088B322F040FB4F
:2012BC0000287FF41EAD9DF83900A0B3109A9DF83C009DF83D101FF06BFD002870D09DF8BA
:2012DC003D00002875D0109926F01DFF9DF82430ADF8520011209DF823209DF821104AF084
:2012FC00400A002B08BF0920002A18BF0830002918BF0130D8F804100A5C013A0A5462E0DE
:20131C009DF81E0001287FF47EAE1198007803283FF4E7AC77E69DF82010BDF826000029FE
:20133C00ADF8520000F0D3804020BDF8261009F11D0200EAC4059DF820002B4618F0DAF840
:20135C0038B1D8F804004AF0200A017801F03F0101709DF8390048B1BDF8261009F1200069
:20137C0020F00EFD4AF0400AADF852009DF81E00012806D0BDF82810BDF82600002214F01B
:20139C009DFABDF82810BDF826002A4612F050F8002818BF4AF0200A15E004F0DF04E0E623
:2013BC00BDF82610BDF828000B22002319F026FE97E4BDF82600ADF8520026F0D6FE00286D
:2013DC0008BF4AF0400A24F0C5FE05464FF6F876B01DBDF8521080B20F1A5E4818BF2F46A0
:2013FC000078012805D1F01DB8F8321080B281422FD160B2B0F1FF3F3FF773AC002F3FF4BE
:20141C0070ACB8F8080026F0C8FF00283FF469ACB8F80820D8F80410054626F091FA9DF852
:20143C001E10002098F80830B8F8282016908DF85410BDF8521015ACCDE9007ACDE902042F
:20145C00284610F05DF970B3284626F0A4FFFFF748BCB8F828108142CBD0701CBDF826209B
:20147C0080B28242C5D2BDF828008142C1D026F07CFE0028BDD0017901390129B9D8408816
:20149C0001218DF85410ADF8600015AD28461DF07DFD0028ADD0281D1CF0C2FC0028A8D015
:2014BC0020F05EFDA5E72348407800283FF419AC00208DF81870ADF81900DDF826004FEAB7
:2014DC003040059005A826F0C3F8FFF70ABC39073FF52AAF9DF81E1001293FF425AF00214F
:2014FC0017F0C8FF20B1407901380228FFF41CAFB8F84410BDF8520020F030FF30B1807834
:20151C0025F058F801380728FFF40EAFBDF8280025F0D4FB18B104208DF8200004E7BDF83F
:20153C002610BDF8280002223FE700BF4A0E0020300C0020E80B002008DE0020A0E90020DD
:20155C003C0E0020F0980200A4090020AC090020A8090020480E00202DE9F0438DB00546C1
:20157C0080780224252800F27380DFE810F02600A400C400D700EA00F8000601B602B6027A
:20159C001D012E01B602B602B602B602B60246014B01B602B602540158016101B602B602C7
:2015BC00B602B602B602B602B602B602B6026B016E017101740178017F01DFF8D475002408
:2015DC000E258DF804403878012807D801A81CF0BFF804469DF8040005EB4005EEB23046A1
:2015FC0026F0DBFE002800F087824FF000080546431C0021082280F80080012026F032F82A
:20161C0026F0A6FB6872000A0721A872DFF88405E972007828733878012800F262829DF8BF
:20163C000420002A6A7300F05E8205F10E0000212346914280F0578213F8022B013100F887
:20165C00022B13F8012C00F8012C9DF80420F0E7A0F140010D291FD8DFE811F00E0010016E
:20167C003F023F021E012E013F023F023A014501500165013F02740101ACE91C0822201DF5
:20169C0026F05EF9204619F001FABDF806004021ADF828000AABEEE0632800F069816428FA
:2016BC0000F07681E02840F0188200244720E021002200230FE2202026F06FFE002800F0B8
:2016DC00C1812021FF22044625F0E0FF631C01200021082225F0C6FF0546002818BF0125D7
:2016FC0001AB84200021042225F0BCFF002800F00582023506E2E81C26F04BFEADF804009D
:20171C00832026F07AFD014601AA832026F04CFC8DF828000AAB6720022190E1E81C0421E4
:20173C0023F050FC0190842026F067FD014601AA842026F039FC8DF828000AAB6720032191
:20175C007DE1612026F059FD0146EA1C612026F02BFC8DF8040001AB672004216FE1622064
:20177C0026F04BFD0146EA1C622026F01DFC8DF8040001AB6720052161E100208DF8040024
:20179C00E81C26F006FE6A7900F4F851002A00F04981B1F5A06F04D04FF6FF71884240F0D3
:2017BC004B814FF0FF3045E126F0BFFD044626F093FAD949604301ACB0FBF1F1204626F073
:2017DC0066FD672009210422ABE0DFF8B4632D79306840B901AC204626F077F901202146E2
:2017FC000EF0A2F83060052D00F06981002D00F06981642120F06AFF66E115F8032B67208B
:20181C0010216EE0E87822F0D7FA8DF8040001AB6720112113E100246720142102E0002422
:20183C0067201521ADF80840019401AB062252E100246720162109228DF80C40CDE901446D
:20185C0001AB48E1F52020210BE0F520212108E0F520222105E04FF6F570232108E0F520EF
:20187C0024218DF8040001AB6720E8E0F5202521ADF8040001AB67200222E1E0E81C26F04D
:20189C0088FDADF8060001AC204616F0E3FD231D672041210822D3E0E81C0AA925F09CF99C
:2018BC0000288DF8040000F0CF8001A81821FF22013025F0EBFEF4E0E81C0AA925F08CF9C5
:2018DC0000288DF8040000F0F1804FF0FF30EFE015F8030F697820F0DDFE2880672048211A
:2018FC0002222B46ACE0E87823F090FC01AC0146204617F0BFFF6720492111E0EC1C20463D
:20191C0024F0A6FE002818BF2046B5F80B1018F04DFC01AC0146204617F0ACFF67204A2177
:20193C00242223468CE001ACE91C0822204626F007F8204625F0BAFD8DF828000AAB6720FE
:20195C004B217CE04FF0FF3095F80380691D0190ADF81000CDE90200FE208DF80600287957
:20197C0003288DF8300020D10AA826F0D2FC21E00024E91C08228DF8284001AD284625F072
:20199C00DFFF28461CF04CFA0AAB67206321A1E0B5F80B006A7B0024E91C8DF8044009F0C4
:2019BC0051FF01AB6720642194E0084626F0F1FCADF82800AF7B002F00F0DD807E0095F8C0
:2019DC000D90304626F0E9FC002800F0D48005F10F013246044625F0B3FF00940AA9404615
:2019FC004A463B460DF08CF9002800F0BA80837801784278057946798DF806308DF8041027
:201A1C008DF80520C3788DF809608DF808508DF8073001A98B1D811D40794200184625F0E0
:201A3C008FFFA5E0B1F5A06F03D04FF6FF71884202D100205549086001AB672006210122FA
:201A5C001FF00CFD002448E0182026F0A6FC40B3BDF828100446009006200022182323F0C6
:201A7C0003FAB8B9BDF8285001AE21461022701C25F066FF444F05EB450506F1110057F83D
:201A9C00251026F004FC07EB8500416806F1150026F0FDFB2046182125F0FEFD204626F07A
:201ABC007AFC01AB672044211922C9E7BDF82800ADF8050001AB672045210322C0E73149AB
:201ADC0001220A7020F069F8002467200A218DF8044001AB01221FF0C1FC20460DB0BDE8DA
:201AFC00F08385F80D806720002132462B461FF0B5FC284626F04FFC7CBBA3E7019800BA19
:201B1C00C4F809000AAB83200021022225F0AAFD20B1043506E000BF40420F00BDF828006E
:201B3C00A4F80D0004F10F0361200021012225F099FD002818BF083504F110036220002182
:201B5C00102225F08FFD002818BF1035234625706720012120221FF081FC204626F01BFC4A
:201B7C0070E74FF6FF70ADF808006FF480300190204626F010FC01AB67204D210E225FE74E
:201B9C0034E90020080E002068E4002014E90020300C00202C0D00202DE9F04F85B08478F2
:201BBC000226362C00F2BE820546DFE814F06C01740172007C017800BB02BB0281003700BC
:201BDC004C008C009F00AD00BB02B5009001BB02BB029A01AD01BB01BB02BB02BB02BB024F
:201BFC00BB02BB02BB0237004C00BB02BB02BB02BB02BB02BB02BB02BB02BB02BB02BB02F0
:201C1C00BB02BB02BB02BB02BB02BB02BB02BD00EB00CB01FF005B005B00DB0126F01CFB4B
:201C3C00242840F0AA8102AB352000210422002425F018FD002800F0FC81012002228DF8EB
:201C5C0010000020FCE100208DF8100026F004FB0646092C40F0ED8095F8059095F806803E
:201C7C000720EFE0DFF82465306880B1406A70B102A926F0FAFA0546342C40F02C822846B2
:201C9C0026F087FB002800F02582042041E203203FE2DFF80835612002210A223FE202AC93
:201CBC00E220214622F054FF61200421082288E126F0D2FA0446681D26F06BFB242C40F054
:201CDC0087810020FBE1E878032800F29781281D26F05FFB0246E878DFF8B81431F8101006
:201CFC00DFF8B404007826F0CFFA88E1E878032800F28981DFF89C1431F81010DFF89804AF
:201D1C0000781BF039FE7FE126F0F3F9ADF8080002AB61200C2103E1002661200E210122A6
:201D3C008DF8086002AB1BE2DFF8606401208DF810003068002800F02C810069002800F0C1
:201D5C00288102A926F091FA042123F03BF9002800F0EC81044626F020FB002800F01C8151
:201D7C002146054625F098FC3068BDF80C1022462B4606690298B0478DF81000284626F091
:201D9C000AFB09E1DFF804442068002800F008818069002800F0048102A926F066FA2068C1
:201DBC00BDF80C10826902989047FAE0DFF8DC733868002800F0FB80C069002800F0F780EF
:201DDC0002A926F052FA9DF80850BDF80AB0BDF80C90044626F0DDFAA6788046F72E28BF06
:201DFC006FF00806B01C5FFA80FA504626F0D5FA002800F09D81012D044608BFBBF1000F10
:201E1C0000F09A813868A11CF3B24246C569029800914946A8470746002840F0938100275A
:201E3C006120332152462346667027701FF016FB88E1681D26F0ADFA8146E81D26F0A9FAF3
:201E5C008046092002AF242E18BF2F1808BF3526304609EB080526F0D0F9854201D902201B
:201E7C0057E1B9F1000F04D1304641463A4621F039F8304641463A4626F096F8002800F088
:201E9C00E5800A2045E1E878012802D0002840F0488125F0BDFD40F259600121ADF808006C
:201EBC0002AB61203CE00120EC1C8DF80800E22021461FF05BF830B901200821224626F08A
:201EDC0073F88DF8080002AB6120032126E1E878291D012800F0E180002840F0E580E020B8
:201EFC00DFE026F0B9F90446681D26F052FA242C0FBF00200146204626F032F98DF8080055
:201F1C0002AB6120122109E126F0A6F924280CBF002026F072F9ADF8080002AB61201321DE
:201F3C000222FCE0E8788DF8080099488068D0F8302402A9E02090478DF8100004AB61206C
:201F5C001421EBE0914C206898B3806A88B302A926F08BF92068BDF80C10826A0298904795
:201F7C00014627E0894C206868B3C06858B326F073F92168C968884726E0804669380026AE
:201F9C0080B2032838BF0126681D082C40D1057841E003208DF8100004AB61203021BDE06C
:201FBC0003208DF8100004AB61203121B6E00327CDE0002102AC204626F069F961203221DD
:201FDC0004222346ABE0032026F07AF83621A5E005F10806ED790146A8426CD920460022DC
:201FFC0025F0DCFF09288DF808006AD1002D68D020462946324625F0D7FF62E0022026F0C5
:20201C005FF80A218AE0022026F05AF80B2185E026F0BFF90546404626F0EFF80227A842EE
:20203C0088BF7700CFB100268DF808706120214692E002988DF810400422ADF8120002205B
:20205C008DF8110004AB6120082168E0012E62D1E22039461EF08AFF5BE0471BB8B2F7288D
:20207C0028BFF727B81CC6B2304626F096F9002860D01FFA87FB00F10209824648465946F4
:20209C0025F00AFB404629465A464B4625F0EAFA0546002867D00A2770E00878022814D230
:2020BC0052201EF063FF00E002208DF8080002AB61200F2132E02046324625F06FFF8DF83D
:2020DC00080002AB6120072128E002A9522022F03FFDECE702359DF8080015F8018BBDF81E
:2020FC000C7001280ED1BDF80A0058B9384641462A4620F0F7FE012F04D1E22029461EF072
:20211C0035FF01273068394642462B46466A0298B0478DF8100004AB6120214601221FF098
:20213C009DF90026304605B0BDE8F08F052031E710270CE0102776E7A9F169000328BFF4A3
:20215C0061AE0227204626F026F9002FE9D000268DF80870612033218DF8096002AB0222F1
:20217C001FF07CF9DEE78AF80170002761202146324653468AF800701FF070F9504626F0D1
:20219C000AF9002D7FF44FAFCBE700BFC40D00200C010020809D02009EE900201C9D020072
:2021BC002DE9F04F8FB00C4648070FD4200441D4E00400F19781200600F1C081A00700F1D5
:2021DC00D481200500F1F3810020B4E1DFF820050178062900F2AD81DFE811F00700940127
:2021FC00AB01AB019901AB01A001DFF81055DFF804152A7891F82B30022A02D19E0600F13E
:20221C0098815E0700F19D819B0740F192810423037091F82C30DB0700F08B8191F82E30EB
:20223C00002B00F0528224F06DFA0420012102F08FFA57E2DFF8C8040394DFF8BCB4DFF8C6
:20225C00B094DFF8C474DFF8AC44DFF8B054DFF8BCA448F20208008802909BF800001BF03A
:20227C00B9FB002800F03A8106460078D3282DD1F089404540F019813878002800F01581D8
:20229C0099F80000012840F0108125F0B9FA002840F00B817088002840F00781A24604AC8B
:2022BC001221204625F0F8F925F08EFD3046214617F08AFEBDF81C00B0F5285FC0F08880A2
:2022DC00012002211EF0FEF954462AE099F80010884217D1012834D0032840F0E680287814
:2022FC000138012800F2E180B078012851D0002840F0DB807078002800F0BF8000201CF07D
:20231C0085FFD2E00A2811D194F82B00BA46B71C3071A16909B138468847384623F0EAFEA2
:20233C005746DFF8D853DFF8E4A3BEE02978002940F0BB80092840F0B880A168B01C884774
:20235C00B3E028780138012800F2AF80707860B194F8330094F83410013084F83300C0B2D1
:20237C00884202D9012000219DE099F80100032858D0022871D0012840F097803878002845
:20239C0000F08C8025F03CFA002800F09280012085E07078002875D025F0DAFC4FF6FE7136
:2023BC00884203D1BAF81600884207D0AAF81610ADF8281053200AA91EF0D8FD1DF08CFCB7
:2023DC0023F0F8FE00208AF826001CF015FC6CE0CF48006809A90AAA16F0F4FB07460298E6
:2023FC005446C64DDFF824A3874212D29DF8380010B1FD208DF838000420394614220AABD3
:20241C0022F048FDC34907EB470001EB8000012141720020012184F83200012002F098F92F
:20243C00B94F42E0A2460AACAB20002122461BF0CBFC042004945446DFF8D0A2AF4D8DF872
:20245C00140004A80FF0B8FA25F0BEFC9BF800004FF4805141F288321DE0012020714FF49A
:20247C008060ADF828000AA818F0D6FA25F0ACFCA4484FF4805102680BE00FF07BFF6069B5
:20249C0098B9A2E702204FF4805140F6B83289F802009BF8000025F0F7FE06E0002084F84E
:2024BC0032000120012102F053F9304624F00CF9D3E694F8350020B1E0690028F5D0804776
:2024DC00F3E70020002102220023ADF8280002208DF830000AA824F067FAB5E7039880F408
:2024FC00004028E0854800780138012859D88048017803294DD0012953D1417800201EF0E1
:20251C00E1F84EE0012001211EF0DCF811E024F0F9F80420012102F01BF90AE000213222D2
:20253C000170744880F82A1073480421007825F0ABFE84F004000FB0BDE8F08F84F080003B
:20255C00F9E70522027091F82C2092072CD591F82E204ABB052202600120487000201BF00E
:20257C001FFB022023F078FBE3E764480078013801280BD80020CDE90A000AA812F096F927
:20259C0020B15D48022100781AF026FD84F00200D1E78178022904D10121817000201EF079
:2025BC006DF884F48050C6E705200021B3E753480078002840F08680DFF838A1DAF80C5076
:2025DC00002D79D004A80DF1280B01300BF104060390002D6DD0A87A18B10138A872000614
:2025FC0046D19AF83180B8F1000F11D00020A91C08228DF82800304625F0A2F9584618F044
:20261C0045FA28B12A88BDF82A00314622F048FAAF1C0DF127015A46384616F0D3FA814681
:20263C00384609A921F087FFB8F1000F05D09DF8380040F0020002281CD1DAF80800A0B1E9
:20265C0003983946082225F07BF9022000220C238DF81000BDF82400ADF81A00264800780B
:20267C0004A9009109211FF0D6FA28461DF0B8F9ED68AEE7384622F0E4FC9DF8270001288C
:20269C00DBD15846142125F007F8224A09EB490000215B4642F8201002EB80001422416072
:2026BC004172FF2049468DF83800042022F0F2FBC3E7DAF80C0028B90F484FF400610078E1
:2026DC001BF05AF984F4006035E7013A012A09D8032202600120487001201BF061FA01203D
:2026FC0023F0BAFA287800287FF423AF04205CE718E90020F0070020A7E90020300C00203F
:20271C00C49D0200CC0D00201F0E002008DE0020F0E8002050A300202DE9F04F89B020F045
:20273C001DFBDFF810158122DFF81485DFF814A5DFF82045DFF814E50A70DFF8FC140860F1
:20275C00DFF8F804FF2101700020DFF80415A8F800008AF80000DFF8F0040968007891F88A
:20277C0008B04FF6FE718EF8000059448AB2A168D1F80031DB899A4200F267810422DFF858
:20279C00DC54A8F80020DFF8D02412689668330ECEF80C60C6F301592B706FF0FF0303EA7B
:2027BC001627B3B2D1F8B86047EA1327AEF8047036781EB9B9F1020F00F04781B9F1030F41
:2027DC0000F043811B0A03F0070316B1002B00F03C81DFF88CC4042B9CF800C008BFBCF14A
:2027FC00000F00F032813EB1DFF878643678862E02D1022B40F02981BB0416D4BBB203F024
:20281C000703022B08BFBCF1000F20D0DFF854140978862909D10020764620F0D7FADFF815
:20283C004004B64690F800C0307800284ED0BCF1000F4BD1012800F0088103283FD0022828
:20285C0044D1BEF80400400740F0FF803EE0D1F8D40090F88300022800F080802746052025
:20287C00147BF246A946A8F8000025F06CFD0546DFF8F003007886286DD1B868016C0968F1
:20289C0011B9D0F84C05804760B20021002625F0CAFDB9680A6C12685077086C006886778C
:2028BC00086C0068C477284625F055FDBAF8041099F8000001F010011CF0F2F94EE0BEF8DC
:2028DC00040000F00700032840F0BF80BEF80400010700F1BA80810402D4810500F1B58053
:2028FC009EF80E20C2F38107012F00F0AE809609012E00F0AA80B9F1010F11D840F00201AF
:20291C0001F0070103290BD117B93F2A40F29D8037B9A168D1F8AC100978002900F09580E5
:20293C004FF6FB71B9F1020F0BEB010C19D1CF4BD95D9B5D03EB01090023402AB7FA87F22B
:20295C0038BF012352091A40430616D4002A08BF09F1020915E0284625F0FDFC24F004F9E0
:20297C0075E0C14B402AD95D9B5D03EB010908D3420648BFA9F1020903E0002A18BF4FF058
:20299C000209C0F300205FFA89F11FFA8CF30A1A8EF801009A4258DC60440391B346401A8C
:2029BC00A168AEF806007430D1F8501280B28847A6490028886048D07421CDE9019724F068
:2029DC006BFEA24F0020B870A548007820B9387900F020008AF8000078789AF80010DFF84F
:2029FC0078C24FF000092E4600299A493DD000284FF000003AD1B88800F00700032807D001
:202A1C00012832D18868D0F8D40090F8820060B3C8684069007818B124F0B2FCFE280DD0E6
:202A3C008C488068D0F84C02804738B989488068D0F844028047002800F0F780834F0120E0
:202A5C00B870DFF814C22E4610E024F0C3FA25F07AFC814900240A6813681C7112680A6079
:202A7C0025F079FC09B0BDE8F08F0020BC6804F1740184F830B06160A1657978BB88FA884C
:202A9C000029A381029B228184F83A30337808BF994697F80EB084F84990019DA4F85C20FE
:202ABC00FF22B8F80030A273CBF301195E1A797BA8F8006001F0780160F3820101EB09006B
:202ADC002074280600F0AE80DCF8000004AF039A10FA86F000F10801384625F0EBFC56FA92
:202AFC0085F0CBF38105A8F80000207C00F04008CDB3B9F1020F06D1B8F1000F03D0B4F844
:202B1C00440004AF06E0BDF810000237A4F84400A4F84200564EF189884203D04FF6FF7190
:202B3C0088425ED1032D11D104F13200394625F0F0FB464CF11CA068323023F068FA4549BC
:202B5C0000284ED094F80EB008370EE037F8020BB1898842608606D04FF6FF713B4C88429A
:202B7C003C493ED101E03B49384CBBF1400F20D3B9F1020F06D16DB9B8F1000F0AD1334808
:202B9C00806803E0A068017C490603D439880237A0F84210BBF1C00F06D32C4C3946A0686C
:202BBC00283025F0B6FB03E0284C3888A168088528498968A088D1F8AC201278B2B1B9F178
:202BDC00020F13D200F00700012802D003282FD11E4C6DB9264AA368D289B3F8423093426E
:202BFC0006D017F02EFA18F0E5FC30E700F00700032806D0012815D1D1F8D40090F8820006
:202C1C0080B1A068D1F848128847104A50B90020D17B9070907BC1F3011100F07800084419
:202C3C009168087408F076FF11E7084FB87808E7064CDDE7B4E9002044E90020B9E9002046
:202C5C00BEE70020B7E90020B6E90020340B002084E900200C010020D8E80020C7E900204B
:202C7C00C6E90020BCE90020749D0200709D020000E800202DE9F04F9BB0DFF8188505461B
:202C9C00DFF8146598F800000328307040F04F81002000211822082388F8000030700CACEF
:202CBC00204624F0DFF92046002122F01FF9DFF8EC94B0603A21484624F0EEFC4FF0FF3039
:202CDC00A9F81400C9F81000C9F80C0021F022FE002029461DF026FA06F11001F06025F02B
:202CFC00AFFAD6E90502DFF8B874B0FBF2F1C9B2032928BF032189F800103970B2F5005FC6
:202D1C0040F01281B0EB413FC0F00E81F068002800F00A814FF40050FF224FF000084FF045
:202D3C00885BA9F80600FF2089F8032089F8058004900020079000200A9000200890002047
:202D5C000690002005900020099000200B90FF200190FF200390FF200290CCB2A04580F0B2
:202D7C00E9805FFA88F600211AAA0423304624F0B7FDDFF834443046002119AAA0473046A7
:202D9C00012118AAA0473046022117AAA0471A996FF06F0050FA81F2C8B20E2A06D8012319
:202DBC0003FA02F245F201131A4203D1A0F1FE02022A04D242F28352B2EB914F1ED030460E
:202DDC0014F088F8DFF8D0130028087040F0D280304600211AAA042324F082FDDFF8C84380
:202DFC003046002119AAA0473046012118AAA0473046022117AAA0471A99C8B208EB48028A
:202E1C00CA463D4609EB8209C1F30142090A4C46FD2804F8160F61709DF86610E270A17063
:202E3C0001D9102135E0BDF864104FF6FF7291422FD112A81FF02AFD304600214FF0885204
:202E5C004FF400534FF4005724F04AFD6FF0030313FA87F7B8B250F80B104A1C01D10328AB
:202E7C00F6D801220126D3B2042B06D8CBB2FF2B18BF16460132090AF5E740F80B10CB482A
:202E9C00129900684268CA48904757FA86F081B22078A9F81C109DF86210702889F81A10C7
:202EBC00BDF86010A9F81E109DF85E1089F81B10BDF85C10A9F8201011D07828D14614D0E5
:202EDC007C282F4616D07E281AD0FE281FD0FF2823D10798CDF808800130079020E00998C2
:202EFC00D1462F46013009901AE005982F460130059015E00698CDF80C80013006900FE0F4
:202F1C000898013008901FFA88F0019008E00A98CDF8108001300A9002E00B9801300B900F
:202F3C00397808F1010818E7012088F800001BB0BDE8F08F0B98984E00060BD10A98C0B2B4
:202F5C00012807D80998C0B2012803D80898C0B2012811D99348042200240270CAB2E0B26C
:202F7C00904210D213F0B6FF31780134084339783070F3E7884E1BE0079BD8B2A04219D1AC
:202F9C00884800220270002089F8030089F80100481E7E2189F80200B9F81C00A9F806008F
:202FBC00002020F07DF999F80200FE2120F078F93078BCE70998000624D00A98049A0006F0
:202FDC0003D1029A180600F08480764802210127D5B289F80220017017FA82F0B0FBF4F19C
:202FFC0001FB140089F80100284613F073FF30702846FE2120F054F989F80570002000F0B0
:20301C00D9F8D5E70A98049A000621D06548012189F80220017011FA82F0039AB0FBF4F143
:20303C0001FB140091B2FF2989F801001FD10199FF2919BF89F8031001EB410089F80300A8
:20305C0000EB400009EB8000808BA9F80600AFE7DDE90520104300063FF47CAF21F02EFC90
:20307C00A04280F085804F48032101703EE0480089F8032010FA82F009EB8000818B18296A
:20309C00A9F8061094D30739D0B212AA89B215F05FFE9DF853004007B0D5B9F80610BDF8AB
:2030BC005620002399F8030000930323891A12AA073989B207F0DCF900287FF479AFBDF8F0
:2030DC00541000293FF474AF9DF858001CF0C0FA6EE721F0F3FB0621A042324838BF03214C
:2030FC000329017002D0062952D061E721F0E6FB054689F80C0000EB400009EB8000408B78
:20311C00A9F80D000CF0B4FE39782844B0FBF1F202FB110089F802000130C2B2B2FBF1F2C6
:20313C0002FB110089F801007C2020F0D3F8FF2812D17E2020F0CEF8FF280DD1FF2020F0BA
:20315C00C9F8FF2808D1782020F0C4F8014699F80100FF2918BF0846C1B289F803004900C8
:20317C0051FA80F009EB8000808BA9F806001AE70798000609D099F80200FE213C46374622
:20319C0020F08EF82478029A40E7064806210170FEE700BFFE0D0020D800002050E200201F
:2031BC009FE90020ABE90020F57A0200D8010010004003402DE9F04F9BB00446DFF80805EC
:2031DC00406818B18047002800F03C82DFF8FC04DFF8FCB40B940DF1300A4FF0F8080078D9
:2031FC00411E002C099118BF01218BF80F109BF802900BF118049BF80110002700250A912B
:20321C00C0B287421FD2B94517D0FEB2002152460423304624F064FB0C9810F4403F40F0B1
:20323C00040018BF0135C0B27C2806D130460621F82223F0D9FA84F80080DFF890040C3430
:20325C0001370078DCE7E9B201380022884204D19BF80500002800F03282DDF82CA05046AF
:20327C00BAF1000F08BF1020049013AF00200390DDE909560024280400F0E6819BF80F000A
:20329C0010B901208BF80F00F0B200210CAA04234FF0000824F024FB0C98BAF1000F1DD031
:2032BC0010F4403F17D04FF40050DFF820140134013DABF810009BF80F00097801388BF8E5
:2032DC000F00012050FA86F0B0FBF1F202FB11068BF80D60CFE7A046CDE90956C0B20A9D86
:2032FC000024702803D0E8B270211FF0D9FF5FFA89F600210CAA0423304624F0F1FA9DF831
:20331C003000FE2803D03046FE211FF0C9FF30460621FE2223F068FA4FF400500BF1160124
:20333C008BF80C908BF80D50ABF814405A46ABF81000FF208BF80E00E8B2400050FA85F0DF
:20335C00D57B01EB8000B0F806B0DF4804707000A2F812B050FA89F001EB8003FE20194621
:20337C0001F8020F33F8060F02910790D7480193047812A81FF08AFA0A980A9A089655FA0E
:20339C0080F0013890FBF4F101FB14000090D5B20A92B54200F04A81A81BB0FA80F040095D
:2033BC000590002006900020C00740F093801FFA8BF0162871D9C4480078002840F03C81C7
:2033DC00ABF1070A28460DAA1FFA8AF4214615F0BFFCBDF8426006F11000A0421AD89DF87A
:2033FC003E00962816D19DF83F00C10701D1800703D40020AAEB060B2CE0AAEB06009DF800
:20341C003D2031462B4684B2204618F013FD20B3ABF1080A1FFA8AF01728C0F00D81AAF16B
:20343C001604362828463A4688BF2024AAEB040AA3B21FFA8AF124F053FA2004EAD017FAA3
:20345C0084F010F8010C962801D0013CF5E704EB0A0B0020DDF82CA0A6E7F01D83B20798EC
:20347C0013FA80F1B1F5005F01D90120F2E780B28B469A4918440A1A2846214624F030FA60
:20349C00069801300690BBF5005F07BF01204FF40051594600200791ACE7069810B18C4903
:2034BC0024F067FB0098C0B2854200F0C2800A990120089E50FA81F084490978B0FBF1F276
:2034DC0002FB1102824902EB420001EB8000B0F81CB05CE7069810B17D4924F04AFB002005
:2034FC00DDF828900590784C2078002840F0A48007981021C0F50052103883B20898C1F20F
:20351C0000121FF0DFF9217808431299207071480068426870489047059888B16B4800781C
:20353C002918013991FBF0F202FB101968495FFA89F0400050FA89F001EB8000B0F81CB0FA
:20355C0063480799089C0123A0F814B08346018280F80E900198BBF9122001809BF80D10CE
:20357C00204621F0C1F9BBF914209BF80E102046022321F0B9F9BBF81000BAF1000FC0F5E5
:20359C00005004D004998842A4BF01210391049988424FF07C01B8BF7821089C20461FF01F
:2035BC007FFE0CF065FC05469BF80F000621FC22401B8BF80F00204623F016F90299FC20B7
:2035DC009BF80E3008709BF8021015FA88F00A9301443E480078B1FBF0F202FB101909F1CC
:2035FC0001018BF80290CAB2B2FBF0F202FB10118BF8011003EB43010BEB8101898B1029E4
:20361C0006D10A990131B1FBF0F202FB10100A900998401BBAF1000F09903FF429AE0398A9
:20363C0080F00100C0077FF423AE0DE00120354658E7DDF8009056E726481299006842685D
:20365C002548904700223AE07C201FF043FE0446FF281DD17E201FF03DFE0446FF2817D142
:20367C009BF8014004EB44000BEB8000807DFF280AD016489BF8021000780144013991FB2D
:20369C00F0F202FB101403E020467E211FF008FEE0B2FE218BF80340400050FA84F00BEBA3
:2036BC008000808BABF806009BF802001FF0F8FD00208BF80500BBF81000C0F5005210B2ED
:2036DC001BB0BDE8F08F00BFD80000209FE9002050E20020D8010010004003400020001191
:2036FC002DE9F84305460C46480414D4A00023D4A0075DD4600500F18080200500F1078129
:20371C00200700F13C81600040F1F78018F0C8FF24F08044F1E024F016FEDFF824140F6D85
:20373C003FB1D7E90A1202F0E04201F00A01891848D024F010FE5DE0BC48DFF808740168B9
:20375C0041F080010160B878012804D104201FF00FFE0020B87024F0F6FD0646B448406D88
:20377C00016804208847DFF8E4130A68904219D12A7EBAB1FA68AAB1DFF8C403806C002853
:20379C0000F09880C16840F603020988914206D0C06840F604010088884240F08B8005F181
:2037BC00140089E040F6C4120860C5E9042285E009F0D6FEDFF88803006C002808BF24F025
:2037DC0002049AE0D7E90A65D7E90A12AA43B143C7E90A1224F0BFFD56EA0501B86818BF88
:2037FC00002807D0D7F808C03869B7F9301032462B46E04724F480447FE024F0A4FD05463B
:20381C0022F076F9002800F0B780CD48876B002F00F0B280DFF82C830420CD49002288F802
:20383C001800C74822F049FB24F028FDC94824F084FDC5480068006B8047C8F81000012573
:20385C00042088F8025020F0E7FA386990F82810C8F80400490703D5436A04210022984745
:20387C0001201AF011FCD8F80400457611F07AFFD8F8040081680B461A465B684BB11E8818
:20389C00A6F60306072EF7D805FA06F616F0830FF2D0537B03F0F003013353730023FD68D8
:2038BC0053602D88A5F60305012D00F28A80C8F810309FE005F110001DF048FA304624F059
:2038DC004AFD20F0C1FA78B12E6A28466FF4807100224FF00073B0479948806B10B118F0D7
:2038FC00DFFE01E044F00204EE692846002100224FF08063B04724F0005434B198482146FF
:20391C002830BDE8F84324F060BDBDE8F8838D4EB078012804D104201FF02AFD0020B07067
:20393C0020F092FA38B170686FF4807100224FF00073056AA847306950B183480068006B50
:20395C00804732697168801A000BC860002030617B4D82490022284622F0AFFA02203076EC
:20397C00286C20B17E480221283024F02EFD18F097FE24F40064C0E724F080FC41E024F0C1
:20399C00E2FC054622F0B4F8A0B1DFF8B88198F8000000070ED498F9000000280AD4684605
:2039BC0012F018FD08B1009820B1DFF8B89199F8610048B324F062FC18F072FE24F008049B
:2039DC009BE7034633F8385FA5B190F8445090F8456005F0F00580F8445006F0F005013588
:2039FC0080F8455000255360C5634587507B00F0F000507358480022C2610160012022F0EB
:203A1C00C9FC24F4806478E700260127602E11D009EB0600817A31B18772407A07FA00F032
:203A3C00C0B21FF0BFFC2036F0E700BFCC2108408C010010032088F81800464824F07DFC9A
:203A5C0024F01CFC444F3E4D0022786900207861F968F8602846444922F02FFA3A4800682B
:203A7C00006B8047D8F80C10D8F82020411A02EB1130B0EB113F38BF4FF0FF3098F824105F
:203A9C00C8F8200021B1D8F80810B0EBC12F20D922F090FCB8B140F60900414621F83C0FBB
:203ABC00002048804A7B02F0F00201324A730A7B02F0F0020A734860F8613960B8F83E00FB
:203ADC0010F4406FFAD00020C8F82000012088F824001CF0BBFA2548002101600220002195
:203AFC0022F058FC02201FF043FC102011F016FA98F8010020B9D8F80400503024F05DFC68
:203B1C001B48807810B90D2011F008FA98F8250028B1002088F8250005201FF029FC002069
:203B3C0088F818001348C8F81C000220B5F85610B5F85420914208BF072017F097FF3BE7C4
:203B5C0020060020F80400208C010010380D0020E95A0200D0E0002000100440C1080100B2
:203B7C006005002080DE002021C7010000000460E09C02009D0001002DE9F04F8DB084782F
:203B9C000226142C00F21F820546DFE814F02900150015004A0085001C021C021C021C025E
:203BBC001C021C021C021C021C021C021C028E009C00AF00BE00CC0001206A78022C8DF8FE
:203BDC003100089240F0C080E878291D03288DF82C0040F0E18009A8082223F0B1FEE0E01E
:203BFC0010208DF82400102024F0D7FB98B10446DFF8E00321466060E81C0FF077FE8DF849
:203C1C00240028B9204622F003F88DF8240010B1204624F0C0FB002609AB642000210122CF
:203C3C00C2E10020CDF82A00ADF82E00CDF8260002208DF82C00E81C24F0ABFBADF824009E
:203C5C006979A8798DF82D1023F00AFF8346E81D24F09FFB95F80C908046687AAC7A95F867
:203C7C000BA04FEA49078DF83100384624F095FB002800F01081CDE9074806464FF00008DB
:203C9C0005EB0800474570D00D3024F082FB26F8080008F10208F3E7E8781FF053FC8DF830
:203CBC00240009AB6420042189E1E978032900F25281281DDFE811F00400510155015D0194
:203CDC0017F076FF76E1E81C24F063FBC04C6668002E00F0E4806A79002A00F0E480336827
:203CFC00A91D184423F02CFE0020D9E0B84EEC1C04212046376821F065F9002F4AD0B9685F
:203D1C00814200F0A0803F68F7E7A888ADF82400E87809A922F072FE8DF832000DF13203B8
:203D3C00642013214BE10026E878ADF8246009A922F03AF9BDF824000DF132031421022278
:203D5C00ADF8320064202FE1E81C02218DF82C1024F01FFBADF82400002005F10608ADF834
:203D7C002E0068798DF82D0026E0BBF1000F00F0B580437B0DF131010E30CDE90496CDE94E
:203D9C00000107985946CDE9020A09A8089A1CF045FEA4E0012000E1084624F0FAFAADF8E3
:203DBC002400287B8DF82D0005F10D0024F0F1FAADF82E0005F10F0898F8000023F050FE9B
:203DDC00054608F1010024F0E4FA98F8036098F804A098F805B08146022C8DF8326009D13E
:203DFC0008F1060024F0D5FA074608F1080007F10A0104E098F8067008F1070039464DB10D
:203E1C000A3189B2FB2907D3DFF8C481D8F8040000286ED0022009E00DF132018DE8030CFC
:203E3C0009A84A463B46294604F064F9089E8DF8310006F0E000202840F0C4800DF13103C4
:203E5C0064202146BBE0EC1D204624F0A2FA6D7A002D00F0978005F102098246484624F01B
:203E7C009CFA002800F098800026457080462A460670786800EB0A0108F1020023F060FD98
:203E9C005FFA89F26420122143461DF0E7FA404624F081FA97E010208DF8320024E010205D
:203EBC008DF8240016E0D6F800C0F38AB28A3169757EB77E06F11800CDE900C0301DCDE9B6
:203EDC00025704F017F98DF82400606824F063FA0020606009AB6420112170E002208DF846
:203EFC003200304624F057FA0DF132036420032165E007F11C0024F050FA0028C8F804001B
:203F1C0055D000F11C010C22016000208DF83100D8F8040009A9043023F012FDD8F804003D
:203F3C000F214FF47A7205612A4DC17680F81AB080F819A00676C782A0F8149008212878B5
:203F5C0024F0A2F9089E00283FF473AF2878082119F042F86DE702202CE0007819F06CF800
:203F7C0028E0007823F07CFD18B323F063FA002020E024F00EFAA97923F086FFB0FA80F0CE
:203F9C00400917E03068B84201D138683060384624F001FA002000E010200026207064203A
:203FBC0012210222234666701DF058FA0BE010203CE701208DF8240009AB6420102101225C
:203FDC001DF04CFA002630460DB0BDE8F08F00BF740C00209EE900202DE9F04F8FB00C4609
:203FFC0008040CD4A00426D4DFF88853287802282DD1E10740F00181A10641D558E0DFF83B
:20401C006C03007819F0E6FC90B10178DFF8602305460020602808D0135C08308B42F9D195
:20403C00104450F8041C28468847284622F04CFB84F4004595E11CF0D5FB28B10546FCF77E
:20405C0001FE284622F040FB84F4005589E1A1062ED4012814D8E10600F11781610600F1CD
:20407C002F81210600F13D81E10500F13F81210500F14181E10400F15481610400F15B8151
:20409C00A10700F1E080A10500F1FA80210700F11181610500F11981E0034FF0000540F106
:2040BC0060811AF09BFFB648C57084F4803558E1AE4F202138781DF051FADFF8C48201253D
:2040DC00D8F80810084317D024F02FF9054623F003FE68434FF47A71B0FBF1F0D8F80810C2
:2040FC00401A4FEA500538BF6FF00045002908BF0D46002D00F0C28000200421002221F007
:20411C008DFA06464FF0060A4FF0FF094FF6FF780DF1080B002E4DD03046042100223746C8
:20413C0021F07CFA06463889401B38BF002038810004EFD1B87BD0B301280AD178894007DE
:20415C0007D4386887F80DA0B721407B1CF002FBE0E739685A468DF80690ADF80480086A42
:20417C00C97F0CF095FD01281BD1B87BB97A8DF838000907788A40F08002ADF8362006D57B
:20419C0040F4C070ADF83600387B8DF83A00786910B1007BADF81800584601A9002202F01C
:2041BC0073FD387B87F80DA015F024FBB2E701207873AFE7DFF8C8816C4F21F03FFB0020EF
:2041DC000121002221F02AFA18B13878202118F003FF002004210022002621F01FFA0028A7
:2041FC0047D006890421002221F018FAA0B10289B1B2914228BF1646F4E7654890F82C10F2
:20421C000F2906D190F82600022802D300201FF0D3FD84F00105A4E0A8B2B1B2814223D94D
:20423C00D6FA55F0202180B24200387824F02CF824F07BF8054623F04FFD68434FF47A71A6
:20425C00B0FBF1F615E05348007818B302AD284623F08FFF23F06AFD4F490B784F490A7870
:20427C00294619F08DFE22E03878202118F0B4FE0026C8F8086084F0200572E000259CE791
:20429C0014F034FF84F400756BE008F009F984F0100566E03E48418B012024F074F8287837
:2042BC00022804D131480121007819F065FB84F0020556E03248012184F00805817050E078
:2042DC000BF062FF84F040054BE0022808BF15F091F92F480121808C24F047F884F48065AD
:2042FC003FE022F033FD84F080053AE020F0F2FF84F4807535E01AF083FB2048007801281A
:20431C000CD11D48007848B14FF47A7100FB01F216484FF40061007823F0B3FF84F4006596
:20433C001FE01748017819B1002101701AF068FB84F4805515E01448006880B111490978AF
:20435C0001290CD180471148006800B1804707484FF480414FF47A72007823F092FF84F424
:20437C00804528460FB0BDE8F08F00BFA0E900207C960200300C0020310E0020320E002074
:20439C00E80B00202F0E002094090020A009002008DE00200D0E0020350E0020370E002002
:2043BC002DE9FE4F8846080426D45FEAC87004BF0020BDE8FE8FE548056823F0B6FF044668
:2043DC0023F08AFC60434FF47A714FF6FF72B0FBF1F14FF6FF70002D00F01A812B886C8801
:2043FC00CB1A9BB29C4240F21C81E31A94B2A342B8BF1A46ED68EEE7DFF840A3CDF8048096
:20441C009AF8000019F0E6FA002800F0FC8006460078012840F0EC80DAF8041096F83390B1
:20443C00D6F814B096F8138021B148468847002840F0DE80718896F83100022220F0AAFE34
:20445C000546002842D0287A297CA0F10108FF2900F0BB80707F4F46C00718BF0027E97CD9
:20447C00287D0144B94204D8E974FF2101FA00F06874A969A87C96F83020896A10FB0710F2
:20449C00F16A23F05DFA287D697CB7FBF0F202FB107001228240D2B20A436A74C8457CD1B2
:2044BC0096F83010AB7C13FB0713A9698B844FF4FF7303FA00F0C0B21043FF2868746CD1FB
:2044DC00287C19F0B5FDFF2028747FE0707FC00700F08E80B07F23F0C3FA002800F0888074
:2044FC0004461C2023F059FF002800F081801C21054623F0D1F8B07F02A921F055FD9DF860
:20451C00090002212875284621F0A4FD708896F8312096F8301096F83330A880287DEA71D8
:20453C00FF2202FA00F0687460680078A9742874302013FB010080B221F04AFA0028A86166
:20455C005DD004461A20B11C2060708CA080A01D22F062FAF27F04F13000B17F96F828304E
:20457C00C4F81CB084F81980A062307CE273744A217563750121A075928C2282F28EA285B3
:20459C00F28C6282B6F81100A4F817009AF8000085F8089018F020FD55E723F0C6FE044602
:2045BC0023F09AFB60434FF47A71B0FBF1F065492880634809780079484364214843624999
:2045DC00097800FB0100688000E04F46E87C297D6A7C01440139B94218BFFF2A0CD186F820
:2045FC003300708806F11C0186F8342016F0D9F9304622F069F803E7C845F9D1EFE72846C8
:20461C0021F038FDF4E7019880F40040BDE8FE8F92B282424BD049480121007823F034FE4B
:20463C0045E0A879022806D1287CFF2837D0A86922F04AF833E023F078FE044623F04CFBA0
:20465C0060434FF47A71B0FBF1F03F49288095F83800097888421BD295F83620FF2A06D1D1
:20467C0095F83720013085F8380085F8362095F8351095F8394082F0FF0300200126C7B275
:20469C00A7421DD206FA07F71F4214D10130F6E7EA8BA87E95F82A10E9231DF051FD28469D
:2046BC0021F0E8FC25480121007818F095FC88F00100BDE8FE8FFBB201441A4385F836207C
:2046DC00AB8F95F83440C8B204FB10339EB2A64203D2FF2285F8362002E0FF2A08D1234679
:2046FC00184A174E1278367972436426724302E095F83A2023466A802A8D0E0606D022F0DB
:20471C00200244432A852A6C224404E042F020012A6C2985297A85F82E10E9796A6285F8A5
:20473C002D10D9B269840549496811B188470028B8D105F1100004F083FBB3E7540C0020D5
:20475C0008DE0020250E00202B0E002094C300207FB50138072800F24C810C46DFE810F0A0
:20477C0008002C0054006E0089004901A600C900CB4800780138012800F23B81002C00F02E
:20479C0047810020032100241DF0BAFEC64DC74E0420042132222870307823F075FD082056
:2047BC00002106F0DFFE30786C704FF4805104B0BDE8704019F0E0B80020002523F058F9FE
:2047DC00BB480121017004208DF80D0074B1B548B34C45852078012803D1072021F01AFEA1
:2047FC002078022802D1062021F014FEAE48042132220570AD48007823F046FDA94890F89F
:20481C002B1001F0FE01F2E0A54800780138012800F2EF80A54804213222007823F034FD35
:20483C00002C00F00F819F4C9F48012101702069002800F0EC801EF0E9F9F8E70120002C22
:20485C008DF80D007BD0974800219B4A80F82A10984823F0D1FA924C2078012803D1072070
:20487C0021F0D8FD2078022870D1062021F0D2FD6CE002208DF80D008A48002C73D00021CB
:20489C008D4A80F82A108B4823F0B6FA002003211DF036FE824C2078012803D1072021F0BD
:2048BC00B9FD2078002877D1092073E07C4D00208DF80D00002C28787BD018B9092021F005
:2048DC00A9FD2878022806D10820002106F04AFE042021F09FFD10F07BFB73480021C822E1
:2048FC00017070480D2180F82A10704823F05DFC78E005208DF80D0069480078022878D1C4
:20491C00002C00F0C38068480022C178C270017042F20800002106F025FE62480D2190F898
:20493C002B2080F82A10C17802F0DF02002980F82B200CBF04200D2021F06CFD59E05848F7
:20495C00007818B95748022180F82A105648002132220170554823F028FC524890F82B10C9
:20497C0001F0FD0143E0082180F82A104C490978012911D890F82E0070B900200DF10A01FD
:20499C008DF80A0052201CF0F1FA22F0E9FD1DF051FA002021F03EFD4348002132220170D6
:2049BC00424823F002FC3F4890F82B1001F0FB011DE03C4C022812D194F82E0078B194F808
:2049DC002B00002140F0200084F82B0005208DF80D00082006F0C6FD0A2021F01BFD02206B
:2049FC0084F82A002F4890F82B1001F0EF0180F82B102C480022032390F82A008DF80C0028
:204A1C002A48007803A900910A211DF004F97FBD244C0720254D4FF4805184F82A000120FE
:204A3C008DF80D00287818F0A7FF0020002620F055FD2878022141F2883284F82B6023F008
:204A5C0023FCD6E7174C022000218DF80B1084F82A001548017094F82B000DF10B0100F0F3
:204A7C00FD0084F82B0001208DF80D0052201CF07DFA22F075FD1DF0DDF9002021F0CAFC70
:204A9C0020690028B5D01EF0C1F8F9E70548022180F82A1090F82B1041F02001A7E700BF99
:204ABC00300C0020F007002018E90020A7E90020220E002008DE0020F60D002092B0DFF804
:204ADC00EC92D9F8000010B1002180F8451048301FF082FB23F037FC8046072010F0DCFBAE
:204AFC0016F0FAFF10B1B24823F032FE19F024FB01AD284622F094FF0427002029468DF875
:204B1C00047022F095FFAB4C206022F0CBFB0AAD284622F04DFE002029468DF8287022F0D0
:204B3C004FFEA54E306022F0C7FB06AD284622F04FFE002029468DF8187022F051FE31689F
:204B5C009E4D286019B99E4823F002FE286810B99C4823F0FDFD206810B99B4823F0F8FD75
:204B7C001BF020FDD9F800004FF0FF3438B1CDE9104410A9082221F045FE01281BD1CDE9B9
:204B9C001044082023F009FC002846D005460026052E04D823F0ADFAA8530236F8E74FF696
:204BBC00300029460822E880884822F0C9FE284623F0F1FB09E0D9F80010CDE91044002995
:204BDC00DFD08248082222F0BBFE10AA0120082123F0E4F9092800D0D8B920F0C5FA80076F
:204BFC0012D4CDE91044CDE90E440EAB01200021082222F037FD60B90EA810A9082221F073
:204C1C0001FE002800F0CB80704A0120082123F0CBF96E49E2201CF0A9F911F0F7FE282096
:204C3C0023F0BBFB6A4E0028306055D0694F6A4C07F10C0523F0B5FA22F01AFE306805609A
:204C5C0007F1100523F0ADFA64498968D1F84C1388473068456007F1140523F0A2FA1BF0D4
:204C7C0061F83068856007F1180523F09AFA18F041FD3068C56007F11C0523F092FA1EF0BD
:204C9C000BFA3068056107F1200523F08AFA1DF049F93068456107F1240523F082FA1CF0F8
:204CBC00DDF83068856107F1280523F07AFA22F0D1F83068C56107F12C0523F072FA1FF089
:204CDC0013FA3068056207F1300523F06AFA387022F00AFC3068456217F008FF40484149E9
:204CFC004FF00009CDF8409001603F480321119010A81FF049F822F082FF404623F02BFBB4
:204D1C0016F0F8FF23F018FA01201CF0C7FD18F019FF37480078022808D13448007801282D
:204D3C0004D14FF40040012106F01CFC294F4FF48041387823F072F82E484FF0FF310068D9
:204D5C0023F002FDDFF8B08078684FF0FF3123F0FBFC3068002550F82510096821B9691CBB
:204D7C00092D0D46F7D3EFE722F0D1FC316851F825100C68C1F8009022F034FB58F8252065
:204D9C00002021469047044622F0C1FC316851F825100A6822430A6022F024FBD4E70B48E9
:204DBC000EA9082222F0CCFD33E700BFC40D00203C97020000E9002004E9002008E9002055
:204DDC005A9702006D97020080970200B6E800207CE900201C040020593302000C01002067
:204DFC00AC0900201DBA0100008D15004A0E0020300C002058E90020049A02002DE9F04F1E
:204E1C0089B08A4608040DD45FEACA7040F01D815FEA8A7000F12B815FEA0A7000F13381E7
:204E3C00002042E1A24F387818F0D4FDDFF88892A04C06464FF0000B48F21508002E00F0B1
:204E5C0001813078312838D0322849D0D32840F0B380F089404573D0382840F0AD80CDF817
:204E7C0020B0CDE906BB304606A91FF095F89DF81C10052968D8307B002840F09D809DF82A
:204E9C001D00002800F09880052800F29580069822F099F9002840F08F80707C8749787028
:204EBC00708808809DF81D00214601388DF81D0006A890E82C002CC17EE0B87803287BD817
:204EDC0099F82E10804822F07EF9002874D1FF207C49607170880880B088794908806BE027
:204EFC006079FF2814D0002015F0E4FC0246B9F8701078783346CDF800B012F0CFF86079B4
:204F1C00002859D038780821322223F0BDF953E099F81810706820FA01F2D2071ABF314436
:204F3C00097A002106F1080200231B2B42D020FA03F5ED0702D0D55CA9421ED80133F4E73C
:204F5C00304620F02BFA37E0FF293DD0FE2956D199F872109DF81E00884202D860BBFF2943
:204F7C002AD11BF005FE069900201B2859D021FA00F2D20757D10130F7E7B9F86E004F490D
:204F9C00334608804E4802884E48018810200090002012F083F80120F870B87840B93C204A
:204FBC0002214EF66022B880387823F06DF9B8780130B87084F805B0304621F085FB38781A
:204FDC0018F008FD064639E799F872109DF81E00884203D80028EFD1FF29EDD11BF0C8FD33
:204FFC00069838B1D9F82810814203D0C9F8280021F020FABDF8200021F068FFDCE7307BA0
:20501C000028D9D170882D49802200230880707CCDE900BBCDE902BBCDE904BB10F04AFF59
:20503C00CAE71B2000E0C0B299F818108142C3D02649087099F80700642100FB01F2387865
:20505C00012162E78AF400402FE020491A4C08782076E1201BF08AFF21F0ECF90020A4F8D0
:20507C007000012015F026FC8AF001001DE010488188B1B101394EF6602281800078022185
:20509C0023F002F90FE00B4C607938B12179206822F099F810B96079013860718AF00800EB
:2050BC0003E0002181708AF0020009B0BDE8F08FDC0A002058E8002008DE002092E8002080
:2050DC00AEE500208AE2002000F8FF07A3E900202DE9FE4F074608680024B0B1D7E9018ADB
:2050FC000E4623F030F98146D8F8E800082888BF0124B068204202D17068204208D0032067
:20511C003074484623F027F900242046BDE8FE8FD8F8C01069B198F8F8100029EFD00621F1
:20513C003174D8F8C410C8F8C4604E6198F8FC100DE000210522C8E93066C8E93411C8E9B8
:20515C00361198F8FC10002908BF0122327400220129726109D102204FF4E02188F8FC00BC
:20517C0098F8FB001EF020FD706889490138884205D804201EF050FE06201EF04DFE0220B2
:20519C001EF04AFE98F8F80040B9DAF83C003168814203D298F8FC0000286CD0D8E93610E6
:2051BC0009B118B900E028B323F003F8DAF80000416941F001014161484623F0CCF898F839
:2051DC00F80008B10124A0E708F16C05D8F8EC10284622F025F90028F4D0D8F8C0000321E2
:2051FC000174384609F0B0FE28460021002422F017F98AE79AF8040023F0A7F8654CDAF8E8
:20521C0010100222206991FAA1F1B1FA81F14368D8F8CC004068006898472069DAF81410B6
:20523C0002224368D8F8CC0091FAA1F1B1FA81F14068006898479AF8040023F080F89AF80B
:20525C00040023F084F822F0B4FF0020C8F8E000D8F8C0000068B0F5806F01D922F0A9FFFA
:20527C0098F8FE000028A1D1DAF80000416841F0020141609AE798F8F90020B1D8F8EC0003
:20529C0001307FF48BAF484623F065F8B2683AB1D8F8E8000221092838BF0121009103E078
:2052BC0008F1F40200200090746834B1D8F8E8000227092838BF012702E008F1F604002745
:2052DC00DAF80000334D416841F002014160D6F800B0D946BBF1000F40D0D8F8E80001922F
:2052FC0009284FF0010011D22A68B9F1000F1FD0C0071DD02178DAF80000926890470028EC
:20531C001EBF3C44A9F101090120EDE72A68B9F1000F16D0C00714D02188DAF8000092682A
:20533C00904700281EBF3C44A9F101090120EDE7DAF80000D26802A99047DDE90120107067
:20535C0007E0DAF80000D26802A99047DDE9012010800098ABF1010B0244BBE7D8F8F0005D
:20537C00DAF80010CA680240102802D1002AF9D101E0002AF6D0706820F022FDD8F8C01044
:20539C000020C8F8C400C8F8C00008741AE700BFFEFFFF0FC40100102DE9F04F85B0884659
:2053BC00080418D4A9480078012802D85FEAC87155D15FEA88714CD4022807D1A4480078FD
:2053DC00012803D15FEA487000F188805FEA087057D400202BE1DFF85CA29AF8000018F033
:2053FC00F9FA002800F021810546807FC8B9688C132816D190486E8800F11C090020494670
:20541C004F46002818BF071D086850B1014631F8042BB242F4D144683C6022F0BCFF204674
:20543C00F3E7A87A05F1020B022840F0E480DFF8089295F83170BBF8006009F11C00006863
:20545C00A0B10188B14202D18178B94242D00430F5E779480121017088F00200E7E0764827
:20547C00406900B1804788F00100E0E0D9F81C40002C57D001206168002955D001300C467B
:20549C00F9E77048DFF8B091807BD9F81C60000760D422F04AFF044622F01EFC6A4A604395
:2054BC004FF47A71B0FBF1F0D9F818101288411A91427AD3B1FBF2FB0BFB02F2511A0844BE
:2054DC005E49C9F818001FFA8BF00978884288BF8B4641E059490978C170A3E05E495D48F5
:2054FC0000224FF6FE7300240978023079B130F8025C9D4208D04588013D45802D0406BFB4
:20551C00027020F8023C012401390630EEE734B1484804214FF4FA72007822F0B5FE88F03F
:20553C00040084E000240020454980B20988884261D2082022F031FF00285CD000210680F0
:20555C00877041603D490978C170D9F81C1079B360603FE04FF0010B00205FFA8BF44FF0D5
:20557C00000A071D002808BF09F11C0796B1F078C0FA5BF1A042F17006D8756830463D600F
:20559C0022F009FF2E46F1E7716830460AF1010A0E46E6E75FEA0A4007D100200821C9F89E
:2055BC0018002448007818F0E7F988F008003EE0C9F81C002348807B00070BD422F0B5FE5F
:2055DC00044622F089FB60434FF47A71B0FBF1F0C9F818001B48807B00070CD59AF80000C1
:2055FC0008211BF0BBFF30B91748082102889AF8000022F046FE2878022810D0012811D109
:20561C00297EAA89EB7C05F11C006C696E7E8DE85A0005F11003594605F08AF902E028461B
:20563C0014F010FD284621F04FF888F4004005B0BDE8F08F9DE90020140A00202A0E0020A6
:20565C00F00D002008DE0020F40D0020300C00204A0E0020D2CE0020070E00202DE9F04FCC
:20567C0087B0851C8346284622F0DBFD01AC06461821204622F010F89BF801A004F10B002F
:20569C002946009522F045FE6FF001009BF80A1002240122ADF8180000208DF81A408DF8FE
:2056BC000C0001F00800C1F3C007890782EAD00507D4002808BF0124B946A8460027002555
:2056DC0007E004244FF000094FF00008002808BF03248548007850EA0A000BD0834890F843
:2056FC002600082809D122F08BF800285AD0BAF1010F57D14FF0C30901E04FF0C209002579
:20571C00BAF1000F10D07F48007890B9BAF1010F0FD1002E55D00020214601228DF81A0014
:20573C0001A813F0A7FD0AE001A81AF0E7F886B91CE001A82146524613F09CFDB6B17179B1
:20575C00BAF1020F41F04002727104BF41F0600171719BF80A10490603D5717941F0800174
:20577C007171B17900240131B17100E00124B0FA80F149090D422CD107D1002D18BF814628
:20579C0041F20100494616F0F4FB14B9009818F047FBBDF818004FF6FE71884218BF22F052
:2057BC0006FE16E0DEB33279A24218BFBAF1020F12D1D01EC0B201281BD857EA050020D18A
:2057DC002AE00220214601228DF81A0001A813F051FD07B0BDE8F08F4FF000090099534609
:2057FC008DF81A903088ADF8180022F0C0FD012586E7501EC0B201280ED849EA0800012834
:20581C0007D130881FF0E2FE50B93088ADF8180008E0308822F0CBFD009818F001FB002633
:20583C00BDF818004FF6FE7188421ED11FF0DAFC10B1BDF8180011E0BAF1000F04D02C4DA7
:20585C0028881FF0C3FE30B19BF80A0000F002001EF012FB00E02888ADF818004FF6FE7120
:20587C00884202D14FF0C70949E79BF80A200099534622F07CFD10B14FF001093FE71D4821
:20589C00016811B1BDF818008847BDF818000099224605F0D7FF0646174818490A68007896
:2058BC004FF4803122F0F0FC01211548C17096B1AAF10100C0B2012807D81020BAF1020FE1
:2058DC0008BF08207179084370714FF0000901258DF81A9014E74FF6FE7000254FF00109EE
:2058FC000026ADF818000BE7040B002008DE0020E80D0020A8090020A0E90020B49D0200A0
:20591C00E80B0020300C00202DE9F04F85B0BAB1D0E9008A0DF11009002B14460D46074688
:20593C0018BF994622F00FFD064698F8070050B198F82C0160B122F086FC6FF008041DE1C8
:20595C006FF009041AE122F07EFC6FF00E0415E1012088F82C010020C8E94C54C8F8384159
:20597C0088F80B00C8F84001C8F83C0088F80D00504622F0A1FA22F066FC21F0D9FC98F8C9
:20599C00052008B9002A77D00E99CDE90197481E10F1030F08D83AB908F5CA74204622F0A0
:2059BC00C8FC204622F0C7FC08F58A7408F5A27622F0C9FC07460DF10C0BD8F83801002852
:2059DC0000F0BE8098F80B00002840F08D8098F80D00002840F08F8030460021B14621F0DA
:2059FC001FFD22F048FC204659461EF02EFE074622F0A9FC0646D8F83801D8F84011874297
:205A1C0088BF0746039829443A4622F053FD204639461CF0E3FFD8F83801D8F84011C01B14
:205A3C00C8F83801C819C8F8400122F00CFC012F03DBD8F838010028D5D122F084FC074691
:205A5C00D8F8400128B1504622F036FA029810F0B1FD98F80500012851D0022866D0D8F811
:205A7C0038114E4600296AD022F005FC22F000FB22F069FC0746A0E798F84400C00615D5DB
:205A9C00D8F84060D8F84830384610210022B0470CE0D8F8400121462A1850461DF0D0FC55
:205ABC00D8F84011241A0144C8F84011002CF0D1504621F0C5FF0028FAD0504622F0F0F93A
:205ADC0098F84400800607D5D8F84040D8F84830384620210022A047002488F82C41D8F833
:205AFC004001C9F8000049E00020019E6FF00D0488F80B0032E0019E6FF00C042EE0D8F8A7
:205B1C0038010024019EA0BB384688F82C4122F022FC98F81100DDF808904FF0010A88F89F
:205B3C0012A078B3002422F00EFC16E0D8F840010024002808BF6FF00F04019E12E010B14E
:205B5C00019E00240AE022F096FB22F091FA22F08FFA002422F0F7FB019E074698F80500F8
:205B7C00012806D0002088F82C0108F5CA7022F0E4FBD8F84001306022F07DFB204605B0CF
:205B9C00BDE8F08F002401200028CBD0D8F84830D8F84021D8F8D87148462946A8F811A0DD
:205BBC000094B84798F8120088F81140ECE770472DE9F04F8DB0044600209A4616460F46AC
:205BDC00CDE90B00CDE909008748856880460FF077FF262803D00FF073FF25281BD13088AF
:205BFC0040F60201884218BFB0F5C15F03D1F07B022810D93EE043F6070188420BD196F805
:205C1C002400032807D33069784940F0806020F0604088422ED100206FB366B3387825FA32
:205C3C0000F0C00726D03046002122F0B0FB7048C4E90176006880B109A800900CA90BAA27
:205C5C000AAB304609F046FC0B980B214FF6FF72502320F0DFFAFF280CD022F074FB654FA9
:205C7C0006467878012802D840B1012070E0304622F071FB00200DB0BDE8F08F09F09EFBE0
:205C9C005D480DF10409016841F0020101605B48C8F80000484621F0B3FEDFF864B15A49F8
:205CBC004A469BF801009BF800500390554828301AF034FB554856494A461AF02FFB484672
:205CDC0021F0BEFDDFF84C81534A19214B46029540461AF099F8514A08F11C001A214B469C
:205CFC001AF092F84E484F4922F073FA4E484F4922F06FFA4E48006810F4402F06D04D4AC0
:205D1C0007F12800042100231FF0BCFE9BF8020010B10D200FF0C0FA08F1400021F03DFA79
:205D3C0008F1380021F039FA4349002007223876B8843862386181F860200521C7E90210FF
:205D5C003E49F96138700420002120F023FB78782C4941F8204001307870304622F0FBFA97
:205D7C00BAF1000F06D10DF1040A35492022504622F0A0FBDAE90012BAF81000DAE90635D2
:205D9C00002AB2FA82F608BF40F6C4126261216060832563760926764FF4FA76C4E9036237
:205DBC0001226276274AC4E90722C4E90923DAF80C0000B12062DAF8140000B16062DAF870
:205DDC00080000B1E06104F13800C82121F064FC04F1500000211FF0F8FC1B4904F1B800AC
:205DFC0022F0F7F9204646E7CC2108400F0000058C0C0020F804002000200940110000E07B
:205E1C00E09C020060050020C9680200D8E10020F54201002006002021C7010079AC0100CA
:205E3C0014E10020C55A0200D0E0002075680200B44F0050E9F0010080DE00209D00010018
:205E5C00B09A0200FF9D0000CF8202002DE9F04F85B0D0E900498046D9F80000D0F840A020
:205E7C001AF4F06FC0F844A039D0216CB9B300225FEA4A512260A27317D5D4E91401411A45
:205E9C0040461EF09FFDD9F800008169C90605D401688DF80B109DF80B10F6E721684A1CCE
:205EBC00A17B226009B90121A173616C40684FF0004600F00F0505EA0100B0FA80F126FA07
:205EDC0001F1014004D0276C17B1A36C4046B847B5FA85F026FA00F028404042A063D4F8C3
:205EFC00E001D9F83C100AF0400B40680068D0F80425114051EA0B0165D0404618F0AAFD40
:205F1C0059464046BBF1000F18BF01210FF082FE207901284AD1206F002847D0CDF8049009
:205F3C00D8F8009004AE09F14C052846314620F008F8D9F870100746D9F86800D9F87820B3
:205F5C008F4288BF0F46049910443A4622F0B2FA284639461EF062FBD9F87000D9F8781097
:205F7C00C01B3944C9F87000C9F878100FB10028DBD1404618F06EFD404600210FF04AFEB8
:205F9C00DDF80490BBF1000F02D0A079012801D0206F58B90020A36CA16EA26FD4F81051C0
:205FBC00206784F8640000904046A847BBF1000F1CBF0120E07404F17C0022F0FEF9D4F808
:205FDC00E0014068006800F204500068D9F83810084255D0D4F83C01002851D0404617F09F
:205FFC005BF8404610F0E6FA607901283BD1D4F83801C0B304F58A7503A928461EF025FB06
:20601C000646D4F83801D4F83011D4F84021864288BF064603981144324622F04BFA284651
:20603C0031461CF0DBFCD4F83801D4F84011801B3144C4F838014046C4F8401110F0BAFA7C
:20605C00D4F8380178B994F82C0160B1002084F82C01A36CD4F83011D4F84021D4F8D8511D
:20607C0000904046A847D4F83C0128B9D9F80000816B41F40061816304F5A27022F09DF92B
:20609C005FEA0A5026D5D9F8000081690907FCD4016B21F480710163217A89B1002020724E
:2060BC0094F84400800606D5256C25B1A36C404620210022A84702201DF05AF9D9F80000F2
:2060DC00816B21F400618163607918B904F5A27022F073F905B0BDE8F08F70472DE9FC4742
:2060FC000446019005789448465D9448E840ADF80260C00740F01E810D2D13D1904E0DF112
:20611C000201B068D0F8282453209047BDF802104FF6FD70814214D8208990B14FF0000A8F
:20613C00A146AEE00C2D0ED0072D13D0052D0ED1A078012800F0FE80207C304400F12407B4
:20615C0016E0B068CDE06068C08AC0050AD44FF0000A09E0A07848B1A07D00EBC00006EBB7
:20617C00800705E04FF0010A374605E006F11B07ADF802704FF0000A38461FF029FC38B3D5
:20619C008146072D44D1207889F80000607889F80100A07889F802000028E17889F80310B0
:2061BC00D4F80510C9F804105AD0A07D002889F8080049D0A169002946D000EBC00009F10E
:2061DC0010068200304621F0BBFBC9F80C6040E00C2D40F0AF80A14659F8040F002800F086
:2061FC00A98022F0B0F8804655488068D0F854134846884738461FF0EBFB8146404622F0F7
:20621C00AAF8B9F1000F00F0958021F022FF38E021F01FFF052D34D109F11806D9F8041055
:20623C002422304621F08CFBD9F8141099F8102009F13C00C9F8046021F082FBD9F804007A
:20625C002430C9F814001CE0002089F80800C9F80C00A069A8B122F09EF80020A0750FE059
:20627C001B2009F110061B2289F808003046A16921F066FBC9F80C60A06922F08CF8002013
:20629C00A0613048016819B148468847002846D10D2D2BD1606801788A0720D42A4AC1F376
:2062BC008301927C91421AD140783F2817D894F83000022813D199F8470009F146011CF075
:2062DC0051FC01984FF6FF72418E91421FD14068807902281BD3484618F060FD50B3184865
:2062FC008068D0F8541301A8884723E00C2D0ED160781A280BD0D9F8040040B1C08AC0070C
:20631C0005D099F8100009F10F011CF02BFCBAF1000F04D10D484946007817F089FE0C2DFC
:20633C0008D1019850F8041F21B105498968D1F85413D9E7BDE8FC87149C020019C20600A8
:20635C000C010020C00D002008DE0020A0E900202DE9F04F8DB00646806A447874B18D49D9
:20637C0009788C4280F012818B49023022462AB130F8023B013A21F8023BF8E78748C18A77
:20639C00708988422FD183480078A04240F2FE80B589814A2146284620F0EAFA284615F004
:2063BC00E9FD064682480778BE4204D14FF6FE7015F0E0FD0646BE4280F0E880DFF8F4816C
:2063DC0008EBC6094F4657F8040F08B121F0E3FF002C00F0B180600021F0DFFF00283860E0
:2063FC0040F0AC80D2E0B27C002A00F0CF806A4F0025AC4205D037F815208A4203D0013502
:20641C00F7E7A04600E0A846002113F033F8002800F0AD8081464079012840F0A88099F8A8
:20643C00060010F0180F00F0A280B9F80210204620F08CFBA54202D3002800F098805848B5
:20645C00CDE90498B6F80C904FF6FE7A00780890544800780A90002006960B9052481130D7
:20647C00099052480430079000200C90DDE909564FF0000BF6B135F8117C574518BF4F456F
:20649C0002D1013E1C35F5E72046394620F05EFB0028F6D1287801380528F2D80C980BF1F4
:2064BC00010BC007EDD00B985FFA8BF1C0B28142E7D356E0DDE907862EB338F8047C574513
:2064DC0018BF4F4503D1013E08F12408F4E72046394620F03BFB0028F5D198F8050001383B
:2064FC000528F0D898F8000001380228EBD30C980BF1010BC007E6D00B985FFA8BF1C0B2C7
:20651C008142E0D32DE05FEA0B6028D00B98000625D101205FFA8BF50B90012D4FF001008E
:20653C000C90A3D021F0E5FDC0B2B0FBF5F101FB15000B90012098E7002038601E4989F84E
:20655C000140A9F80250097808F83610F4B1E8B1114962000DB0BDE8F04F21F0F1B94FF689
:20657C00FE770498069EDDF8148047800A4FB37CF47CB269B1890125581EB07470895FFABB
:20659C0088F68DE8D00003950FF08CFD0DB0BDE8F08F00BFDB9D020008E7002008DE0020CD
:2065BC00E69D0200D49D020058C6002080B40020DA9D0200B0AC0020430E00202DE9F04F7A
:2065DC0087B005462C200E4621F0E7FE002844D0778B044621F0BCFB0021E18401218742C6
:2065FC0008BF02212170707BA0703169081A6060204617F01DFA3178834F01F00301387BE6
:20661C00012908BF05206070C0B221F0E9F94FF0FF316077A182217F326908440A44317D27
:20663C003261081A3075E070A069013017D0207C032816D8DFE800F0021702090620214656
:20665C006082284615F000FF10B3042021466082284607F0F9F905461BE01025CFE0A32551
:20667C0017E0A12515E00020B3256082F87A80B997F8410001280CD1A07D4FF6FF7618F012
:20669C004DFD0025A082B04208BF6FF05E0500E000252078022807D104F1080620F07AFEA8
:2066BC000146304621F035FE280640F0A580574F3878013801281AD894F8260010B994F889
:2066DC002700A0B1A078E178227F08441044043021F063FE58B1A178E2780646207F114412
:2066FC0008446168021D304621F02AF900E0002620460DF06FFC05463878012802D12DB9EF
:20671C00002575E0022873D1002D71D0002E73D00DF1080800274FF0010B4FF4D00908F101
:20673C00080A94F8260018B994F8270000285FD0A178E278207F114408443146021D60688D
:20675C0021F0FEF894F8260020B184F82670C4F8129007E094F8270020B12D4884F8277030
:20677C00C4F8120020460DF035FC10B10021054639E04046142120F08FFF608A8DF819B0C4
:20679C00F0B9A08A40F20311884216D0682817D16068C17B052929D12A30FF21082220F0BC
:2067BC001DFD18B34FF0FF306946CDE900001948006821F0AEFDFC2000E0FF208DF81800C8
:2067DC00504669460022002512F0FCF901469DF8000038B10420142243461EF05BFB0321EA
:2067FC00002500E0032103299BD101E00221FAE716B1304621F0CFFD204621F0CCFDE8B2E3
:20681C0007B0BDE8F08F00BF08DE0020300C002000000301F0E800202DE9F04F93B0044682
:20683C001DF07EF808B1112006E1207F4FF6FE75B8B183480078810041EA40106188207769
:20685C00FF201EF037FE002180B1E08A05F1010B012640F00400E082207F40F001002077D8
:20687C0007E0002000264FF6FE7B08E000264FF6FE7B74480078022838BF012188010490B1
:20689C00678838461BF092FF08B10020607694F81AA0BAF1000F04D16B4890F800A084F8F8
:2068BC001AA094F90000C5B2B0F1FF3F07DDE07E40B966480178E1760131017002E005F0EC
:2068DC0003052570207EDFF88491012805D199F80B0010B90DB900202076DFF8688198F845
:2068FC000000012831D899F80E0080072DD5E6B1E08A410606D5BAF1010F03D120F004005C
:20691C00E08222E0A188E07E627DADF822708DF82AA0ADF824108DF82B0006A803F03EFFA4
