:2000000000340120E550020039FB021039FB021039FB021039FB021039FB021039FB0210B0
:1C00200039FB021039FB021039FB021039FB021039FB021039FB021011FB021002
:20003C002DE9F04F99B0054680780224532800F2C785DFE810F054009900A800B800C80008
:20005C00DA00EA000C011B01C5052A0138015901C505C505C505C505C505C505C505C505BF
:20007C00C505C505C505C505C505C505C505C505C505C505C505650188019401A001AB01E5
:20009C00BA01D401EB0107023A02C505C505C505C505C505C505600276028C02A202B80201
:2000BC00CD02DE020303C505C505C505C505C505C50538034C036003C5056D03770395037A
:2000DC009E03AA03B603C503CF03F2030F0434043C044E045B0467048B0492049504EC1C01
:2000FC00E97A2A7B002320461DF092FD8DF8180006AB65200021012221F06AFFDFF8180B2C
:20011C000078012800F25B85204628F00CFF002800F0558505460079012840F0508528F0CB
:20013C0099FC00274FF400018DF83F008DF83800000ACDF83A108DF841708DF83E708DF81B
:20015C0040008DF839000EAE214606F10A0028F062FF29781522334601706978877041709D
:20017C004520FF2100F029BD28F004FF6979AA790023002424F050FD8DF838000EAB652045
:20019C00012100F053BC28F0A7FC28F020FE01460EA8022228F0A3FE8DF8180006AB652084
:2001BC00022100F043BC28F097FC28F010FE01460EA8032228F093FE8DF8180006AB6520A2
:2001DC00032100F033BC28F087FC28F000FEEA7901460EA80023002426F046FB8DF81800B4
:2001FC0006AB6520042100F021BC28F075FC28F0EEFD01460EA8052228F071FE8DF81800E7
:20021C0006AB6520052100F011BC0020DFF8304A28F046FBADF85800681DA0478046E81DAB
:20023C00A04795F809B0824605F10A07BBF1100F00F2AE830EAC5E46002E00F0AC8338468F
:20025C0028F029FF24F8020B013E0237F4E728F043FC28F0BCFD01460EA8102228F03FFE1A
:20027C008DF8180006AB65200721DFE328F034FC28F0ADFD01460EA8112228F030FE8DF8A0
:20029C00180006AB65200821D0E328F073FE6A7B691D0023002423F025FA8DF838000EAB35
:2002BC0065200A21C2E302208DF8200028F062FEADF81800681D28F0EEFEEA79064605F1A3
:2002DC0008018DF838200EAF781C28F0BBF906A831463A460023002420F03CF88DF85800F2
:2002FC0016AB65200B21A1E328F044FE0021002422F0A6FC8DF838000EAB65200C2195E3F9
:20031C000020DFF83C4928F0CBFAADF85800681DA047804695F80F9005F11000A04705F12A
:20033C001304AD7C83460F2D00F247830EAE2F46002F00F04583204628F0ADFE26F8020B34
:20035C00013F0234F4E728F0C7FB28F0B0FA28F069F940F0468306A828F05DFE46E328F0BF
:20037C00BBFB28F0A4FA28F05DF940F04D8306A828F051FE4DE328F0FDFD28F0F1FC8DF8A6
:20039C0038000EAB6520232100F016BCDFF88818C8208DF81800E81C0978002900F0818327
:2003BC0027F0ACFD8DF81800A3E36879EE1CFE280BD1A879FF2808D12878082805D3304612
:2003DC0028F069FE314624F0AFFE0EA9304627F07DFA002800F09183054600249FE3E81C6E
:2003FC00042125F02BFCE97928F079FEDFF844188DF83800022027F0BDFEDFF83C1803205D
:20041C0027F0B8FE0EAB65202621D5E328F0ACFD044605F10E0028F03EFE297C6A7C03467F
:20043C00E878CDE90012AA1D214625F01DF9DFF800188DF83800042027F09CFE0EAB652060
:20045C002721B9E34FF00208E81C8DF8408028F022FEADF8380068798DF85800A81D28F05A
:20047C001AFE2E7A044600270935CDE9005716A80EA92246334620F0C3FD28F04BFB10D17F
:20049C00DFF890078DF84080CDE9005722463346C08AADF8380016A80EA920F0B1FD8DF8C0
:2004BC00180006AB6520282186E30226E81C8DF8406028F0F0FD28F08AFCED7904460EA8C6
:2004DC00002321462A4627F0CDF828F023FB0ED1DFF840078DF8406021462A460023C08A8E
:2004FC00ADF838000EA827F0BDF88DF8180006AB6520292160E328F0EFFAADF83800681DBE
:20051C00042125F09BFB6A7AAB7A0024014600940EA825F0D5F88DF8180006AB652030212B
:20053C0084E228F0D9FA28F020FC312201238DF8580016A8CDE90004DFF8F0060EA920F0BA
:20055C005FFD8DF8180006AB652031216EE228F0C3FA28F00AFC322201238DF8580016A8A8
:20057C00CDE90004DFF8C4060EA920F049FD8DF8180006AB6520322158E228F0ADFA28F0C0
:20059C00F4FB332201238DF8580016A8CDE90004DFF898060EA920F033FD8DF8180006ABC8
:2005BC006520332142E228F097FAADF83800687B0024691D0094C0F3400200F001030EA8DC
:2005DC0022F020FB8DF8180006AB652034212DE228F082FA6A7BADF83800691D0EA80023E6
:2005FC00002425F053FD8DF8180006AB652035211CE22C4614F8030B04281ABFE8782C1DF5
:20061C0002208DF84000204628F045FDDFF81866A5780121E278ADF8380000230024317064
:20063C000EA829461EF062FB8DF818002846347025F068FD06AB65203621F7E128F09AFCD2
:20065C00ADF83800687904218DF84000A81D25F0F5FA0446AE7AEF7A05F10C0028F01BFD00
:20067C00DFF8B0850546214632463B4628F0EEF80EA820F0A1FC28F04DFA10D1022021467D
:20069C0032463B468DF84000B8F81600ADF8380028F0DCF80EA820F08FFC8DF8180006AB52
:2006BC006520372188E26C7828F064FC0146DFF8740500781FF028FE8DF8380004F0E000A6
:2006DC00202840F07C820EAB65203E2174E26C7828F050FC0146DFF84C05007821F078F9E4
:2006FC008DF8380004F0E000202840F068820EAB65203F2160E200206C788DF83800DFF873
:20071C0018050078411E022980F09481022095E128F030FC28F024FB8DF838000EAB65200B
:20073C00422149E2002006908DF83D00CDF83900E81C06A926F0AAF88DF83800069850B1D2
:20075C0028F08BF881788DF83B10C1788DF83C1000798DF83D000EAB6520432106222CE2FC
:20077C00E81C27F0CBFB8DF838000EAB6520442122E228F0FFFB6979AA790EF071FB8DF812
:20079C0038000EAB6520452116E228F0F3FB6979AA791AF075FB8DF838000EAB6520462182
:2007BC000AE2EC7828F0E0FB0146204622F0DEFAB0FA80F0472140098DF838000EABC1E160
:2007DC00E87800248DF8384022F0FCFF0EAB652047212BE1E8780EA926F07CF806468DF84B
:2007FC00180040000130C5B2284628F058FC002800F0A381044600F8016B00219DF818202B
:20081C00914280F0BE809DF83830013100F8023B9DF8393000F8013CF2E70EAC1321204677
:20083C0027F0BCFDEE7828F09FFB0146304625F091FC002800F088810021231D8DF8381006
:20085C0028F00BF8C11C827818468DF83B2027F0F9FE7CE10020EC78CDF84600CDF842004B
:20087C00CDF83E00CDF83A0028F07EFBAA79ADF838000F2A28BF0F228DF83A2022B10EA810
:20089C00E91D033027F0DEFE0EA9204601221CF02FFD8DF8180006AB65204B218CE127F0D5
:2008BC00C3FC8DF838000EAB65204C2184E1E87829798DF838100EA9032800F05F810228E5
:2008DC0000F06281012840F06681522021F0C4F864E128F04FFB69790246A81D1BF0FDF814
:2008FC008DF838000EAB65204E2165E128F042FB0146687919F040FE8DF838000EAB65206D
:20091C004F2159E1C34D0822E88A05F13901ADF83800C24800788DF83A00A88CADF83B0003
:20093C00688BADF83D000EACE01D27F08BFE04F10F0005F11C01082227F084FE287E50217E
:20095C00182223468DF84F00652036E1B2480078002800F0018112200AE120F079FA2EE1AD
:20097C0000208DF83800E878010606D5A94910F07F0018BF012081F868000EAB6520532140
:20099C001AE1652049212A46234621F021FB39E180208DF863003E78102E52D80DF118096C
:2009BC00013734464D46002C4DD0384628F073FB25F8020B013C0237F5E780208DF8630085
:2009DC0027780F2F54D801340DF1180A3E46002E50D0204628F05FFB2AF8020B013E02344F
:2009FC00F5E7084628F057FBADF81800687E06A927F020FE0EA921201BF0F8F98DF85800EF
:200A1C0016AB6520212111E0084628F044FBADF81800687E06A927F00DFE0EA922201BF024
:200A3C00E5F98DF8580016AB65202221012221F0CFFAC5E0002840F0B580042009F040FAD0
:200A5C00B3E080200DE0BBF1100F0CD80EA9002052465B468DE84202039016A8414615F005
:200A7C00B7F88DF863000DF1630365200621A3E080200FE00F2D0FD80EA9002002974A467E
:200A9C005B46CDE9005106A9CDE9031016A8414615F046F88DF863000DF163036520202180
:200ABC008AE016A90EAD2A4618F016FD04469DF85800F0B1614904EB4400002641F8206017
:200ADC0001EB800046609DF94B00B0F1FF3F03DC05F1130022F09EFB0EAD1421284627F020
:200AFC005DFC0420214614222B4625F00FF88DF8186006AB652024215EE0182028F0CFFA64
:200B1C00002800F083800446BDF8380000211822234627F01FFC0546002818BFC825192001
:200B3C0028F0BDFA002867D007460130002D4BD01821FF2227F02CFC50E0002049218DF8CD
:200B5C00180006AB652037E001208DF838000EAB65204A21132230E028F00CFA044605F1EA
:200B7C000D0028F098FA0246691D204624F0BEFD8DF838000EAB652051211DE0522020F0B3
:200B9C006BFF2748002104E0522020F065FF24480121017002E0522024F000FE0EAB6520D2
:200BBC004D2109E001208DF8380004F0E000202805D10EAB65204021012221F009FA0024F8
:200BDC00204619B0BDE8F08F3146082227F03AFD07F109002146102227F034FD652025210A
:200BFC0019223B463D7021F0F3F93846192127F0D5FB384628F051FA002CE0D02046182178
:200C1C0027F0CCFB204628F048FAD8E7C825FFF7E4BB00BF08DE00204C0C00204C0D002023
:200C3C006B0E0020C2E900202B0E0020B00C0020415F020015640200794E010050A3002007
:200C5C00B39002002DE9F04F99B080466FF00700DFF8DCA80630ADF852009AF80000022825
:200C7C0014D1DFF8C808007880B9B8F8080010B11020012101E0302000210AF069FF00207C
:200C9C008DF81C0007A9522020F0E6FE0DF11C0998F80810D8F804004A4610F089FBE8B135
:200CBC009DF81E609DF81F409DF82050BDF8267027F0CAFE844211D127F003004FF6F87172
:200CDC0080B288420AD0012D08D8022E06D29AF80000022808D19DF84D0028B1D32013F0C6
:200CFC00F8F919B0BDE8F08FB8F82800ADF84800B8F83200ADF82A009DF82200D0B1D8F87C
:200D1C0004109DF81D209DF83830012026F048FC08B1CF20E3E7DFF81C08C078012809D1B1
:200D3C00B8F8280028F0A3F820B1417901F0E701083141719DF8210068B1BDF82610FF20E4
:200D5C0025F008FA9DF82110E0B141F001012C268DF8211017E09DF83900002800F0EB8086
:200D7C009DF83D10FF2902D0002940F02681DFF8C807BDF82620C18A8A4240F027810120CA
:200D9C00222607E0082601F00300012808BF46F0110601209AF800104FF6F877012908D828
:200DBC003446B20758BF64F07F04002808BF344600E034469DF82200DFF87C575FFA84FBFA
:200DDC0030B9E87A20B10BF02200222840F080801BF0400004901CD0012903D8A87B8007CA
:200DFC0000F1D880119801780C2900F2DB80012241F298438A401A4200F0D480032902D150
:200E1C0040780D2805D007A821F0B2FD01283FF468AFA88CB8F8441081420AD198F8462046
:200E3C00B8F84210B8F8280000230093002308F013FA9DF82200F8B1B8F84210B8F82800A4
:200E5C0022F066F8002800F08F800646D8F804009DF81D10F2780844417B8A421EBF0022C0
:200E7C007260F1700130042124F0E8FE71688842FFF437AF013070609AF80000022834D294
:200E9C00A87B80077FF52DAF9DF84D004FF6F87660B1BDF8280026F08BFD002800F007817B
:200EBC00D8F80400417801F0DF0141709DF82E00002800F0DF80D8F80400817901398171D3
:200EDC008DF82E1004F07F00090640F0D680D3E00BF0420042287FF41CAF1198007800F082
:200EFC00FE0006287FF415AF72E77FF4FAAE95F82600092802D004287FF4F3AE5FEA8B60D5
:200F1C0000F19E80049800283FF4EBAE11989DF838100078042808BF022900F04581072815
:200F3C0008BF042900F009810C2840F04D8107A815F008FAD5E6BDF8260022F02FFA023834
:200F5C00DFF8F415B0FA80F0CA8A4109BDF82600904208BF023100293FD09DF81E20002A01
:200F7C0056D001F1400455E09DF84D00B8B3042025F07EFB00283FF4B4AE01464FF4B2705C
:200F9C000880B8F828004880DFF8B00500781DF079FDA6E611980178A1F10C0212F10C0F1A
:200FBC003FF62CAFE88ABDF8262082427FF496AEBDF8280023F068FC90E6109A9DF83C00D8
:200FDC0020F05CFC30B101200026E3E690F826000428F8D100260020DCE600241AE095F846
:200FFC006C0001287FF448AF11980078062803D1049800287FF440AFF81DBDF82A1080B257
:20101C0081423FF46EAE07A841461DF0FBFF68E601F1200422F0C2F90138B0FA80F0400998
:20103C0044EA00069DF81E0000283FF4B2AE1198007826F0F9FC012818BF04F07E06A8E6C0
:20105C0098F8460027F0DFFB9DF82E00012840F0B480B8F82800BDF82810814240F0AD8078
:20107C00BDF8260022F09AF9022804BF00208DF82E00A2E004F07F000446210702D44FF098
:20109C00000A34E0E1B24A0722D4C9069DF8211028D5C1F3820212B1072A18BF013A002A42
:2010BC0008BF044601F0E30040EA820118E0D32013F00FF8DFF888040078002800F09F807B
:2010DC00DFF8801451F82000C0EB0010810098E09DF8210000F0E00100F0E30040EAD10116
:2010FC008DF82110D8F804004FF4805A017295F82600092801D0042823D1E98ABDF8260097
:20111C0088420AD022F04AF9022806D09DF8210000F0030001287FF4E4AD9DF81E00002809
:20113C0047D011989DF838100078042808BF02293AD0072848D1042946D107A817F058FEBE
:20115C00CFE5E7B214F0610F46D0F80709D0B8F8281007A8A94615F093FB002864D004F05B
:20117C009F040025E7B2A00609D598F84600D8F83C2027F048FB07A815A906F07BF87806BE
:20119C0040F12681B8F8281007A80DF152022B4610F08AF900286FD0054611980078012882
:2011BC0008BF4AF0100A13E107A9002011F078F897E598F8460027F026FBD8F83C2007A85E
:2011DC0015A906F057F88CE503287FF48AAD07A800210FF077FE84E59DF81E0001285AD1F6
:2011FC0011980078032849D0052854D1B8F8281007A80DF15202002310F056F971E5D14852
:20121C000168D1480268BDF82800904701287FF468ADCE480168BDF828008847CC480168B9
:20123C00BDF8280088475CE525F0E4FD9DF82E100546BDF8280019B9B8F82810884291D0CF
:20125C00B9F81610814204D1BA48807800283FF489AFB8F8281007A82A4609F095FD0028BC
:20127C0000F09B8038074AF0040ABDF8260048BFF01DADF8520075E70025A9E0BDF82600F5
:20129C0026F096FB38B1B8F8281007A80DF15202002310F009F99DF82E0088B323F038F952
:2012BC0000287FF41EAD9DF83900A0B3109A9DF83C009DF83D1020F0E1FA002870D09DF846
:2012DC003D00002875D0109927F09FFD9DF82430ADF8520011209DF823209DF821104AF003
:2012FC00400A002B08BF0920002A18BF0830002918BF0130D8F804100A5C013A0A5462E0DE
:20131C009DF81E0001287FF47EAE1198007803283FF4E7AC77E69DF82010BDF826000029FE
:20133C00ADF8520000F0D3804020BDF8261009F11D0200EAC4059DF820002B4618F064FDB1
:20135C0038B1D8F804004AF0200A017801F03F0101709DF8390048B1BDF8261009F1200069
:20137C0021F0E8FA4AF0400AADF852009DF81E00012806D0BDF82810BDF82600002214F043
:20139C0089FEBDF82810BDF826002A4612F0E0FB002818BF4AF0200A15E004F0DF04E0E6A0
:2013BC00BDF82610BDF828000B2200231AF0EAFA97E4BDF82600ADF8520027F058FD00282A
:2013DC0008BF4AF0400A25F015FD05464FF6F876B01DBDF8521080B20F1A5E4818BF2F4650
:2013FC000078012805D1F01DB8F8321080B281422FD160B2B0F1FF3F3FF773AC002F3FF4BE
:20141C0070ACB8F8080027F04AFE00283FF469ACB8F80820D8F80410054627F013F99DF84E
:20143C001E10002098F80830B8F8282016908DF85410BDF8521015ACCDE9007ACDE902042F
:20145C00284610F0EDFC70B3284627F026FEFFF748BCB8F828108142CBD0701CBDF8262086
:20147C0080B28242C5D2BDF828008142C1D027F0FEFC0028BDD0017901390129B9D8408895
:20149C0001218DF85410ADF8600015AD28461EF0A7FA0028ADD0281D1DF0ECF90028A8D0C5
:2014BC0021F038FBA5E72348407800283FF419AC00208DF81870ADF81900DDF826004FEADE
:2014DC003040059005A826F03BFFFFF70ABC39073FF52AAF9DF81E1001293FF425AF0021D0
:2014FC0018F052FC20B1407901380228FFF41CAFB8F84410BDF8520021F00AFD30B18078D3
:20151C0025F0A8FE01380728FFF40EAFBDF8280026F04EFA18B104208DF8200004E7BDF86F
:20153C002610BDF8280002223FE700BF6B0E00204C0C0020100C002008DE0020C4E9002053
:20155C005D0E002060A60200A4090020AC090020A8090020690E00202DE9F0438DB0054601
:20157C0080780224252800F27380DFE810F02600A400C400D700EA00F8000601B602B6027A
:20159C001D012E01B602B602B602B602B60246014B01B602B602540158016101B602B602C7
:2015BC00B602B602B602B602B602B602B6026B016E017101740178017F01DFF8D475002408
:2015DC000E258DF804403878012807D801A81CF0BBFD04469DF8040005EB4005EEB23046A0
:2015FC0027F05DFD002800F087824FF000080546431C0021082280F80080012026F0AAFE2A
:20161C0027F028FA6872000A0721A872DFF88405E972007828733878012800F262829DF83D
:20163C000420002A6A7300F05E8205F10E0000212346914280F0578213F8022B013100F887
:20165C00022B13F8012C00F8012C9DF80420F0E7A0F140010D291FD8DFE811F00E0010016E
:20167C003F023F021E012E013F023F023A014501500165013F02740101ACE91C0822201DF5
:20169C0026F0E0FF204619F08BFEBDF806004021ADF828000AABEEE0632800F069816428E4
:2016BC0000F07681E02840F0188200244720E021002200230FE2202027F0F1FC002800F037
:2016DC00C1812021FF22044626F062FE631C01200021082226F03EFE0546002818BF0125DD
:2016FC0001AB84200021042226F034FE002800F00582023506E2E81C27F0CDFCADF80400A4
:20171C00832027F0FCFB014601AA832027F0CEFA8DF828000AAB6720022190E1E81C0421E2
:20173C0024F08CFA0190842027F0E9FB014601AA842027F0BBFA8DF828000AAB6720032154
:20175C007DE1612027F0DBFB0146EA1C612027F0ADFA8DF8040001AB672004216FE1622062
:20177C0027F0CDFB0146EA1C622027F09FFA8DF8040001AB6720052161E100208DF8040022
:20179C00E81C27F088FC6A7900F4F851002A00F04981B1F5A06F04D04FF6FF71884240F052
:2017BC004B814FF0FF3045E127F041FC044627F015F9D949604301ACB0FBF1F1204627F06E
:2017DC00E8FB672009210422ABE0DFF8B4632D79306840B901AC204626F0F9FF01202146DA
:2017FC000EF032FC3060052D00F06981002D00F06981642121F062FD66E115F8032B672000
:20181C0010216EE0E87823F0CFF88DF8040001AB6720112113E100246720142102E000242B
:20183C0067201521ADF80840019401AB062252E100246720162109228DF80C40CDE901446D
:20185C0001AB48E1F52020210BE0F520212108E0F520222105E04FF6F570232108E0F520EF
:20187C0024218DF8040001AB6720E8E0F5202521ADF8040001AB67200222E1E0E81C27F04C
:20189C000AFCADF8060001AC204617F06DFA231D672041210822D3E0E81C0AA926F016F819
:2018BC0000288DF8040000F0CF8001A81821FF22013026F06DFDF4E0E81C0AA926F006F8C9
:2018DC0000288DF8040000F0F1804FF0FF30EFE015F8030F697821F0D5FC28806720482123
:2018FC0002222B46ACE0E87824F0CCFA01AC0146204618F049FC6720492111E0EC1C20467A
:20191C0025F0F6FC002818BF2046B5F80B1019F0D7F801AC0146204618F036FC67204A2119
:20193C00242223468CE001ACE91C0822204626F089FE204626F032FC8DF828000AAB6720FE
:20195C004B217CE04FF0FF3095F80380691D0190ADF81000CDE90200FE208DF80600287957
:20197C0003288DF8300020D10AA827F054FB21E00024E91C08228DF8284001AD284626F0EF
:20199C0061FE28461CF076FF0AAB67206321A1E0B5F80B006A7B0024E91C8DF804400AF013
:2019BC0047FA01AB6720642194E0084627F073FBADF82800AF7B002F00F0DD807E0095F84D
:2019DC000D90304627F06BFB002800F0D48005F10F013246044626F035FE00940AA9404611
:2019FC004A463B460DF01CFD002800F0BA80837801784278057946798DF806308DF8041093
:201A1C008DF80520C3788DF809608DF808508DF8073001A98B1D811D40794200184626F0DF
:201A3C0011FEA5E0B1F5A06F03D04FF6FF71884202D100205549086001AB67200621012279
:201A5C0020F0C6FA002448E0182027F028FB40B3BDF828100446009006200022182324F08B
:201A7C003FF8B8B9BDF8285001AE21461022701C26F0E8FD444F05EB450506F1110057F882
:201A9C00251027F086FA07EB8500416806F1150027F07FFA2046182126F080FC204627F0F4
:201ABC00FCFA01AB672044211922C9E7BDF82800ADF8050001AB672045210322C0E731492B
:201ADC0001220A7020F043FE002467200A218DF8044001AB012220F07BFA20460DB0BDE841
:201AFC00F08385F80D806720002132462B4620F06FFA284627F0D1FA7CBBA3E7019800BADF
:201B1C00C4F809000AAB83200021022226F022FC20B1043506E000BF40420F00BDF82800F6
:201B3C00A4F80D0004F10F0361200021012226F011FC002818BF083504F11003622000210A
:201B5C00102226F007FC002818BF10352346257067200121202220F03BFA204627F09DFA98
:201B7C0070E74FF6FF70ADF808006FF480300190204627F092FA01AB67204D210E225FE7CD
:201B9C0058E90020280E002068E4002038E900204C0C00204C0D00202DE9F04F85B084784E
:201BBC000226362C00F2BE820546DFE814F06C01740172007C017800BB02BB0281003700BC
:201BDC004C008C009F00AD00BB02B5009001BB02BB029A01AD01BB01BB02BB02BB02BB024F
:201BFC00BB02BB02BB0237004C00BB02BB02BB02BB02BB02BB02BB02BB02BB02BB02BB02F0
:201C1C00BB02BB02BB02BB02BB02BB02BB02BD00EB00CB01FF005B005B00DB0127F09EF9CA
:201C3C00242840F0AA8102AB352000210422002426F090FB002800F0FC81012002228DF874
:201C5C0010000020FCE100208DF8100027F086F90646092C40F0ED8095F8059095F80680BD
:201C7C000720EFE0DFF82465306880B1406A70B102A927F07CF90546342C40F02C82284630
:201C9C0027F009FA002800F02582042041E203203FE2DFF80835612002210A223FE202AC11
:201CBC00E220214623F07AFD61200421082288E127F054F90446681D27F0EDF9242C40F02C
:201CDC0087810020FBE1E878032800F29781281D27F0E1F90246E878DFF8B81431F8101085
:201CFC00DFF8B404007827F051F988E1E878032800F28981DFF89C1431F81010DFF898042D
:201D1C0000781CF035FB7FE127F075F8ADF8080002AB61200C2103E1002661200E2101222A
:201D3C008DF8086002AB1BE2DFF8606401208DF810003068002800F02C810069002800F0C1
:201D5C00288102A927F013F9042123F077FF002800F0EC81044627F0A2F9002800F01C810C
:201D7C002146054626F01AFB3068BDF80C1022462B4606690298B0478DF81000284627F00E
:201D9C008CF909E1DFF804442068002800F008818069002800F0048102A927F0E8F82068C0
:201DBC00BDF80C10826902989047FAE0DFF8DC733868002800F0FB80C069002800F0F780EF
:201DDC0002A927F0D4F89DF80850BDF80AB0BDF80C90044627F05FF9A6788046F72E28BF03
:201DFC006FF00806B01C5FFA80FA504627F057F9002800F09D81012D044608BFBBF1000F8E
:201E1C0000F09A813868A11CF3B24246C569029800914946A8470746002840F0938100275A
:201E3C0061203321524623466670277020F0D0F888E1681D27F02FF98146E81D27F02BF937
:201E5C008046092002AF242E18BF2F1808BF3526304609EB080527F052F8854201D9022099
:201E7C0057E1B9F1000F04D1304641463A4621F031FE304641463A4626F018FF002800F001
:201E9C00E5800A2045E1E878012802D0002840F0488126F03FFC40F259600121ADF80800EA
:201EBC0002AB61203CE00120EC1C8DF80800E22021461FF0D1FD30B901200821224626F00F
:201EDC00F5FE8DF8080002AB6120032126E1E878291D012800F0E180002840F0E580E02030
:201EFC00DFE027F03BF80446681D27F0D4F8242C0FBF00200146204626F0B4FF8DF80800CA
:201F1C0002AB6120122109E127F028F824280CBF002026F0F4FFADF8080002AB61201321D4
:201F3C000222FCE0E8788DF8080099488068D0F8302402A9E02090478DF8100004AB61206C
:201F5C001421EBE0914C206898B3806A88B302A927F00DF82068BDF80C10826A0298904713
:201F7C00014627E0894C206868B3C06858B326F0F5FF2168C968884726E080466938002626
:201F9C0080B2032838BF0126681D082C40D1057841E003208DF8100004AB61203021BDE06C
:201FBC0003208DF8100004AB61203121B6E00327CDE0002102AC204626F0EBFF6120322155
:201FDC0004222346ABE0032026F0FCFE3621A5E005F10806ED790146A8426CD92046002254
:201FFC0026F05EFE09288DF808006AD1002D68D020462946324626F059FE62E0022026F0C1
:20201C00E1FE0A218AE0022026F0DCFE0B2185E027F041F80546404626F071FF0227A842D3
:20203C0088BF7700CFB100268DF808706120214692E002988DF810400422ADF8120002205B
:20205C008DF8110004AB6120082168E0012E62D1E22039461FF000FD5BE0471BB8B2F72818
:20207C0028BFF727B81CC6B2304627F018F8002860D01FFA87FB00F1020982464846594672
:20209C0026F08CF9404629465A464B4626F062F90546002867D00A2770E00878022814D237
:2020BC0052201FF0D9FC00E002208DF8080002AB61200F2132E02046324626F0F1FD8DF848
:2020DC00080002AB6120072128E002A9522023F065FBECE702359DF8080015F8018BBDF8F9
:2020FC000C7001280ED1BDF80A0058B9384641462A4621F0EFFC012F04D1E22029461FF07A
:20211C00ABFC01273068394642462B46466A0298B0478DF8100004AB6120214601221FF025
:20213C0057FF0026304605B0BDE8F08F052031E710270CE0102776E7A9F169000328BFF4E3
:20215C0061AE0227204626F0A8FF002FE9D000268DF80870612033218DF8096002AB022269
:20217C001FF036FFDEE78AF80170002761202146324653468AF800701FF02AFF504626F051
:20219C008CFF002D7FF44FAFCBE700BFE40D00200C010020F0AA0200C2E900208CAA0200AC
:2021BC002DE9F04FA7B047F66014002ACFF6FE7400F041829846002724AE169150F8275055
:2021DC00254446F827500137032FF7D1D2E9020ED8F810501469D8F808601168A5FB003C8E
:2021FC00D8F800701E93A6FB043A814620461D93A1FB05341F941B93A7FB003422912394A0
:20221C000446A1FB060111911890A7FB0901179050691C93334613911A9003FB00AAD8F871
:20223C000C101E9820977746CDF834E005FB0ECCD8F814E02195850A01FB04AB08460991ED
:20225C001D9907964E460EFB09C9890A45EA895541EA8B51691AA24619941291229C1199D6
:20227C00CDE90AE604FB00111F98556804FB0E0E209A139805FB031102FB0700D8F804703C
:20229C002C460C95189B179D07FB060C4FEA93234FEA95254FEAA92643EA815345EA8C5599
:2022BC0066EBAB20CDF85090884610910F90B3EB0509219B23981A9904FB03E602FB010374
:2022DC001B981C9A4FEA902507FB0A31089745EA8650354604964FEA92264FEAA827169BEB
:2022FC0046EA815667EBAC22CDF854B00E92B6EB000BD3E900E2129E1F69A6FB0E4A139212
:20231C0006FB02AA5A690F9ECDF800C098680394A9FB074C119206FB0EAA09FB02C6DA6807
:20233C000294ABFB008412920E9B0BFB02444FEAA12262EBA522CDF88CE0CDF8048003FBA0
:20235C00076E02FB00438046DDE902200591141801984EEB0A020019039042EB0300DDE9BC
:20237C001D320290D41ADDE91420009962EB0000DDE917321E901098D31A88411D90DDE904
:20239C001B10DDF898E0421ADDE924C0CDF83CE0A4FB0C161B91A3FB0E191C914FEAEC714D
:2023BC00189104FB01644FEAEE71179103FB01911E9BCDF840C003FB0C441D9BA2FB00BA49
:2023DC0003FB0E1C4FEAE071169102FB01A1DDE904320E9062EB030303FB00111B98039A9D
:2023FC001BEB00031C986141C018029B4FEA125241EB0C0142EA03321B151592149325F023
:20241C00BDFFDDF884E04646CDF81880A8FB0EB2DDF81C80239D0492A7FB0829209C059272
:20243C00A5FB0E321E931C92A7FB04321B92A5FB082C1D930392C246A6FB0423A046099C48
:20245C001F97CDE9013207FB049205FB04C7119CDDF8209004FB0A2C139A019D02FB0A7332
:20247C00DDF828A00793049B06FB095506FB0A37059BBBEB030B129B03FB0E7E03FB0853E5
:20249C006EEB0C060996DDE90256079FB6EB050867EB03030793DDE91D53DDF840C0ED1AA0
:2024BC00ABFB0C73CDE903730F9BDDF838E0A8FB0376CDE91D1023981C9901960597A5FBD6
:2024DC000E67029700FB0A101B991F9F009607FB0911219F079E02FB0700209A04FB021164
:2024FC00189A049C61EB00000BFB0247179A019C039908FB0242099C04FB0C7706FB032C4B
:20251C00169A029B05FB023200FB0E20009A891840EB07020598401842EB0C01DDE914324B
:20253C0025F02CFFDDF864C0069CDDF82CE0A4FB0C371F9E0797239F0A93A6FB0E38229A84
:20255C0040420893A7FB0C531C904FF00000CDE92053A6FB025388410D9905950993A7FBF0
:20257C000E531B9006FB018007FB0131DDF84490DDF84C80049509FB0E0508FB0E171A99A8
:20259C000798A4FB02BA04FB01030C98089E04FB00AE129C04FB0C3304FB02E40A9ADDF8E1
:2025BC0038C0B2EB060E63EB05021292049A0F9DB2EB0B0367EB04020B92209A059FBA1A41
:2025DC00109FAEFB076A2096A3FB05640894A2FB0C4B0D960A94219E239C04FB0164099EFF
:2025FC001F9901FB0060199908FB01482299089C09FB0106189817990EFB00A003FB0141FA
:20261C00129B03FB07000B9B0A9F03FB0511169B02FB03B266EB080303FB0C22209BDB19EF
:20263C0042410D98C0185141DDE9143225F0A6FECDE9191015E000682044C217920742EAE9
:20265C009007D1E900238007394625F097FECDE91D1000201C9000201B9000201A900020D6
:20267C00199040F6BC30C2F20000DDF868800C3000214FF000091F903098209100EB010A3F
:20269C00DAE90CE01C99DAE904C71E9CAEFB0125CDE921521D9D2390ACFB04300CFB050026
:2026BC00DDF8C0C007FB04001CF80950DAE9146BA5F11407C5F13404FB4000FA04F42343C2
:2026DC0040FA07F7343D58BFC717002D58BF40FA05F31B98219CCC440EFB004523989CF8AD
:2026FC00044000FB01552299A4F1140021FA00FEC4F1340105FA01F141EA0E0145FA00F068
:20271C00343C58BFE817002C58BF45FA04F1C918199BA6FB08A206FB03229CF808300BFBC8
:20273C0008227841A3F11407C3F134052AFA07F602FA05F52E4342FA07F5343B58BFD517CC
:20275C00002B58BF42FA03F68F1940EB0503B9F1030F0BD0B80A1F9940EA835041F80409B7
:20277C001F91209909F10109083185E7B80B40EA834000F1004040F6BC3100F1D460C2F24E
:20279C000001086027B0BDE8F08F70472DE9F04F8FB00C4648070FD4200441D4E00400F1DC
:2027BC009781200600F1C081A00700F1D481200500F1F3810020B4E1DFF8200501780629BD
:2027DC0000F2AD81DFE811F007009401AB01AB019901AB01A001DFF81055DFF804152A784C
:2027FC0091F82B30022A02D19E0600F198815E0700F19D819B0740F192810423037091F8AF
:20281C002C30DB0700F08B8191F82E30002B00F0528224F0C7FD0420012102F08FFA57E2BA
:20283C00DFF8C8040394DFF8BCB4DFF8B094DFF8C474DFF8AC44DFF8B054DFF8BCA448F2BE
:20285C000208008802909BF800001BF0BFFD002800F03A8106460078D3282DD1F089404550
:20287C0040F019813878002800F0158199F80000012840F0108125F045FE002840F00B815D
:20289C007088002840F00781A24604AC1221204625F084FD26F01AF93046214618F01EF859
:2028BC00BDF81C00B0F5285FC0F08880012002211EF07EFC54462AE099F80010884217D184
:2028DC00012834D0032840F0E68028780138012800F2E180B078012851D0002840F0DB8074
:2028FC007078002800F0BF8000201DF0E1F9D2E00A2811D194F82B00BA46B71C3071A1697B
:20291C0009B138468847384624F044FA5746DFF8D853DFF8E4A3BEE02978002940F0BB80F4
:20293C00092840F0B880A168B01C8847B3E028780138012800F2AF80707860B194F83300D0
:20295C0094F83410013084F83300C0B2884202D9012000219DE099F80100032858D00228C6
:20297C0071D0012840F097803878002800F08C8025F0C8FD002800F09280012085E0707844
:20299C00002875D026F066F84FF6FE71884203D1BAF81600884207D0AAF81610ADF82810DA
:2029BC0053200AA91FF058F81DF0E8FE24F052FA00208AF826001CF049FE6CE0CF4800683D
:2029DC0009A90AAA16F088FD074602985446C64DDFF824A3874212D29DF8380010B1FD2060
:2029FC008DF838000420394614220AAB23F08EF8C34907EB470001EB800001214172002031
:202A1C00012184F83200012002F098F9B94F42E0A2460AACAB20002122461BF0FFFE0420DE
:202A3C0004945446DFF8D0A2AF4D8DF8140004A80FF052FB26F04AF89BF800004FF4805173
:202A5C0041F288321DE0012020714FF48060ADF828000AA818F06AFC26F038F8A4484FF439
:202A7C00805102680BE010F015F8606998B9A2E702204FF4805140F6B83289F802009BF8F8
:202A9C00000026F083FA06E0002084F832000120012102F053F9304624F066FCD3E694F821
:202ABC00350020B1E0690028F5D08047F3E70020002102220023ADF8280002208DF83000F1
:202ADC000AA824F0CFFDB5E7039880F4004028E0854800780138012859D880480178032910
:202AFC004DD0012953D1417800201EF061FB4EE0012001211EF05CFB11E024F053FC0420BE
:202B1C00012102F01BF90AE0002132220170744880F82A1073480421007826F037FA84F020
:202B3C0004000FB0BDE8F08F84F08000F9E70522027091F82C2092072CD591F82E204ABBDA
:202B5C00052202600120487000201BF053FD022023F0D2FEE3E764480078013801280BD844
:202B7C000020CDE90A000AA812F030FA20B15D48022100781AF02CFF84F00200D1E781780E
:202B9C00022904D10121817000201EF0EDFA84F48050C6E705200021B3E7534800780028E1
:202BBC0040F08680DFF838A1DAF80C50002D79D004A80DF1280B01300BF104060390002D9B
:202BDC006DD0A87A18B10138A872000646D19AF83180B8F1000F11D00020A91C08228DF8D1
:202BFC002800304625F02EFD584618F0D9FB28B12A88BDF82A00314622F078FDAF1C0DF130
:202C1C0027015A46384616F067FC8146384609A922F0A1FAB8F1000F05D09DF8380040F0BB
:202C3C00020002281CD1DAF80800A0B103983946082225F007FD022000220C238DF81000CF
:202C5C00BDF82400ADF81A002648007804A9009109211FF0BAFD28461DF014FCED68AEE737
:202C7C00384623F02AF89DF827000128DBD15846142125F093FB224A09EB490000215B4613
:202C9C0042F8201002EB8000142241604172FF2049468DF83800042022F038FFC3E7DAF863
:202CBC000C0028B90F484FF4006100781BF060FB84F4006035E7013A012A09D80322026070
:202CDC000120487001201BF095FC012023F014FE287800287FF423AF04205CE73CE9002043
:202CFC00F0070020CBE900204C0C002034AB0200EC0D0020400E002008DE002014E90020CA
:202D1C0050A300202DE9F04F89B020F01FFEDFF810158122DFF81485DFF814A5DFF82045EE
:202D3C00DFF814E50A70DFF8FC140860DFF8F804FF2101700020DFF80415A8F800008AF848
:202D5C000000DFF8F0040968007891F808B04FF6FE718EF8000059448AB2A168D1F800314C
:202D7C00DB899A4200F267810422DFF8DC54A8F80020DFF8D02412689668330ECEF80C607A
:202D9C00C6F301592B706FF0FF0303EA1627B3B2D1F8B86047EA1327AEF8047036781EB98E
:202DBC00B9F1020F00F04781B9F1030F00F043811B0A03F0070316B1002B00F03C81DFF87C
:202DDC008CC4042B9CF800C008BFBCF1000F00F032813EB1DFF878643678862E02D1022BDA
:202DFC0040F02981BB0416D4BBB203F00703022B08BFBCF1000F20D0DFF8541409788629BB
:202E1C0009D10020764620F0D9FDDFF84004B64690F800C0307800284ED0BCF1000F4BD1D5
:202E3C00012800F0088103283FD0022844D1BEF80400400740F0FF803EE0D1F8D40090F868
:202E5C008300022800F0808027460520147BF246A946A8F8000026F0F8F80546DFF8F003B6
:202E7C00007886286DD1B868016C096811B9D0F84C05804760B20021002626F056F9B9684B
:202E9C000A6C12685077086C00688677086C0068C477284626F0E1F8BAF8041099F80000BB
:202EBC0001F010011CF026FC4EE0BEF8040000F00700032840F0BF80BEF80400010700F19A
:202EDC00BA80810402D4810500F1B5809EF80E20C2F38107012F00F0AE809609012E00F088
:202EFC00AA80B9F1010F11D840F0020101F0070103290BD117B93F2A40F29D8037B9A16834
:202F1C00D1F8AC100978002900F095804FF6FB71B9F1020F0BEB010C19D1CF4BD95D9B5DC0
:202F3C0003EB01090023402AB7FA87F238BF012352091A40430616D4002A08BF09F10209CD
:202F5C0015E0284626F089F824F06CFC75E0C14B402AD95D9B5D03EB010908D3420648BFC4
:202F7C00A9F1020903E0002A18BF4FF00209C0F300205FFA89F11FFA8CF30A1A8EF8010079
:202F9C009A4258DC60440391B346401AA168AEF806007430D1F8501280B28847A6490028DE
:202FBC00886048D07421CDE9019725F0F7F9A24F0020B870A548007820B9387900F02000D5
:202FDC008AF8000078789AF80010DFF878C24FF000092E4600299A493DD000284FF0000074
:202FFC003AD1B88800F00700032807D0012832D18868D0F8D40090F8820060B3C8684069C3
:20301C00007818B125F02AF8FE280DD08C488068D0F84C02804738B989488068D0F84402C8
:20303C008047002800F0F780834F0120B870DFF814C22E4610E024F047FE26F006F88149BB
:20305C0000240A6813681C7112680A6026F005F809B0BDE8F08F0020BC6804F1740184F8B8
:20307C0030B06160A1657978BB88FA880029A381029B228184F83A30337808BF994697F884
:20309C000EB084F84990019DA4F85C20FF22B8F80030A273CBF301195E1A797BA8F80060F1
:2030BC0001F0780160F3820101EB09002074280600F0AE80DCF8000004AF039A10FA86F03B
:2030DC0000F10801384626F077F856FA85F0CBF38105A8F80000207C00F04008CDB3B9F130
:2030FC00020F06D1B8F1000F03D0B4F8440004AF06E0BDF810000237A4F84400A4F84200FC
:20311C00564EF189884203D04FF6FF7188425ED1032D11D104F13200394625F07CFF464C50
:20313C00F11CA068323023F0C2FD454900284ED094F80EB008370EE037F8020BB18988429F
:20315C00608606D04FF6FF713B4C88423C493ED101E03B49384CBBF1400F20D3B9F1020F6B
:20317C0006D16DB9B8F1000F0AD13348806803E0A068017C490603D439880237A0F84210CE
:20319C00BBF1C00F06D32C4C3946A068283025F042FF03E0284C3888A16808852849896803
:2031BC00A088D1F8AC201278B2B1B9F1020F13D200F00700012802D003282FD11E4C6DB9FC
:2031DC00264AA368D289B3F84230934206D015F0CAFD18F0EBFE30E700F00700032806D069
:2031FC00012815D1D1F8D40090F8820080B1A068D1F848128847104A50B90020D17B907003
:20321C00907BC1F3011100F0780008449168087408F076FF11E7084FB87808E7064CDDE7A7
:20323C00D8E9002068E90020DDE90020DAE70020DBE90020DAE900204C0B0020A8E900206A
:20325C000C010020FCE80020EBE90020EAE90020E0E90020E4AA0200E0AA02001CE8002011
:20327C002DE9F04F9BB0DFF818850546DFF8146598F800000328307040F04F8100200021E7
:20329C001822082388F8000030700CAC204624F063FD2046002122F065FCDFF8EC94B0609A
:2032BC003A21484625F07AF84FF0FF30A9F81400C9F81000C9F80C0022F03CF900202946EB
:2032DC001DF082FC06F11001F06025F03BFED6E90502DFF8B874B0FBF2F1C9B2032928BFBC
:2032FC00032189F800103970B2F5005F40F01281B0EB413FC0F00E81F068002800F00A8136
:20331C004FF40050FF224FF000084FF0885BA9F80600FF2089F8032089F805800490002050
:20333C00079000200A900020089000200690002005900020099000200B90FF200190FF20BA
:20335C000390FF200290CCB2A04580F0E9805FFA88F600211AAA0423304625F043F9DFF850
:20337C0034443046002119AAA0473046012118AAA0473046022117AAA0471A996FF06F0075
:20339C0050FA81F2C8B20E2A06D8012303FA02F245F201131A4203D1A0F1FE02022A04D2A1
:2033BC0042F28352B2EB914F1ED0304614F0D2F9DFF8D0130028087040F0D28030460021C5
:2033DC001AAA042325F00EF9DFF8C8433046002119AAA0473046012118AAA04730460221CD
:2033FC0017AAA0471A99C8B208EB4802CA463D4609EB8209C1F30142090A4C46FD2804F8D0
:20341C00160F61709DF86610E270A17001D9102135E0BDF864104FF6FF7291422FD112A8A0
:20343C0020F02CF8304600214FF088524FF400534FF4005725F0D6F86FF0030313FA87F789
:20345C00B8B250F80B104A1C01D10328F6D801220126D3B2042B06D8CBB2FF2B18BF16469C
:20347C000132090AF5E740F80B10CB48129900684268CA48904757FA86F081B22078A9F8CF
:20349C001C109DF86210702889F81A10BDF86010A9F81E109DF85E1089F81B10BDF85C10D6
:2034BC00A9F8201011D07828D14614D07C282F4616D07E281AD0FE281FD0FF2823D1079845
:2034DC00CDF808800130079020E00998D1462F46013009901AE005982F460130059015E0FD
:2034FC000698CDF80C80013006900FE00898013008901FFA88F0019008E00A98CDF81080A1
:20351C0001300A9002E00B9801300B90397808F1010818E7012088F800001BB0BDE8F08F31
:20353C000B98984E00060BD10A98C0B2012807D80998C0B2012803D80898C0B2012811D9AC
:20355C009348042200240270CAB2E0B2904210D214F000F931780134084339783070F3E7A5
:20357C00884E1BE0079BD8B2A04219D1884800220270002089F8030089F80100481E7E21D7
:20359C0089F80200B9F81C00A9F80600002020F07FFC99F80200FE2120F07AFC3078BCE7EA
:2035BC000998000624D00A98049A000603D1029A180600F08480764802210127D5B289F87B
:2035DC000220017017FA82F0B0FBF4F101FB140089F80100284614F0BDF830702846FE2143
:2035FC0020F056FC89F80570002000F0D9F8D5E70A98049A000621D06548012189F8022011
:20361C00017011FA82F0039AB0FBF4F101FB140091B2FF2989F801001FD10199FF2919BFEC
:20363C0089F8031001EB410089F8030000EB400009EB8000808BA9F80600AFE7DDE9052057
:20365C00104300063FF47CAF21F048FFA04280F085804F48032101703EE0480089F80320B2
:20367C0010FA82F009EB8000818B1829A9F8061094D30739D0B212AA89B215F0F3FF9DF88E
:20369C0053004007B0D5B9F80610BDF85620002399F8030000930323891A12AA073989B2B3
:2036BC0007F0DCF900287FF479AFBDF8541000293FF474AF9DF858001CF01CFD6EE721F04F
:2036DC000DFF0621A042324838BF03210329017002D0062952D061E721F000FF054689F840
:2036FC000C0000EB400009EB8000408BA9F80D000CF04EFF39782844B0FBF1F202FB110088
:20371C0089F802000130C2B2B2FBF1F202FB110089F801007C2020F0D5FBFF2812D17E2021
:20373C0020F0D0FBFF280DD1FF2020F0CBFBFF2808D1782020F0C6FB014699F80100FF292E
:20375C0018BF0846C1B289F80300490051FA80F009EB8000808BA9F806001AE70798000661
:20377C0009D099F80200FE213C46374620F090FB2478029A40E7064806210170FEE700BF1F
:20379C001E0E0020D800002050E20020C3E90020CFE90020F9870200D801001000400340E5
:2037BC002DE9F04F9BB00446DFF80805406818B18047002800F03C82DFF8FC04DFF8FCB4B3
:2037DC000B940DF1300A4FF0F8080078411E002C099118BF01218BF80F109BF802900BF15E
:2037FC0018049BF80110002700250A91C0B287421FD2B94517D0FEB20021524604233046EF
:20381C0024F0F0FE0C9810F4403F40F0040018BF0135C0B27C2806D130460621F82223F06B
:20383C0033FE84F80080DFF890040C3401370078DCE7E9B201380022884204D19BF80500F4
:20385C00002800F03282DDF82CA05046BAF1000F08BF1020049013AF00200390DDE909566A
:20387C000024280400F0E6819BF80F0010B901208BF80F00F0B200210CAA04234FF0000880
:20389C0024F0B0FE0C98BAF1000F1DD010F4403F17D04FF40050DFF820140134013DABF8E1
:2038BC0010009BF80F00097801388BF80F00012050FA86F0B0FBF1F202FB11068BF80D607B
:2038DC00CFE7A046CDE90956C0B20A9D0024702803D0E8B2702120F0DBFA5FFA89F600216A
:2038FC000CAA0423304624F07DFE9DF83000FE2803D03046FE2120F0CBFA30460621FE22E5
:20391C0023F0C2FD4FF400500BF116018BF80C908BF80D50ABF814405A46ABF81000FF20AB
:20393C008BF80E00E8B2400050FA85F0D57B01EB8000B0F806B0DF4804707000A2F812B0C0
:20395C0050FA89F001EB8003FE20194601F8020F33F8060F02910790D7480193047812A83F
:20397C001FF08CFD0A980A9A089655FA80F0013890FBF4F101FB14000090D5B20A92B5428D
:20399C0000F04A81A81BB0FA80F040090590002006900020C00740F093801FFA8BF01628E3
:2039BC0071D9C4480078002840F03C81ABF1070A28460DAA1FFA8AF4214615F053FEBDF82D
:2039DC00426006F11000A0421AD89DF83E00962816D19DF83F00C10701D1800703D40020EA
:2039FC00AAEB060B2CE0AAEB06009DF83D2031462B4684B2204618F019FF20B3ABF1080A47
:203A1C001FFA8AF01728C0F00D81AAF11604362828463A4688BF2024AAEB040AA3B21FFADD
:203A3C008AF124F0DFFD2004EAD017FA84F010F8010C962801D0013CF5E704EB0A0B0020BB
:203A5C00DDF82CA0A6E7F01D83B2079813FA80F1B1F5005F01D90120F2E780B28B469A49FE
:203A7C0018440A1A2846214624F0BCFD069801300690BBF5005F07BF01204FF4005159467A
:203A9C0000200791ACE7069810B18C4924F0F3FE0098C0B2854200F0C2800A990120089E19
:203ABC0050FA81F084490978B0FBF1F202FB1102824902EB420001EB8000B0F81CB05CE726
:203ADC00069810B17D4924F0D6FE0020DDF828900590784C2078002840F0A48007981021D3
:203AFC00C0F50052103883B20898C1F200121FF0E1FC2178084312992070714800684268EB
:203B1C0070489047059888B16B4800782918013991FBF0F202FB101968495FFA89F0400027
:203B3C0050FA89F001EB8000B0F81CB063480799089C0123A0F814B08346018280F80E90F5
:203B5C000198BBF9122001809BF80D10204621F0DBFCBBF914209BF80E102046022321F016
:203B7C00D3FCBBF81000BAF1000FC0F5005004D004998842A4BF01210391049988424FF0DE
:203B9C007C01B8BF7821089C204620F081F90CF0FFFC05469BF80F000621FC22401B8BF8E1
:203BBC000F00204623F070FC0299FC209BF80E3008709BF8021015FA88F00A9301443E4861
:203BDC000078B1FBF0F202FB101909F101018BF80290CAB2B2FBF0F202FB10118BF80110CF
:203BFC0003EB43010BEB8101898B102906D10A990131B1FBF0F202FB10100A900998401BC5
:203C1C00BAF1000F09903FF429AE039880F00100C0077FF423AE0DE00120354658E7DDF877
:203C3C00009056E726481299006842682548904700223AE07C2020F045F90446FF281DD1A7
:203C5C007E2020F03FF90446FF2817D19BF8014004EB44000BEB8000807DFF280AD0164830
:203C7C009BF8021000780144013991FBF0F202FB101403E020467E2120F00AF9E0B2FE2151
:203C9C008BF80340400050FA84F00BEB8000808BABF806009BF8020020F0FAF800208BF8E0
:203CBC000500BBF81000C0F5005210B21BB0BDE8F08F00BFD8000020C3E9002050E2002093
:203CDC00D801001000400340002000112DE9F84305460C46480414D4A00023D4A0075DD49A
:203CFC00600500F18080200500F10781200700F13C81600040F1F78019F0CEF924F080442F
:203D1C00F1E025F0A2F9DFF824140F6D3FB1D7E90A1202F0E04201F00A01891848D025F0D1
:203D3C009CF95DE0BC48DFF80874016841F080010160B878012804D1042020F011F9002036
:203D5C00B87025F082F90646B448406D016804208847DFF8E4130A68904219D12A7EBAB12F
:203D7C00FA68AAB1DFF8C403806C002800F09880C16840F603020988914206D0C06840F6B4
:203D9C0004010088884240F08B8005F1140089E040F6C4120860C5E9042285E009F0D6FE88
:203DBC00DFF88803006C002808BF24F002049AE0D7E90A65D7E90A12AA43B143C7E90A12DE
:203DDC0025F04BF956EA0501B86818BF002807D0D7F808C03869B7F9301032462B46E047FA
:203DFC0024F480447FE025F030F9054622F0D0FC002800F0B780CD48876B002F00F0B2805E
:203E1C00DFF82C830420CD49002288F81800C74822F0A3FE25F0B4F8C94825F010F9C5484D
:203E3C000068006B8047C8F810000125042088F8025020F001FE386990F82810C8F80400AC
:203E5C00490703D5436A04210022984701201AF045FED8F80400457612F070F8D8F8040010
:203E7C0081680B461A465B684BB11E88A6F60306072EF7D805FA06F616F0830FF2D0537B5B
:203E9C0003F0F003013353730023FD6853602D88A5F60305012D00F28A80C8F810309FE0EA
:203EBC0005F110001DF0C8FC304625F0D6F820F0DBFD78B12E6A28466FF4807100224FF0EA
:203EDC000073B0479948806B10B119F0E5F801E044F00204EE692846002100224FF08063A4
:203EFC00B04724F0005434B1984821462830BDE8F84325F0ECB8BDE8F8838D4EB0780128DE
:203F1C0004D1042020F02CF80020B07020F0ACFD38B170686FF4807100224FF00073056A07
:203F3C00A847306950B183480068006B804732697168801A000BC860002030617B4D8249F2
:203F5C000022284622F009FE02203076286C20B17E480221283025F0BAF819F09DF824F4B1
:203F7C000064C0E725F00CF841E025F06EF8054622F00EFCA0B1DFF8B88198F80000000706
:203F9C000ED498F9000000280AD4684612F062FE08B1009820B1DFF8B89199F8610048B34D
:203FBC0024F0EEFF19F078F824F008049BE7034633F8385FA5B190F8445090F8456005F02A
:203FDC00F00580F8445006F0F005013580F8455000255360C5634587507B00F0F00050735C
:203FFC0058480022C2610160012023F023F824F4806478E700260127602E11D009EB0600FE
:20401C00817A31B18772407A07FA00F0C0B21FF0C1FF2036F0E700BFCC2108408C01001004
:20403C00032088F81800464825F009F824F0A8FF444F3E4D0022786900207861F968F86077
:20405C002846444922F089FD3A480068006B8047D8F80C10D8F82020411A02EB1130B0EB75
:20407C00113F38BF4FF0FF3098F82410C8F8200021B1D8F80810B0EBC12F20D922F0EAFF92
:20409C00B8B140F60900414621F83C0F002048804A7B02F0F00201324A730A7B02F0F00287
:2040BC000A734860F8613960B8F83E0010F4406FFAD00020C8F82000012088F824001CF091
:2040DC0017FD2548002101600220002122F0B2FF02201FF045FF102011F00CFB98F801007D
:2040FC0020B9D8F80400503024F0E9FF1B48807810B90D2011F0FEFA98F8250028B1002083
:20411C0088F8250005201FF02BFF002088F818001348C8F81C000220B5F85610B5F854203B
:20413C00914208BF072018F09DF93BE720060020F80400208C010010580D0020896702006C
:20415C00D0E0002000100440E10F01006005002080DE002019D101000000046050AA0200E0
:20417C00BD0701002DE9F04F8DB084780226142C00F21F820546DFE814F02900150015006C
:20419C004A0085001C021C021C021C021C021C021C021C021C021C021C028E009C00AF0011
:2041BC00BE00CC0001206A78022C8DF83100089240F0C080E878291D03288DF82C0040F0B6
:2041DC00E18009A8082224F03DFAE0E010208DF82400102024F063FF98B10446DFF8E003B0
:2041FC0021466060E81C0FF011FF8DF8240028B9204622F05DFB8DF8240010B1204624F02B
:20421C004CFF002609AB642000210122C2E10020CDF82A00ADF82E00CDF8260002208DF87E
:20423C002C00E81C24F037FFADF824006979A8798DF82D1024F096FA8346E81D24F02BFFAA
:20425C0095F80C908046687AAC7A95F80BA04FEA49078DF83100384624F021FF002800F00A
:20427C001081CDE9074806464FF0000805EB0800474570D00D3024F00EFF26F8080008F1B8
:20429C000208F3E7E8781FF055FF8DF8240009AB6420042189E1E978032900F25281281D54
:2042BC00DFE811F00400510155015D0118F07CF976E1E81C24F0EFFEC04C6668002E00F03F
:2042DC00E4806A79002A00F0E4803368A91D184424F0B8F90020D9E0B84EEC1C0421204609
:2042FC00376821F0ABFC002F4AD0B968814200F0A0803F68F7E7A888ADF82400E87809A97E
:20431C0023F0DAF98DF832000DF13203642013214BE10026E878ADF8246009A922F094FCCA
:20433C00BDF824000DF1320314210222ADF8320064202FE1E81C02218DF82C1024F0ABFEEC
:20435C00ADF82400002005F10608ADF82E0068798DF82D0026E0BBF1000F00F0B580437B4A
:20437C000DF131010E30CDE90496CDE9000107985946CDE9020A09A8089A1DF0C5F8A4E00B
:20439C00012000E1084624F086FEADF82400287B8DF82D0005F10D0024F07DFEADF82E0096
:2043BC0005F10F0898F8000024F0DCF9054608F1010024F070FE98F8036098F804A098F8DD
:2043DC0005B08146022C8DF8326009D108F1060024F061FE074608F1080007F10A0104E07F
:2043FC0098F8067008F1070039464DB10A3189B2FB2907D3DFF8C481D8F8040000286ED054
:20441C00022009E00DF132018DE8030C09A84A463B46294604F064F9089E8DF8310006F0EC
:20443C00E000202840F0C4800DF1310364202146BBE0EC1D204624F02EFE6D7A002D00F059
:20445C00978005F102098246484624F028FE002800F098800026457080462A460670786801
:20447C0000EB0A0108F1020024F0ECF85FFA89F26420122143461DF0ABFD404624F00DFEC9
:20449C0097E010208DF8320024E010208DF8240016E0D6F800C0F38AB28A3169757EB77EC6
:2044BC0006F11800CDE900C0301DCDE9025704F017F98DF82400606824F0EFFD00206060AA
:2044DC0009AB6420112170E002208DF83200304624F0E3FD0DF132036420032165E007F1AB
:2044FC001C0024F0DCFD0028C8F8040055D000F11C010C22016000208DF83100D8F804003F
:20451C0009A9043024F09EF8D8F804000F214FF47A7205612A4DC17680F81AB080F819A035
:20453C000676C782A0F814900821287824F02EFD089E00283FF473AF2878082119F048FA1F
:20455C006DE702202CE0007819F072FA28E0007824F008F918B323F0DBFD002020E024F051
:20457C009AFDA97924F012FBB0FA80F0400917E03068B84201D138683060384624F08DFD3B
:20459C00002000E0102000262070642012210222234666701DF01CFD0BE010203CE701207A
:2045BC008DF8240009AB6420102101221DF010FD002630460DB0BDE8F08F00BF900C002098
:2045DC00C2E900202DE9F04F8FB00C4608040CD4A00426D4DFF88853287802282DD1E10722
:2045FC0040F00181A10641D558E0DFF86C03007819F0ECFE90B10178DFF8602305460020C8
:20461C00602808D0135C08308B42F9D1104450F8041C28468847284622F0A6FE84F4004506
:20463C0095E11CF055FE28B10546FCF70BFB284622F09AFE84F4005589E1A1062ED401284B
:20465C0014D8E10600F11781610600F12F81210600F13D81E10500F13F81210500F1418194
:20467C00E10400F15481610400F15B81A10700F1E080A10500F1FA80210700F11181610526
:20469C0000F11981E0034FF0000540F160811BF0CFF9B648C57084F4803558E1AE4F202190
:2046BC0038781DF015FDDFF8C4820125D8F80810084317D024F0BBFC054624F08FF9684355
:2046DC004FF47A71B0FBF1F0D8F80810401A4FEA500538BF6FF00045002908BF0D46002D29
:2046FC0000F0C28000200421002221F0E7FD06464FF0060A4FF0FF094FF6FF780DF1080B61
:20471C00002E4DD0304604210022374621F0D6FD06463889401B38BF002038810004EFD118
:20473C00B87BD0B301280AD17889400707D4386887F80DA0B721407B1CF082FDE0E739682E
:20475C005A468DF80690ADF80480086AC97F0CF02FFE01281BD1B87BB97A8DF8380009072E
:20477C00788A40F08002ADF8362006D540F4C070ADF83600387B8DF83A00786910B1007BC5
:20479C00ADF81800584601A9002202F073FD387B87F80DA015F0B8FCB2E701207873AFE7A1
:2047BC00DFF8C8816C4F21F099FE00200121002221F084FD18B13878202119F009F900207F
:2047DC0004210022002621F079FD002847D006890421002221F072FDA0B10289B1B2914222
:2047FC0028BF1646F4E7654890F82C100F2906D190F82600022802D3002020F0D5F884F0E1
:20481C000105A4E0A8B2B1B2814223D9D6FA55F0202180B24200387824F0B8FB24F007FC1E
:20483C00054624F0DBF868434FF47A71B0FBF1F615E05348007818B302AD284624F01BFBA5
:20485C0024F0F6F84F490B784F490A7829461AF0C1F822E03878202119F0BAF80026C8F83F
:20487C00086084F0200572E000259CE715F0C8F884F400756BE008F009F984F0100566E05B
:20489C003E48418B012024F000FC2878022804D131480121007819F06BFD84F0020556E0A5
:2048BC003248012184F00805817050E00BF0FCFF84F040054BE0022808BF15F025FB2F4837
:2048DC000121808C24F0D3FB84F480653FE023F0B7F884F080053AE021F04CFB84F4807596
:2048FC0035E01AF0B7FD2048007801280CD11D48007848B14FF47A7100FB01F216484FF450
:20491C000061007824F03FFB84F400651FE01748017819B1002101701AF09CFD84F4805554
:20493C0015E01448006880B11149097801290CD180471148006800B1804707484FF480413C
:20495C004FF47A72007824F01EFB84F4804528460FB0BDE8F08F00BFC4E90020ECA30200BC
:20497C004C0C0020520E0020530E0020100C0020500E002094090020A009002008DE00205C
:20499C002D0E0020560E0020580E00202DE9FE4F8846080426D45FEAC87004BF0020BDE856
:2049BC00FE8FE548056824F042FB044624F016F860434FF47A714FF6FF72B0FBF1F14FF69E
:2049DC00FF70002D00F01A812B886C88CB1A9BB29C4240F21C81E31A94B2A342B8BF1A460F
:2049FC00ED68EEE7DFF840A3CDF804809AF8000019F0ECFC002800F0FC800646007801286A
:204A1C0040F0EC80DAF8041096F83390D6F814B096F8138021B148468847002840F0DE800F
:204A3C00718896F83100022221F0F0F90546002842D0287A297CA0F10108FF2900F0BB80CB
:204A5C00707F4F46C00718BF0027E97C287D0144B94204D8E974FF2101FA00F06874A96975
:204A7C00A87C96F83020896A10FB0710F16A23F0E9FD287D697CB7FBF0F202FB10700122F1
:204A9C008240D2B20A436A74C8457CD196F83010AB7C13FB0713A9698B844FF4FF7303FA3F
:204ABC0000F0C0B21043FF2868746CD1287C19F0E9FFFF2028747FE0707FC00700F08E8082
:204ADC00B07F23F04FFE002800F0888004461C2024F0E5FA002800F081801C21054623F0DE
:204AFC005DFCB07F02A922F0AFF89DF8090002212875284622F0FEF8708896F8312096F875
:204B1C00301096F83330A880287DEA71FF2202FA00F0687460680078A9742874302013FBE0
:204B3C00010080B221F0A4FD0028A8615DD004461A20B11C2060708CA080A01D22F0CAFD93
:204B5C00F27F04F13000B17F96F82830C4F81CB084F81980A062307CE273744A21756375C1
:204B7C000121A075928C2282F28EA285F28C6282B6F81100A4F817009AF8000085F80890FE
:204B9C0018F026FF55E724F052FA044623F026FF60434FF47A71B0FBF1F065492880634850
:204BBC00097800794843642148436249097800FB0100688000E04F46E87C297D6A7C01448A
:204BDC000139B94218BFFF2A0CD186F83300708806F11C0186F8342016F06DFB304622F022
:204BFC00C3FB03E7C845F9D1EFE7284622F092F8F4E7019880F40040BDE8FE8F92B28242D8
:204C1C004BD049480121007824F0C0F945E0A879022806D1287CFF2837D0A86922F0A4FB8A
:204C3C0033E024F004FA044623F0D8FE60434FF47A71B0FBF1F03F49288095F8380009782D
:204C5C0088421BD295F83620FF2A06D195F83720013085F8380085F8362095F8351095F8A2
:204C7C00394082F0FF0300200126C7B2A7421DD206FA07F71F4214D10130F6E7EA8BA87EA6
:204C9C0095F82A10E9231EF035F8284622F042F825480121007818F09BFE88F00100BDE86A
:204CBC00FE8FFBB201441A4385F83620AB8F95F83440C8B204FB10339EB2A64203D2FF2204
:204CDC0085F8362002E0FF2A08D12346184A174E1278367972436426724302E095F83A20DB
:204CFC0023466A802A8D0E0606D022F0200244432A852A6C224404E042F020012A6C2985C3
:204D1C00297A85F82E10E9796A6285F82D10D9B269840549496811B188470028B8D105F182
:204D3C00100004F083FBB3E7700C002008DE0020460E00204C0E002094C300207FB50138C7
:204D5C00072800F24C810C46DFE810F008002C0054006E0089004901A600C900CB4800786D
:204D7C000138012800F23B81002C00F047810020032100241EF0BCF9C64DC74E0420042187
:204D9C0032222870307824F001F90820002106F0DFFE30786C704FF4805104B0BDE8704098
:204DBC0019F0E6BA0020002523F0E4FCBB480121017004208DF80D0074B1B548B34C4585BF
:204DDC002078012803D1072022F074F92078022802D1062022F06EF9AE4804213222057064
:204DFC00AD48007824F0D2F8A94890F82B1001F0FE01F2E0A54800780138012800F2EF80AE
:204E1C00A54804213222007824F0C0F8002C00F00F819F4C9F48012101702069002800F01A
:204E3C00EC801EF0EBFCF8E70120002C8DF80D007BD0974800219B4A80F82A10984823F062
:204E5C005DFE924C2078012803D1072022F032F92078022870D1062022F02CF96CE0022036
:204E7C008DF80D008A48002C73D000218D4A80F82A108B4823F042FE002003211EF038F9F0
:204E9C00824C2078012803D1072022F013F92078002877D1092073E07C4D00208DF80D004F
:204EBC00002C28787BD018B9092022F003F92878022806D10820002106F04AFE042022F059
:204EDC00F9F810F071FC73480021C822017070480D2180F82A10704823F0E9FF78E0052059
:204EFC008DF80D0069480078022878D1002C00F0C38068480022C178C270017042F208001F
:204F1C00002106F025FE62480D2190F82B2080F82A10C17802F0DF02002980F82B200CBF1B
:204F3C0004200D2022F0C6F859E05848007818B95748022180F82A1056480021322201701A
:204F5C00554823F0B4FF524890F82B1001F0FD0143E0082180F82A104C490978012911D85F
:204F7C0090F82E0070B900200DF10A018DF80A0052201CF071FD23F06BF91DF035FD0020BC
:204F9C0022F098F84348002132220170424823F08EFF3F4890F82B1001F0FB011DE03C4CFC
:204FBC00022812D194F82E0078B194F82B00002140F0200084F82B0005208DF80D00082037
:204FDC0006F0C6FD0A2022F075F8022084F82A002F4890F82B1001F0EF0180F82B102C4849
:204FFC000022032390F82A008DF80C002A48007803A900910A211DF0E8FB7FBD244C0720F5
:20501C00254D4FF4805184F82A0001208DF80D00287819F0ADF90020002621F0AFF82878A8
:20503C00022141F2883284F82B6023F0AFFFD6E7174C022000218DF80B1084F82A00154876
:20505C00017094F82B000DF10B0100F0FD0084F82B0001208DF80D0052201CF0FDFC23F031
:20507C00F7F81DF0C1FC002022F024F820690028B5D01EF0C3FBF9E70548022180F82A1009
:20509C0090F82B1041F02001A7E700BF4C0C0020F00700203CE90020CBE90020430E002079
:2050BC0008DE0020160E002092B0DFF8EC92D9F8000010B1002180F8451048301FF09CFE52
:2050DC0023F0C3FF8046072010F0D2FC17F000FA10B1B24824F0BEF919F058FD01AD284623
:2050FC0023F020FB0427002029468DF8047023F021FBAB4C206022F043FF0AAD284623F081
:20511C00D9F9002029468DF8287023F0DBF9A54E306022F03FFF06AD284623F0DBF9002013
:20513C0029468DF8187023F0DDF931689E4D286019B99E4824F08EF9286810B99C4824F03E
:20515C0089F9206810B99B4824F084F91BF0A0FFD9F800004FF0FF3438B1CDE9104410A953
:20517C00082222F09FF901281BD1CDE91044082023F095FF002846D005460026052E04D893
:20519C0023F039FEA8530236F8E74FF6300029460822E880884823F055FA284623F07DFFF2
:2051BC0009E0D9F80010CDE910440029DFD08248082223F047FA10AA0120082123F070FD5B
:2051DC00092800D0D8B920F00BFE800712D4CDE91044CDE90E440EAB01200021082223F051
:2051FC00B9F860B90EA810A9082222F05BF9002800F0CB80704A0120082123F057FD6E4945
:20521C00E2201CF029FC12F041F8282023F047FF6A4E0028306055D0694F6A4C07F10C0557
:20523C0023F041FE23F0A6F93068056007F1100523F039FE64498968D1F84C1388473068CD
:20525C00456007F1140523F02EFE1BF0BDFA3068856007F1180523F026FE18F047FF3068CC
:20527C00C56007F11C0523F01EFE1EF00DFD3068056107F1200523F016FE1DF02DFC30687D
:20529C00456107F1240523F00EFE1CF05DFB3068856107F1280523F006FE22F055FC3068F3
:2052BC00C56107F12C0523F0FEFD1FF02DFD3068056207F1300523F0F6FD387022F08CFFC5
:2052DC003068456218F00EF9404841494FF00009CDF8409001603F480321119010A81FF001
:2052FC004BFB23F00EFB404623F0B7FE17F0FEF923F0A4FD01201DF0ABF819F01FF93748BF
:20531C000078022808D134480078012804D14FF40040012106F01CFC294F4FF48041387825
:20533C0023F0FEFB2E484FF0FF31006824F08EF8DFF8B08078684FF0FF3124F087F83068DD
:20535C00002550F82510096821B9691C092D0D46F7D3EFE723F05DF8316851F825100C68A3
:20537C00C1F8009022F0ACFE58F82520002021469047044623F04DF8316851F825100A68EE
:20539C0022430A6022F09CFED4E70B480EA9082223F058F933E700BFE40D0020ACA40200E7
:2053BC0024E9002028E900202CE90020CAA40200DDA40200F0A40200DCE80020A0E9002028
:2053DC001C040020493F02000C010020AC09002015C40100008D15006B0E00204C0C002058
:2053FC007CE9002074A702002DE9F04F89B08A4608040DD45FEACA7040F01D815FEA8A7010
:20541C0000F12B815FEA0A7000F13381002042E1A24F387818F0DAFFDFF88892A04C06467D
:20543C004FF0000B48F21508002E00F001813078312838D0322849D0D32840F0B380F089BC
:20545C00404573D0382840F0AD80CDF820B0CDE906BB304606A91FF0AFFB9DF81C100529D2
:20547C0068D8307B002840F09D809DF81D00002800F09880052800F29580069822F012FDDB
:20549C00002840F08F80707C87497870708808809DF81D00214601388DF81D0006A890E84B
:2054BC002C002CC17EE0B87803287BD899F82E10804822F0F7FC002874D1FF207C496071ED
:2054DC0070880880B088794908806BE06079FF2814D0002015F078FE0246B9F8701078787B
:2054FC003346CDF800B012F019FA6079002859D038780821322223F049FD53E099F81810F1
:20551C00706820FA01F2D2071ABF3144097A002106F1080200231B2B42D020FA03F5ED073D
:20553C0002D0D55CA9421ED80133F4E7304620F085FD37E0FF293DD0FE2956D199F87210A7
:20555C009DF81E00884202D860BBFF292AD11CF085F8069900201B2859D021FA00F2D20700
:20557C0057D10130F7E7B9F86E004F49334608804E4802884E48018810200090002012F0FF
:20559C00CDF90120F870B87840B93C2002214EF66022B880387823F0F9FCB8780130B870B9
:2055BC0084F805B0304621F0DFFE387818F00EFF064639E799F872109DF81E00884203D89E
:2055DC000028EFD1FF29EDD11CF048F8069838B1D9F82810814203D0C9F8280021F07AFDFE
:2055FC00BDF8200022F0ECFADCE7307B0028D9D170882D49802200230880707CCDE900BB6A
:20561C00CDE902BBCDE904BB11F040F8CAE71B2000E0C0B299F818108142C3D02649087019
:20563C0099F80700642100FB01F23878012162E78AF400402FE020491A4C08782076E12075
:20565C001CF00AFA21F046FD0020A4F87000012015F0BAFD8AF001001DE010488188B1B186
:20567C0001394EF6602281800078022123F08EFC0FE00B4C607938B12179206822F012FC8B
:20569C0010B96079013860718AF0080003E0002181708AF0020009B0BDE8F08FF40A002054
:2056BC0074E8002008DE0020AEE80020AEE500208AE2002000F8FF07C7E900202DE9FE4F26
:2056DC00074608680024B0B1D7E9018A0E4623F0BCFC8146D8F8E800082888BF0124B068CF
:2056FC00204202D17068204208D003203074484623F0B3FC00242046BDE8FE8FD8F8C010D4
:20571C0069B198F8F8100029EFD006213174D8F8C410C8F8C4604E6198F8FC100DE0002126
:20573C000522C8E93066C8E93411C8E9361198F8FC10002908BF012232740022012972617D
:20575C0009D102204FF4E02188F8FC0098F8FB001FF022F8706889490138884205D804200F
:20577C001FF06AF906201FF067F902201FF064F998F8F80040B9DAF83C003168814203D2B8
:20579C0098F8FC0000286CD0D8E9361009B118B900E028B323F08FFBDAF80000416941F066
:2057BC0001014161484623F058FC98F8F80008B10124A0E708F16C05D8F8EC10284622F091
:2057DC009DFC0028F4D0D8F8C00003210174384609F04AFF28460021002422F08FFC8AE77E
:2057FC009AF8040023F033FC654CDAF810100222206991FAA1F1B1FA81F14368D8F8CC00E4
:20581C004068006898472069DAF8141002224368D8F8CC0091FAA1F1B1FA81F14068006849
:20583C0098479AF8040023F00CFC9AF8040023F010FC23F040FB0020C8F8E000D8F8C00069
:20585C000068B0F5806F01D923F035FB98F8FE000028A1D1DAF80000416841F0020141609B
:20587C009AE798F8F90020B1D8F8EC0001307FF48BAF484623F0F1FBB2683AB1D8F8E8004D
:20589C000221092838BF0121009103E008F1F40200200090746834B1D8F8E8000227092899
:2058BC0038BF012702E008F1F6040027DAF80000334D416841F002014160D6F800B0D94644
:2058DC00BBF1000F40D0D8F8E800019209284FF0010011D22A68B9F1000F1FD0C0071DD054
:2058FC002178DAF800009268904700281EBF3C44A9F101090120EDE72A68B9F1000F16D001
:20591C00C00714D02188DAF800009268904700281EBF3C44A9F101090120EDE7DAF8000084
:20593C00D26802A99047DDE90120107007E0DAF80000D26802A99047DDE9012010800098A4
:20595C00ABF1010B0244BBE7D8F8F000DAF80010CA680240102802D1002AF9D101E0002A7B
:20597C00F6D0706821F07CF8D8F8C0100020C8F8C400C8F8C00008741AE700BFFEFFFF0FDD
:20599C00C40100102DE9F04F85B08846080418D4A9480078012802D85FEAC87155D15FEA69
:2059BC0088714CD4022807D1A4480078012803D15FEA487000F188805FEA087057D4002049
:2059DC002BE1DFF85CA29AF8000018F0FFFC002800F021810546807FC8B9688C132816D19A
:2059FC0090486E8800F11C09002049464F46002818BF071D086850B1014631F8042BB2423C
:205A1C00F4D144683C6023F048FB2046F3E7A87A05F1020B022840F0E480DFF8089295F8E6
:205A3C003170BBF8006009F11C000068A0B10188B14202D18178B94242D00430F5E77948A1
:205A5C000121017088F00200E7E07648406900B1804788F00100E0E0D9F81C40002C57D0BE
:205A7C0001206168002955D001300C46F9E77048DFF8B091807BD9F81C60000760D423F009
:205A9C00D6FA044622F0AAFF6A4A60434FF47A71B0FBF1F0D9F818101288411A91427AD3F6
:205ABC00B1FBF2FB0BFB02F2511A08445E49C9F818001FFA8BF00978884288BF8B4641E0E8
:205ADC0059490978C170A3E05E495D4800224FF6FE7300240978023079B130F8025C9D4249
:205AFC0008D04588013D45802D0406BF027020F8023C012401390630EEE734B14848042120
:205B1C004FF4FA72007823F041FA88F0040084E000240020454980B20988884261D208205A
:205B3C0023F0BDFA00285CD000210680877041603D490978C170D9F81C1079B360603FE0AC
:205B5C004FF0010B00205FFA8BF44FF0000A071D002808BF09F11C0796B1F078C0FA5BF1B8
:205B7C00A042F17006D8756830463D6023F095FA2E46F1E7716830460AF1010A0E46E6E794
:205B9C005FEA0A4007D100200821C9F818002448007818F0EDFB88F008003EE0C9F81C000D
:205BBC002348807B00070BD423F041FA044622F015FF60434FF47A71B0FBF1F0C9F8180089
:205BDC001B48807B00070CD59AF8000008211CF07FFA30B91748082102889AF8000023F083
:205BFC00D2F92878022810D0012811D1297EAA89EB7C05F11C006C696E7E8DE85A0005F130
:205C1C001003594605F08AF902E0284614F0A4FE284621F0A9FB88F4004005B0BDE8F08F90
:205C3C00C1E90020140A00204B0E0020100E002008DE0020140E00204C0C00206B0E002030
:205C5C00D2CE0020270E00202DE9F04F87B0851C8346284623F067F901AC064618212046A4
:205C7C0022F09CFB9BF801A004F10B002946009523F0D1F96FF001009BF80A1002240122F4
:205C9C00ADF8180000208DF81A408DF80C0001F00800C1F3C007890782EAD00507D4002853
:205CBC0008BF0124B946A8460027002507E004244FF000094FF00008002808BF0324854822
:205CDC00007850EA0A000BD0834890F82600082809D122F017FC00285AD0BAF1010F57D134
:205CFC004FF0C30901E04FF0C2090025BAF1000F10D07F48007890B9BAF1010F0FD1002E82
:205D1C0055D00020214601228DF81A0001A813F03BFF0AE001A81AF043FB86B91CE001A854
:205D3C002146524613F030FFB6B17179BAF1020F41F04002727104BF41F0600171719BF8E9
:205D5C000A10490603D5717941F080017171B17900240131B17100E00124B0FA80F1490954
:205D7C000D422CD107D1002D18BF814641F20100494616F032FA14B9009818F07BFDBDF889
:205D9C0018004FF6FE71884218BF23F092F916E0DEB33279A24218BFBAF1020F12D1D01E62
:205DBC00C0B201281BD857EA050020D12AE00220214601228DF81A0001A813F0E5FE07B067
:205DDC00BDE8F08F4FF00009009953468DF81A903088ADF8180023F04CF9012586E7501E0C
:205DFC00C0B201280ED849EA0800012807D1308820F03CFA50B93088ADF8180008E03088AE
:205E1C0023F057F9009818F035FD0026BDF818004FF6FE7188421ED120F020F810B1BDF833
:205E3C00180011E0BAF1000F04D02C4D288820F01DFA30B19BF80A0000F002001EF02CFEB7
:205E5C0000E02888ADF818004FF6FE71884202D14FF0C70949E79BF80A200099534623F047
:205E7C0008F910B14FF001093FE71D48016811B1BDF818008847BDF818000099224605F0E6
:205E9C00D7FF0646174818490A6800784FF4803123F07CF801211548C17096B1AAF101000C
:205EBC00C0B2012807D81020BAF1020F08BF08207179084370714FF0000901258DF81A90BE
:205EDC0014E74FF6FE7000254FF001090026ADF818000BE71C0B002008DE0020080E002032
:205EFC00A8090020C4E9002024AB0200100C00204C0C00202DE9F04F85B0BAB1D0E9008A2B
:205F1C000DF11009002B14460D46074618BF994623F09BF8064698F8070050B198F82C012C
:205F3C0060B123F012F86FF008041DE16FF009041AE123F00AF86FF00E0415E1012088F82A
:205F5C002C010020C8E94C54C8F8384188F80B00C8F84001C8F83C0088F80D00504622F091
:205F7C002DFE22F0F2FF22F051F898F8052008B9002A77D00E99CDE90197481E10F1030F27
:205F9C0008D83AB908F5CA74204623F054F8204623F053F808F58A7408F5A27623F055F8DE
:205FBC0007460DF10C0BD8F83801002800F0BE8098F80B00002840F08D8098F80D0000283F
:205FDC0040F08F8030460021B14622F097F822F0D4FF204659461FF048F9074623F035F870
:205FFC000646D8F83801D8F84011874288BF0746039829443A4623F0DFF8204639461DF04E
:20601C00E5FAD8F83801D8F84011C01BC8F83801C819C8F8400122F098FF012F03DBD8F81E
:20603C0038010028D5D123F010F80746D8F8400128B1504622F0C2FD029810F0FBFE98F861
:20605C000500012851D0022866D0D8F838114E4600296AD022F091FF22F08CFE22F0F5FF21
:20607C000746A0E798F84400C00615D5D8F84060D8F84830384610210022B0470CE0D8F870
:20609C00400121462A1850461DF0D2FFD8F84011241A0144C8F84011002CF0D1504622F03C
:2060BC0051FB0028FAD0504622F07CFD98F84400800607D5D8F84040D8F8483038462021D8
:2060DC000022A047002488F82C41D8F84001C9F8000049E00020019E6FF00D0488F80B00D5
:2060FC0032E0019E6FF00C042EE0D8F838010024019EA0BB384688F82C4122F0AEFF98F875
:20611C001100DDF808904FF0010A88F812A078B3002422F09AFF16E0D8F84001002400281C
:20613C0008BF6FF00F04019E12E010B1019E00240AE022F022FF22F01DFE22F01BFE00245C
:20615C0022F083FF019E074698F80500012806D0002088F82C0108F5CA7022F070FFD8F8BA
:20617C004001306022F009FF204605B0BDE8F08F002401200028CBD0D8F84830D8F8402158
:20619C00D8F8D87148462946A8F811A00094B84798F8120088F81140ECE770472DE9F04F97
:2061BC008DB0044600209A4616460F46CDE90B00CDE9090087488568804610F06DF82628D6
:2061DC0003D010F069F825281BD1308840F60201884218BFB0F5C15F03D1F07B022810D98D
:2061FC003EE043F6070188420BD196F82400032807D33069784940F0806020F060408842E3
:20621C002ED100206FB366B3387825FA00F0C00726D03046002122F03CFF7048C4E90176CC
:20623C00006880B109A800900CA90BAA0AAB304609F0E0FC0B980B214FF6FF72502320F0F6
:20625C0039FEFF280CD022F000FF654F06467878012802D840B1012070E0304622F0FDFEFF
:20627C0000200DB0BDE8F08F09F038FC5D480DF10409016841F0020101605B48C8F80000C3
:20629C00484622F03FFADFF864B15A494A469BF801009BF800500390554828301AF090FD54
:2062BC00554856494A461AF08BFD484622F04AF9DFF84C81534A19214B46029540461AF04E
:2062DC00F5FA514A08F11C001A214B461AF0EEFA4E484F4922F0FFFD4E484F4922F0FBFDD1
:2062FC004E48006810F4402F06D04D4A07F128000421002320F016FA9BF8020010B10D2099
:20631C000FF0B6FB08F1400021F0B6FD08F1380021F0B2FD4349002007223876B88438626A
:20633C00386181F860200521C7E902103E49F96138700420002120F07DFE78782C4941F8D0
:20635C00204001307870304622F087FEBAF1000F06D10DF1040A35492022504622F02CFF6B
:20637C00DAE90012BAF81000DAE90635002AB2FA82F608BF40F6C41262612160608325639C
:20639C00760926764FF4FA76C4E9036201226276274AC4E90722C4E90923DAF80C0000B157
:2063BC002062DAF8140000B16062DAF8080000B1E06104F13800C82121F0F0FF04F15000BF
:2063DC00002120F052F81B4904F1B80022F083FD204646E7CC2108400F000005A80C0020D3
:2063FC00F804002000200940110000E050AA02006005002085750200D8E10020154A010055
:20641C002006002019D101008DB5010014E1002065670200D0E0002031750200B44F00503E
:20643C008DFB010080DE0020BD07010020A802008F720000D38F02002DE9F04F85B0D0E902
:20645C0000498046D9F80000D0F840A01AF4F06FC0F844A039D0216CB9B300225FEA4A5187
:20647C002260A27317D5D4E91401411A40461FF0CFF8D9F800008169C90605D401688DF8A3
:20649C000B109DF80B10F6E721684A1CA17B226009B90121A173616C40684FF0004600F0C9
:2064BC000F0505EA0100B0FA80F126FA01F1014004D0276C17B1A36C4046B847B5FA85F067
:2064DC0026FA00F028404042A063D4F8E001D9F83C100AF0400B40680068D0F80425114042
:2064FC0051EA0B0165D0404618F0DEFF59464046BBF1000F18BF01210FF078FF2079012888
:20651C004AD1206F002847D0CDF80490D8F8009004AE09F14C052846314620F062FBD9F89D
:20653C0070100746D9F86800D9F878208F4288BF0F46049910443A4622F03EFE28463946B7
:20655C001EF07CFED9F87000D9F87810C01B3944C9F87000C9F878100FB10028DBD1404611
:20657C0018F0A2FF404600210FF040FFDDF80490BBF1000F02D0A079012801D0206F58B9C8
:20659C000020A36CA16EA26FD4F81051206784F8640000904046A847BBF1000F1CBF012040
:2065BC00E07404F17C0022F08AFDD4F8E0014068006800F204500068D9F83810084255D06E
:2065DC00D4F83C01002851D0404617F061FA404610F030FC607901283BD1D4F83801C0B32D
:2065FC0004F58A7503A928461EF03FFE0646D4F83801D4F83011D4F84021864288BF06463C
:20661C0003981144324622F0D7FD284631461CF0DDFFD4F83801D4F84011801B3144C4F855
:20663C0038014046C4F8401110F004FCD4F8380178B994F82C0160B1002084F82C01A36C9A
:20665C00D4F83011D4F84021D4F8D85100904046A847D4F83C0128B9D9F80000816B41F40E
:20667C000061816304F5A27022F029FD5FEA0A5026D5D9F8000081690907FCD4016B21F4BC
:20669C0080710163217A89B10020207294F84400800606D5256C25B1A36C40462021002272
:2066BC00A84702201DF05CFCD9F80000816B21F400618163607918B904F5A27022F0FFFC6F
:2066DC0005B0BDE8F08F70472DE9FC470446019005789448465D9448E840ADF80260C0070C
:2066FC0040F01E810D2D13D1904E0DF10201B068D0F8282453209047BDF802104FF6FD70C3
:20671C00814214D8208990B14FF0000AA146AEE00C2D0ED0072D13D0052D0ED1A078012886
:20673C0000F0FE80207C304400F1240716E0B068CDE06068C08AC0050AD44FF0000A09E001
:20675C00A07848B1A07D00EBC00006EB800705E04FF0010A374605E006F11B07ADF802700B
:20677C004FF0000A38461FF083FF38B38146072D44D1207889F80000607889F80100A0781F
:20679C0089F802000028E17889F80310D4F80510C9F804105AD0A07D002889F8080049D07E
:2067BC00A169002946D000EBC00009F110068200304621F047FFC9F80C6040E00C2D40F0B4
:2067DC00AF80A14659F8040F002800F0A98022F03CFC804655488068D0F8541348468847C1
:2067FC0038461FF045FF8146404622F036FCB9F1000F00F0958022F0AEFA38E022F0ABFAD4
:20681C00052D34D109F11806D9F804102422304621F018FFD9F8141099F8102009F13C0058
:20683C00C9F8046021F00EFFD9F804002430C9F814001CE0002089F80800C9F80C00A06980
:20685C00A8B122F02AFC0020A0750FE01B2009F110061B2289F808003046A16921F0F2FED5
:20687C00C9F80C60A06922F018FC0020A0613048016819B148468847002846D10D2D2BD102
:20689C00606801788A0720D42A4AC1F38301927C91421AD140783F2817D894F830000228AA
:2068BC0013D199F8470009F146011CF053FF01984FF6FF72418E91421FD1406880790228B5
:2068DC001BD3484618F094FF50B318488068D0F8541301A8884723E00C2D0ED160781A285E
:2068FC000BD0D9F8040040B1C08AC00705D099F8100009F10F011CF02DFFBAF1000F04D183
:20691C000D484946007818F0BDF80C2D08D1019850F8041F21B105498968D1F85413D9E72B
