:2000000000340120F545020039FB021039FB021039FB021039FB021039FB021039FB0210AB
:1C00200039FB021039FB021039FB021039FB021039FB021039FB021011FB021002
:20003C002DE9F04F99B0054680780224532800F2C785DFE810F054009900A800B800C80008
:20005C00DA00EA000C011B01C5052A0138015901C505C505C505C505C505C505C505C505BF
:20007C00C505C505C505C505C505C505C505C505C505C505C505650188019401A001AB01E5
:20009C00BA01D401EB0107023A02C505C505C505C505C505C505600276028C02A202B80201
:2000BC00CD02DE020303C505C505C505C505C505C50538034C036003C5056D03770395037A
:2000DC009E03AA03B603C503CF03F2030F0434043C044E045B0467048B0492049504EC1C01
:2000FC00E97A2A7B002320461DF008F98DF8180006AB65200021012221F048FADFF8180BE1
:20011C000078012800F25B85204628F02EF9002800F0558505460079012840F0508527F0B0
:20013C00BBFE00274FF400018DF83F008DF83800000ACDF83A108DF841708DF83E708DF8F7
:20015C0040008DF839000EAE214606F10A0028F084F9297815223346017069788770417081
:20017C004520FF2100F029BD28F026F96979AA790023002423F0D8FF8DF838000EAB6520A0
:20019C00012100F053BC27F0C9FE28F042F801460EA8022228F0C5F88DF8180006AB652029
:2001BC00022100F043BC27F0B9FE28F032F801460EA8032228F0B5F88DF8180006AB652047
:2001DC00032100F033BC27F0A9FE28F022F8EA7901460EA80023002425F08EFD8DF818002C
:2001FC0006AB6520042100F021BC27F097FE28F010F801460EA8052228F093F88DF818008B
:20021C0006AB6520052100F011BC0020DFF8304A27F068FDADF85800681DA0478046E81D88
:20023C00A04795F809B0824605F10A07BBF1100F00F2AE830EAC5E46002E00F0AC8338468F
:20025C0028F04BF924F8020B013E0237F4E727F065FE27F0DEFF01460EA8102228F061F89C
:20027C008DF8180006AB65200721DFE327F056FE27F0CFFF01460EA8112228F052F88DF83E
:20029C00180006AB65200821D0E328F095F86A7B691D0023002422F0C5FC8DF838000EAB78
:2002BC0065200A21C2E302208DF8200028F084F8ADF81800681D28F010F9EA79064605F16A
:2002DC0008018DF838200EAF781C27F0DDFB06A831463A46002300241FF05CFB8DF85800AD
:2002FC0016AB65200B21A1E328F066F80021002421F064FF8DF838000EAB65200C2195E31D
:20031C000020DFF83C4927F0EDFCADF85800681DA047804695F80F9005F11000A04705F107
:20033C001304AD7C83460F2D00F247830EAE2F46002F00F04583204628F0CFF826F8020B18
:20035C00013F0234F4E727F0E9FD27F0D2FC27F08BFB40F0468306A828F07FF846E327F03B
:20037C00DDFD27F0C6FC27F07FFB40F04D8306A828F073F84DE328F01FF827F013FF8DF8DF
:20039C0038000EAB6520232100F016BCDFF88818C8208DF81800E81C0978002900F0818327
:2003BC0026F0E1FF8DF81800A3E36879EE1CFE280BD1A879FF2808D12878082805D33046DC
:2003DC0028F08BF8314624F037F90EA9304626F09BFC002800F09183054600249FE3E81CB0
:2003FC00042124F087FEE97928F09BF8DFF844188DF83800022027F0E9F8DFF83C180320BE
:20041C0027F0E4F80EAB65202621D5E327F0CEFF044605F10E0028F060F8297C6A7C03461A
:20043C00E878CDE90012AA1D214624F08FFBDFF800188DF83800042027F0C8F80EAB6520C7
:20045C002721B9E34FF00208E81C8DF8408028F044F8ADF8380068798DF85800A81D28F03E
:20047C003CF82E7A044600270935CDE9005716A80EA92246334620F0E5F827F06DFD10D123
:20049C00DFF890078DF84080CDE9005722463346C08AADF8380016A80EA920F0D3F88DF8A3
:2004BC00180006AB6520282186E30226E81C8DF8406028F012F827F0ACFEED7904460EA886
:2004DC00002321462A4626F007FB27F045FD0ED1DFF840078DF8406021462A460023C08A2F
:2004FC00ADF838000EA826F0F7FA8DF8180006AB6520292160E327F011FDADF83800681D5F
:20051C00042124F0F7FD6A7AAB7A0024014600940EA824F047FB8DF8180006AB652030215A
:20053C0084E227F0FBFC27F042FE312201238DF8580016A8CDE90004DFF8F0060EA920F074
:20055C0081F88DF8180006AB652031216EE227F0E5FC27F02CFE322201238DF8580016A845
:20057C00CDE90004DFF8C4060EA920F06BF88DF8180006AB6520322158E227F0CFFC27F081
:20059C0016FE332201238DF8580016A8CDE90004DFF898060EA920F055F88DF8180006AB86
:2005BC006520332142E227F0B9FCADF83800687B0024691D0094C0F3400200F001030EA8B9
:2005DC0021F0DEFD8DF8180006AB652034212DE227F0A4FC6A7BADF83800691D0EA8002304
:2005FC00002424F09BFF8DF8180006AB652035211CE22C4614F8030B04281ABFE8782C1DAC
:20061C0002208DF84000204627F067FFDFF81866A5780121E278ADF8380000230024317041
:20063C000EA829461DF0AAFE8DF818002846347024F0B0FF06AB65203621F7E127F0BCFE1C
:20065C00ADF83800687904218DF84000A81D24F051FD0446AE7AEF7A05F10C0027F03DFF7F
:20067C00DFF8B0850546214632463B4627F010FB0EA81FF0C3FF27F06FFC10D10220214612
:20069C0032463B468DF84000B8F81600ADF8380027F0FEFA0EA81FF0B1FF8DF8180006AB0B
:2006BC006520372188E26C7827F086FE0146DFF8740500781FF048F98DF8380004F0E00068
:2006DC00202840F07C820EAB65203E2174E26C7827F072FE0146DFF84C05007820F09AFC9D
:2006FC008DF8380004F0E000202840F068820EAB65203F2160E200206C788DF83800DFF873
:20071C0018050078411E022980F09481022095E127F052FE27F046FD8DF838000EAB6520C5
:20073C00422149E2002006908DF83D00CDF83900E81C06A925F0F2FA8DF83800069850B189
:20075C0027F0ADFA81788DF83B10C1788DF83C1000798DF83D000EAB6520432106222CE2D9
:20077C00E81C26F000FE8DF838000EAB6520442122E227F021FE6979AA790DF0E1FF8DF844
:20079C0038000EAB6520452116E227F015FE6979AA7919F05DFF8DF838000EAB6520462173
:2007BC000AE2EC7827F002FE0146204621F09CFDB0FA80F0472140098DF838000EABC1E17C
:2007DC00E87800248DF8384022F09CFA0EAB652047212BE1E8780EA925F0C4FA06468DF867
:2007FC00180040000130C5B2284627F07AFE002800F0A381044600F8016B00219DF8182008
:20081C00914280F0BE809DF83830013100F8023B9DF8393000F8013CF2E70EAC1321204677
:20083C0026F0DEFFEE7827F0C1FD0146304624F0D9FE002800F088810021231D8DF8381077
:20085C0027F02DFAC11C827818468DF83B2027F01BF97CE10020EC78CDF84600CDF842000B
:20087C00CDF83E00CDF83A0027F0A0FDAA79ADF838000F2A28BF0F228DF83A2022B10EA8ED
:20089C00E91D033027F000F90EA9204601221CF0A5F88DF8180006AB65204B218CE126F048
:2008BC00EFFE8DF838000EAB65204C2184E1E87829798DF838100EA9032800F05F810228B7
:2008DC0000F06281012840F06681522020F0E6FB64E127F071FD69790246A81D1AF072FC55
:2008FC008DF838000EAB65204E2165E127F064FD0146687919F028FA8DF838000EAB652066
:20091C004F2159E1C34D0822E88A05F13901ADF83800C24800788DF83A00A88CADF83B0003
:20093C00688BADF83D000EACE01D27F0ADF804F10F0005F11C01082227F0A6F8287E502146
:20095C00182223468DF84F00652036E1B2480078002800F0018112200AE11FF09BFD2EE189
:20097C0000208DF83800E878010606D5A94910F07F0018BF012081F868000EAB6520532140
:20099C001AE1652049212A46234620F0FFFD39E180208DF863003E78102E52D80DF118098D
:2009BC00013734464D46002C4DD0384627F095FD25F8020B013C0237F5E780208DF8630062
:2009DC0027780F2F54D801340DF1180A3E46002E50D0204627F081FD2AF8020B013E02342C
:2009FC00F5E7084627F079FDADF81800687E06A927F042F80EA921201AF06EFD8DF8580037
:200A1C0016AB6520212111E0084627F066FDADF81800687E06A927F02FF80EA922201AF0E6
:200A3C005BFD8DF8580016AB65202221012220F0ADFDC5E0002840F0B580042008F04AFF68
:200A5C00B3E080200DE0BBF1100F0CD80EA9002052465B468DE84202039016A8414614F006
:200A7C003DFD8DF863000DF1630365200621A3E080200FE00F2D0FD80EA9002002974A46F3
:200A9C005B46CDE9005106A9CDE9031016A8414614F0CCFC8DF863000DF1630365202021F7
:200ABC008AE016A90EAD2A4618F0FEF804469DF85800F0B1614904EB4400002641F8206034
:200ADC0001EB800046609DF94B00B0F1FF3F03DC05F1130021F03EFE0EAD1421284626F07F
:200AFC007FFE0420214614222B4624F06BFA8DF8186006AB652024215EE0182027F0F1FCC0
:200B1C00002800F083800446BDF8380000211822234626F04BFE0546002818BFC8251920D4
:200B3C0027F0DFFC002867D007460130002D4BD01821FF2226F04EFE50E0002049218DF887
:200B5C00180006AB652037E001208DF838000EAB65204A21132230E027F02EFC044605F1C7
:200B7C000D0027F0BAFC0246691D204624F030F88DF838000EAB652051211DE0522020F023
:200B9C008DFA2748002104E0522020F087FA24480121017002E0522024F072F80EAB65202C
:200BBC004D2109E001208DF8380004F0E000202805D10EAB65204021012220F0E7FC002419
:200BDC00204619B0BDE8F08F3146082226F05CFF07F109002146102226F056FF65202521C4
:200BFC0019223B463D7020F0D1FC3846192126F0F7FD384627F073FC002CE0D02046182152
:200C1C0026F0EEFD204627F06AFCD8E7C825FFF7E4BB00BFF8F80020A80C0020A80D00201B
:200C3C00C50E002092040120860E00200C0D0020D1530200A55802003D48010014CC002056
:200C5C00F78402002DE9F04F99B080466FF00700DFF8DCA80630ADF852009AF800000228ED
:200C7C0014D1DFF8C808007880B9B8F8080010B11020012101E0302000210AF073FC002075
:200C9C008DF81C0007A9522020F008FA0DF11C0998F80810D8F804004A460FF0F9FFE8B1A4
:200CBC009DF81E609DF81F409DF82050BDF8267027F0ECF8844211D127F003004FF6F87156
:200CDC0080B288420AD0012D08D8022E06D29AF80000022808D19DF84D0028B1D32013F0C6
:200CFC004CFA19B0BDE8F08FB8F82800ADF84800B8F83200ADF82A009DF82200D0B1D8F827
:200D1C0004109DF81D209DF83830012025F082FE08B1CF20E3E7DFF81C08C078012809D176
:200D3C00B8F8280027F0C5FA20B1417901F0E701083141719DF8210068B1BDF82610FF20C1
:200D5C0024F050FC9DF82110E0B141F001012C268DF8211017E09DF83900002800F0EB803D
:200D7C009DF83D10FF2902D0002940F02681DFF8C807BDF82620C18A8A4240F027810120CA
:200D9C00222607E0082601F00300012808BF46F0110601209AF800104FF6F877012908D828
:200DBC003446B20758BF64F07F04002808BF344600E034469DF82200DFF87C575FFA84FBFA
:200DDC0030B9E87A20B10BF02200222840F080801BF0400004901CD0012903D8A87B8007CA
:200DFC0000F1D880119801780C2900F2DB80012241F298438A401A4200F0D480032902D150
:200E1C0040780D2805D007A821F070F801283FF468AFA88CB8F8441081420AD198F846208D
:200E3C00B8F84210B8F8280000230093002307F01DFF9DF82200F8B1B8F84210B8F8280096
:200E5C0021F024FB002800F08F800646D8F804009DF81D10F2780844417B8A421EBF002200
:200E7C007260F1700130042124F044F971688842FFF437AF013070609AF80000022834D23D
:200E9C00A87B80077FF52DAF9DF84D004FF6F87660B1BDF8280025F0B5FF002800F0078150
:200EBC00D8F80400417801F0DF0141709DF82E00002800F0DF80D8F80400817901398171D3
:200EDC008DF82E1004F07F00090640F0D680D3E00BF0420042287FF41CAF1198007800F082
:200EFC00FE0006287FF415AF72E77FF4FAAE95F82600092802D004287FF4F3AE5FEA8B60D5
:200F1C0000F19E80049800283FF4EBAE11989DF838100078042808BF022900F04581072815
:200F3C0008BF042900F009810C2840F04D8107A814F08EFED5E6BDF8260021F0CFFC02380A
:200F5C00DFF8F415B0FA80F0CA8A4109BDF82600904208BF023100293FD09DF81E20002A01
:200F7C0056D001F1400455E09DF84D00B8B3042024F0C6FD00283FF4B4AE01464FF4B27013
:200F9C000880B8F828004880DFF8B00500781DF0C1F8A6E611980178A1F10C0212F10C0FD7
:200FBC003FF62CAFE88ABDF8262082427FF496AEBDF8280022F008FF90E6109A9DF83C0036
:200FDC001FF07EFF30B101200026E3E690F826000428F8D100260020DCE600241AE095F822
:200FFC006C0001287FF448AF11980078062803D1049800287FF440AFF81DBDF82A1080B257
:20101C0081423FF46EAE07A841461DF043FB68E601F1200421F062FC0138B0FA80F04009B2
:20103C0044EA00069DF81E0000283FF4B2AE1198007825F023FF012818BF04F07E06A8E694
:20105C0098F8460026F001FE9DF82E00012840F0B480B8F82800BDF82810814240F0AD8054
:20107C00BDF8260021F03AFC022804BF00208DF82E00A2E004F07F000446210702D44FF0F6
:20109C00000A34E0E1B24A0722D4C9069DF8211028D5C1F3820212B1072A18BF013A002A42
:2010BC0008BF044601F0E30040EA820118E0D32013F063F8DFF888040078002800F09F8027
:2010DC00DFF8801451F82000C0EB0010810098E09DF8210000F0E00100F0E30040EAD10116
:2010FC008DF82110D8F804004FF4805A017295F82600092801D0042823D1E98ABDF8260097
:20111C0088420AD021F0EAFB022806D09DF8210000F0030001287FF4E4AD9DF81E00002868
:20113C0047D011989DF838100078042808BF02293AD0072848D1042946D107A817F040FADA
:20115C00CFE5E7B214F0610F46D0F80709D0B8F8281007A8A94614F0C5FF002864D004F026
:20117C009F040025E7B2A00609D598F84600D8F83C2026F06AFD07A815A905F085FD78068D
:20119C0040F12681B8F8281007A80DF152022B460FF0FAFD00286FD005461198007801280F
:2011BC0008BF4AF0100A13E107A9002010F0E8FC97E598F8460026F048FDD8F83C2007A8C8
:2011DC0015A905F061FD8CE503287FF48AAD07A800210FF0E7FA84E59DF81E0001285AD17C
:2011FC0011980078032849D0052854D1B8F8281007A80DF1520200230FF0C6FD71E5D148DF
:20121C000168D1480268BDF82800904701287FF468ADCE480168BDF828008847CC480168B9
:20123C00BDF8280088475CE525F02CF89DF82E100546BDF8280019B9B8F82810884291D08C
:20125C00B9F81610814204D1BA48807800283FF489AFB8F8281007A82A4609F09FFA0028B5
:20127C0000F09B8038074AF0040ABDF8260048BFF01DADF8520075E70025A9E0BDF82600F5
:20129C0025F0C0FD38B1B8F8281007A80DF1520200230FF079FD9DF82E0088B322F0D8FB13
:2012BC0000287FF41EAD9DF83900A0B3109A9DF83C009DF83D101FF003FE002870D09DF821
:2012DC003D00002875D0109926F0C1FF9DF82430ADF8520011209DF823209DF821104AF0E0
:2012FC00400A002B08BF0920002A18BF0830002918BF0130D8F804100A5C013A0A5462E0DE
:20131C009DF81E0001287FF47EAE1198007803283FF4E7AC77E69DF82010BDF826000029FE
:20133C00ADF8520000F0D3804020BDF8261009F11D0200EAC4059DF820002B4618F04CF9CD
:20135C0038B1D8F804004AF0200A017801F03F0101709DF8390048B1BDF8261009F1200069
:20137C0020F0A6FD4AF0400AADF852009DF81E00012806D0BDF82810BDF82600002214F083
:20139C000FFBBDF82810BDF826002A4612F0C2F8002818BF4AF0200A15E004F0DF04E0E63E
:2013BC00BDF82610BDF828000B22002319F098FE97E4BDF82600ADF8520026F07AFF002856
:2013DC0008BF4AF0400A24F05DFF05464FF6F876B01DBDF8521080B20F1A5E4818BF2F4607
:2013FC000078012805D1F01DB8F8321080B281422FD160B2B0F1FF3F3FF773AC002F3FF4BE
:20141C0070ACB8F8080027F06CF800283FF469ACB8F80820D8F80410054626F035FB9DF80F
:20143C001E10002098F80830B8F8282016908DF85410BDF8521015ACCDE9007ACDE902042F
:20145C00284610F05DF970B3284627F048F8FFF748BCB8F828108142CBD0701CBDF82620FD
:20147C0080B28242C5D2BDF828008142C1D026F020FF0028BDD0017901390129B9D8408871
:20149C0001218DF85410ADF8600015AD28461DF0EFFD0028ADD0281D1CF034FD0028A8D030
:2014BC0020F0F6FDA5E72348407800283FF419AC00208DF81870ADF81900DDF826004FEA1F
:2014DC003040059005A826F067F9FFF70ABC39073FF52AAF9DF81E1001293FF425AF0021AA
:2014FC0018F03AF820B1407901380228FFF41CAFB8F84410BDF8520020F0C8FF30B1807830
:20151C0025F0F0F801380728FFF40EAFBDF8280025F078FC18B104208DF8200004E7BDF802
:20153C002610BDF8280002223FE700BFC50E0020A80C0020600C0020F8F800209404012057
:20155C00B70E0020389A0200EC090020F4090020F0090020C30E00202DE9F0438DB00546A9
:20157C0080780224252800F27380DFE810F02600A400C400D700EA00F8000601B602B6027A
:20159C001D012E01B602B602B602B602B60246014B01B602B602540158016101B602B602C7
:2015BC00B602B602B602B602B602B602B6026B016E017101740178017F01DFF8D475002408
:2015DC000E258DF804403878012807D801A81CF031F904469DF8040005EB4005EEB230462E
:2015FC0026F07FFF002800F087824FF000080546431C0021082280F80080012026F0D6F8E1
:20161C0026F04AFC6872000A0721A872DFF88405E972007828733878012800F262829DF81A
:20163C000420002A6A7300F05E8205F10E0000212346914280F0578213F8022B013100F887
:20165C00022B13F8012C00F8012C9DF80420F0E7A0F140010D291FD8DFE811F00E0010016E
:20167C003F023F021E012E013F023F023A014501500165013F02740101ACE91C0822201DF5
:20169C0026F002FA204619F073FABDF806004021ADF828000AABEEE0632800F069816428E3
:2016BC0000F07681E02840F0188200244720E021002200230FE2202026F013FF002800F013
:2016DC00C1812021FF22044626F084F8631C01200021082226F06AF80546002818BF01259B
:2016FC0001AB84200021042226F060F8002800F00582023506E2E81C26F0EFFEADF804005B
:20171C00832026F01EFE014601AA832026F0F0FC8DF828000AAB6720022190E1E81C04219B
:20173C0023F0E8FC0190842026F00BFE014601AA842026F0DDFC8DF828000AAB67200321B0
:20175C007DE1612026F0FDFD0146EA1C612026F0CFFC8DF8040001AB672004216FE162201C
:20177C0026F0EFFD0146EA1C622026F0C1FC8DF8040001AB6720052161E100208DF80400DC
:20179C00E81C26F0AAFE6A7900F4F851002A00F04981B1F5A06F04D04FF6FF71884240F02F
:2017BC004B814FF0FF3045E126F063FE044626F037FBD949604301ACB0FBF1F1204626F029
:2017DC000AFE672009210422ABE0DFF8B4632D79306840B901AC204626F01BFA0120214698
:2017FC000EF0A2F83060052D00F06981002D00F06981642121F002F866E115F8032B6720F9
:20181C0010216EE0E87822F06FFB8DF8040001AB6720112113E100246720142102E0002489
:20183C0067201521ADF80840019401AB062252E100246720162109228DF80C40CDE901446D
:20185C0001AB48E1F52020210BE0F520212108E0F520222105E04FF6F570232108E0F520EF
:20187C0024218DF8040001AB6720E8E0F5202521ADF8040001AB67200222E1E0E81C26F04D
:20189C002CFEADF8060001AC204616F055FE231D672041210822D3E0E81C0AA925F034FAEB
:2018BC0000288DF8040000F0CF8001A81821FF22013025F08FFFF4E0E81C0AA925F024FA87
:2018DC0000288DF8040000F0F1804FF0FF30EFE015F8030F697820F075FF28806720482181
:2018FC0002222B46ACE0E87823F028FD01AC0146204618F031F86720492111E0EC1C204638
:20191C0024F03EFF002818BF2046B5F80B1018F0BFFC01AC0146204618F01EF867204A2100
:20193C00242223468CE001ACE91C0822204626F0ABF8204625F05EFE8DF828000AAB6720B5
:20195C004B217CE04FF0FF3095F80380691D0190ADF81000CDE90200FE208DF80600287957
:20197C0003288DF8300020D10AA826F076FD21E00024E91C08228DF8284001AD284626F0CC
:20199C0083F828461CF0BEFA0AAB67206321A1E0B5F80B006A7B0024E91C8DF8044009F0B5
:2019BC0051FF01AB6720642194E0084626F095FDADF82800AF7B002F00F0DD807E0095F81B
:2019DC000D90304626F08DFD002800F0D48005F10F013246044626F057F800940AA94046D2
:2019FC004A463B460DF08CF9002800F0BA80837801784278057946798DF806308DF8041027
:201A1C008DF80520C3788DF809608DF808508DF8073001A98B1D811D40794200184626F0DF
:201A3C0033F8A5E0B1F5A06F03D04FF6FF71884202D100205549086001AB6720062101225D
:201A5C001FF0A4FD002448E0182026F04AFD40B3BDF828100446009006200022182323F089
:201A7C009BFAB8B9BDF8285001AE21461022701C26F00AF8444F05EB450506F1110057F807
:201A9C00251026F0A8FC07EB8500416806F1150026F0A1FC2046182125F0A2FE204626F08C
:201ABC001EFD01AB672044211922C9E7BDF82800ADF8050001AB672045210322C0E7314906
:201ADC0001220A7020F001F9002467200A218DF8044001AB01221FF059FD20460DB0BDE8A8
:201AFC00F08385F80D806720002132462B461FF04DFD284626F0F3FC7CBBA3E7019800BADC
:201B1C00C4F809000AAB83200021022225F04EFE20B1043506E000BF40420F00BDF82800C9
:201B3C00A4F80D0004F10F0361200021012225F03DFE002818BF083504F1100362200021DD
:201B5C00102225F033FE002818BF1035234625706720012120221FF019FD204626F0BFFC68
:201B7C0070E74FF6FF70ADF808006FF480300190204626F0B4FC01AB67204D210E225FE7AA
:201B9C0028040120830E002058FF002008040120A80C0020A80D00202DE9F04F85B0847858
:201BBC000226362C00F2BE820546DFE814F06C01740172007C017800BB02BB0281003700BC
:201BDC004C008C009F00AD00BB02B5009001BB02BB029A01AD01BB01BB02BB02BB02BB024F
:201BFC00BB02BB02BB0237004C00BB02BB02BB02BB02BB02BB02BB02BB02BB02BB02BB02F0
:201C1C00BB02BB02BB02BB02BB02BB02BB02BD00EB00CB01FF005B005B00DB0126F0C0FBA7
:201C3C00242840F0AA8102AB352000210422002425F0BCFD002800F0FC81012002228DF847
:201C5C0010000020FCE100208DF8100026F0A8FB0646092C40F0ED8095F8059095F806809A
:201C7C000720EFE0DFF82465306880B1406A70B102A926F09EFB0546342C40F02C8228460D
:201C9C0026F02BFC002800F02582042041E203203FE2DFF80835612002210A223FE202ACEE
:201CBC00E220214622F0ECFF61200421082288E126F076FB0446681D26F00FFC242C40F072
:201CDC0087810020FBE1E878032800F29781281D26F003FC0246E878DFF8B81431F8101061
:201CFC00DFF8B404007826F073FB88E1E878032800F28981DFF89C1431F81010DFF898040A
:201D1C0000781BF0ABFE7FE126F097FAADF8080002AB61200C2103E1002661200E2101228F
:201D3C008DF8086002AB1BE2DFF8606401208DF810003068002800F02C810069002800F0C1
:201D5C00288102A926F035FB042123F0D3F9002800F0EC81044626F0C4FB002800F01C8170
:201D7C002146054625F03CFD3068BDF80C1022462B4606690298B0478DF81000284626F0EC
:201D9C00AEFB09E1DFF804442068002800F008818069002800F0048102A926F00AFB206878
:201DBC00BDF80C10826902989047FAE0DFF8DC733868002800F0FB80C069002800F0F780EF
:201DDC0002A926F0F6FA9DF80850BDF80AB0BDF80C90044626F081FBA6788046F72E28BFBD
:201DFC006FF00806B01C5FFA80FA504626F079FB002800F09D81012D044608BFBBF1000F6B
:201E1C0000F09A813868A11CF3B24246C569029800914946A8470746002840F0938100275A
:201E3C006120332152462346667027701FF0AEFB88E1681D26F051FB8146E81D26F04DFB11
:201E5C008046092002AF242E18BF2F1808BF3526304609EB080526F074FA854201D9022076
:201E7C0057E1B9F1000F04D1304641463A4621F0D1F8304641463A4626F03AF9002800F04B
:201E9C00E5800A2045E1E878012802D0002840F0488125F061FE40F259600121ADF80800C7
:201EBC0002AB61203CE00120EC1C8DF80800E22021461FF0F3F830B901200821224626F0F2
:201EDC0017F98DF8080002AB6120032126E1E878291D012800F0E180002840F0E580E02013
:201EFC00DFE026F05DFA0446681D26F0F6FA242C0FBF00200146204626F0D6F98DF8080068
:201F1C0002AB6120122109E126F04AFA24280CBF002026F016FAADF8080002AB6120132194
:201F3C000222FCE0E8788DF8080099488068D0F8302402A9E02090478DF8100004AB61206C
:201F5C001421EBE0914C206898B3806A88B302A926F02FFA2068BDF80C10826A02989047F0
:201F7C00014627E0894C206868B3C06858B326F017FA2168C968884726E080466938002609
:201F9C0080B2032838BF0126681D082C40D1057841E003208DF8100004AB61203021BDE06C
:201FBC0003208DF8100004AB61203121B6E00327CDE0002102AC204626F00DFA6120322138
:201FDC0004222346ABE0032026F01EF93621A5E005F10806ED790146A8426CD92046002237
:201FFC0026F080F809288DF808006AD1002D68D020462946324626F07BF862E0022026F089
:20201C0003F90A218AE0022026F0FEF80B2185E026F063FA0546404626F093F90227A8425B
:20203C0088BF7700CFB100268DF808706120214692E002988DF810400422ADF8120002205B
:20205C008DF8110004AB6120082168E0012E62D1E22039461FF022F85BE0471BB8B2F728FB
:20207C0028BFF727B81CC6B2304626F03AFA002860D01FFA87FB00F102098246484659464F
:20209C0025F0AEFB404629465A464B4625F08EFB0546002867D00A2770E00878022814D2E7
:2020BC0052201EF0FBFF00E002208DF8080002AB61200F2132E02046324626F013F88DF807
:2020DC00080002AB6120072128E002A9522022F0D7FDECE702359DF8080015F8018BBDF886
:2020FC000C7001280ED1BDF80A0058B9384641462A4620F08FFF012F04D1E22029461EF0D9
:20211C00CDFF01273068394642462B46466A0298B0478DF8100004AB6120214601221FF000
:20213C0035FA0026304605B0BDE8F08F052031E710270CE0102776E7A9F169000328BFF40A
:20215C0061AE0227204626F0CAF9002FE9D000268DF80870612033218DF8096002AB02224D
:20217C001FF014FADEE78AF80170002761202146324653468AF800701FF008FA504626F09F
:20219C00AEF9002D7FF44FAFCBE700BF400E00200C010020D09E0200920401206C9E02009F
:2021BC002DE9F04F8FB00C4648070FD4200441D4E00400F19781200600F1C081A00700F1D5
:2021DC00D481200500F1F3810020B4E1DFF820050178062900F2AD81DFE811F00700940127
:2021FC00AB01AB019901AB01A001DFF81055DFF804152A7891F82B30022A02D19E0600F13E
:20221C0098815E0700F19D819B0740F192810423037091F82C30DB0700F08B8191F82E30EB
:20223C00002B00F0528224F005FB0420012102F08FFA57E2DFF8C8040394DFF8BCB4DFF82D
:20225C00B094DFF8C474DFF8AC44DFF8B054DFF8BCA448F20208008802909BF800001BF03A
:20227C002BFC002800F03A8106460078D3282DD1F089404540F019813878002800F0158165
:20229C0099F80000012840F0108125F05DFB002840F00B817088002840F00781A24604ACE6
:2022BC001221204625F09CFA25F032FE3046214617F0FCFEBDF81C00B0F5285FC0F08880E6
:2022DC00012002211EF096FA54462AE099F80010884217D1012834D0032840F0E68028787B
:2022FC000138012800F2E180B078012851D0002840F0DB807078002800F0BF8000201CF07D
:20231C00F7FFD2E00A2811D194F82B00BA46B71C3071A16909B138468847384623F082FF97
:20233C005746DFF8D853DFF8E4A3BEE02978002940F0BB80092840F0B880A168B01C884774
:20235C00B3E028780138012800F2AF80707860B194F8330094F83410013084F83300C0B2D1
:20237C00884202D9012000219DE099F80100032858D0022871D0012840F097803878002845
:20239C0000F08C8025F0E0FA002800F09280012085E07078002875D025F07EFD4FF6FE71ED
:2023BC00884203D1BAF81600884207D0AAF81610ADF8281053200AA91EF070FE1DF024FD85
:2023DC0023F090FF00208AF826001CF087FC6CE0CF48006809A90AAA16F066FC0746029868
:2023FC005446C64DDFF824A3874212D29DF8380010B1FD208DF838000420394614220AABD3
:20241C0022F0E0FDC34907EB470001EB8000012141720020012184F83200012002F098F997
:20243C00B94F42E0A2460AACAB20002122461BF03DFD042004945446DFF8D0A2AF4D8DF8FF
:20245C00140004A80FF0B8FA25F062FD9BF800004FF4805141F288321DE0012020714FF4F5
:20247C008060ADF828000AA818F048FB25F050FDA4484FF4805102680BE00FF0EDFF60692B
:20249C0098B9A2E702204FF4805140F6B83289F802009BF8000025F09BFF06E0002084F8A9
:2024BC0032000120012102F053F9304624F0A4F9D3E694F8350020B1E0690028F5D08047DE
:2024DC00F3E70020002102220023ADF8280002208DF830000AA824F0FFFAB5E7039880F470
:2024FC00004028E0854800780138012859D88048017803294DD0012953D1417800201EF0E1
:20251C0079F94EE0012001211EF074F911E024F091F90420012102F01BF90AE00021322207
:20253C000170744880F82A1073480421007825F04FFF84F004000FB0BDE8F08F84F0800096
:20255C00F9E70522027091F82C2092072CD591F82E204ABB052202600120487000201BF00E
:20257C0091FB022023F010FCE3E764480078013801280BD80020CDE90A000AA812F008FAA9
:20259C0020B15D48022100781AF098FD84F00200D1E78178022904D10121817000201EF007
:2025BC0005F984F48050C6E705200021B3E753480078002840F08680DFF838A1DAF80C50DD
:2025DC00002D79D004A80DF1280B01300BF104060390002D6DD0A87A18B10138A872000614
:2025FC0046D19AF83180B8F1000F11D00020A91C08228DF82800304625F046FA584618F09F
:20261C00B7FA28B12A88BDF82A00314622F0E0FAAF1C0DF127015A46384616F045FB814604
:20263C00384609A922F01FF8B8F1000F05D09DF8380040F0020002281CD1DAF80800A0B157
:20265C0003983946082225F01FFA022000220C238DF81000BDF82400ADF81A002648007866
:20267C0004A9009109211FF06EFB28461DF02AFAED68AEE7384622F07CFD9DF827000128E7
:20269C00DBD15846142125F0ABF8224A09EB490000215B4642F8201002EB800014224160CE
:2026BC004172FF2049468DF83800042022F08AFCC3E7DAF80C0028B90F484FF40061007848
:2026DC001BF0CCF984F4006035E7013A012A09D8032202600120487001201BF0D3FA012059
:2026FC0023F052FB287800287FF423AF04205CE70C040120380800209B040120A80C0020C5
:20271C00169F0200480E00209A0E0020F8F80020E403012014CC00202DE9F04F89B020F0F2
:20273C00B5FBDFF810158122DFF81485DFF814A5DFF82045DFF814E50A70DFF8FC14086059
:20275C00DFF8F804FF2101700020DFF80415A8F800008AF80000DFF8F0040968007891F88A
:20277C0008B04FF6FE718EF8000059448AB2A168D1F80031DB899A4200F267810422DFF858
:20279C00DC54A8F80020DFF8D02412689668330ECEF80C60C6F301592B706FF0FF0303EA7B
:2027BC001627B3B2D1F8B86047EA1327AEF8047036781EB9B9F1020F00F04781B9F1030F41
:2027DC0000F043811B0A03F0070316B1002B00F03C81DFF88CC4042B9CF800C008BFBCF14A
:2027FC00000F00F032813EB1DFF878643678862E02D1022B40F02981BB0416D4BBB203F024
:20281C000703022B08BFBCF1000F20D0DFF854140978862909D10020764620F06FFBDFF87C
:20283C004004B64690F800C0307800284ED0BCF1000F4BD1012800F0088103283FD0022828
:20285C0044D1BEF80400400740F0FF803EE0D1F8D40090F88300022800F080802746052025
:20287C00147BF246A946A8F8000025F010FE0546DFF8F003007886286DD1B868016C09684C
:20289C0011B9D0F84C05804760B20021002625F06EFEB9680A6C12685077086C00688677E7
:2028BC00086C0068C477284625F0F9FDBAF8041099F8000001F010011CF064FA4EE0BEF8C5
:2028DC00040000F00700032840F0BF80BEF80400010700F1BA80810402D4810500F1B58053
:2028FC009EF80E20C2F38107012F00F0AE809609012E00F0AA80B9F1010F11D840F00201AF
:20291C0001F0070103290BD117B93F2A40F29D8037B9A168D1F8AC100978002900F09580E5
:20293C004FF6FB71B9F1020F0BEB010C19D1CF4BD95D9B5D03EB01090023402AB7FA87F22B
:20295C0038BF012352091A40430616D4002A08BF09F1020915E0284625F0A1FD24F09CF9A3
:20297C0075E0C14B402AD95D9B5D03EB010908D3420648BFA9F1020903E0002A18BF4FF058
:20299C000209C0F300205FFA89F11FFA8CF30A1A8EF801009A4258DC60440391B346401A8C
:2029BC00A168AEF806007430D1F8501280B28847A6490028886048D07421CDE9019724F068
:2029DC000FFFA24F0020B870A548007820B9387900F020008AF8000078789AF80010DFF8AA
:2029FC0078C24FF000092E4600299A493DD000284FF000003AD1B88800F00700032807D001
:202A1C00012832D18868D0F8D40090F8820060B3C8684069007818B124F056FDFE280DD041
:202A3C008C488068D0F84C02804738B989488068D0F844028047002800F0F780834F0120E0
:202A5C00B870DFF814C22E4610E024F067FB25F01EFD814900240A6813681C7112680A602F
:202A7C0025F01DFD09B0BDE8F08F0020BC6804F1740184F830B06160A1657978BB88FA88A7
:202A9C000029A381029B228184F83A30337808BF994697F80EB084F84990019DA4F85C20FE
:202ABC00FF22B8F80030A273CBF301195E1A797BA8F8006001F0780160F3820101EB09006B
:202ADC002074280600F0AE80DCF8000004AF039A10FA86F000F10801384625F08FFD56FAED
:202AFC0085F0CBF38105A8F80000207C00F04008CDB3B9F1020F06D1B8F1000F03D0B4F844
:202B1C00440004AF06E0BDF810000237A4F84400A4F84200564EF189884203D04FF6FF7190
:202B3C0088425ED1032D11D104F13200394625F094FC464CF11CA068323023F000FB45497E
:202B5C0000284ED094F80EB008370EE037F8020BB1898842608606D04FF6FF713B4C88429A
:202B7C003C493ED101E03B49384CBBF1400F20D3B9F1020F06D16DB9B8F1000F0AD1334808
:202B9C00806803E0A068017C490603D439880237A0F84210BBF1C00F06D32C4C3946A0686C
:202BBC00283025F05AFC03E0284C3888A168088528498968A088D1F8AC201278B2B1B9F1D3
:202BDC00020F13D200F00700012802D003282FD11E4C6DB9264AA368D289B3F8423093426E
:202BFC0006D017F0A0FA18F057FD30E700F00700032806D0012815D1D1F8D40090F8820021
:202C1C0080B1A068D1F848128847104A50B90020D17B9070907BC1F3011100F07800084419
:202C3C009168087408F076FF11E7084FB87808E7064CDDE7A804012038040120AD04012016
:202C5C00AE020120AB040120AA040120AC0B0020780401200C010020C8030120BB0401207B
:202C7C00BA040120B0040120C49E0200C09E0200F00201202DE9F04F9BB0DFF8188505464E
:202C9C00DFF8146598F800000328307040F04F81002000211822082388F8000030700CACEF
:202CBC00204624F083FA2046002122F0B7F9DFF8EC94B0603A21484624F092FD4FF0FF3057
:202CDC00A9F81400C9F81000C9F80C0021F0BAFE002029461DF0BEFA06F11001F06025F0FB
:202CFC0053FBD6E90502DFF8B874B0FBF2F1C9B2032928BF032189F800103970B2F5005F21
:202D1C0040F01281B0EB413FC0F00E81F068002800F00A814FF40050FF224FF000084FF045
:202D3C00885BA9F80600FF2089F8032089F8058004900020079000200A9000200890002047
:202D5C000690002005900020099000200B90FF200190FF200390FF200290CCB2A04580F0B2
:202D7C00E9805FFA88F600211AAA0423304624F05BFEDFF834443046002119AAA047304602
:202D9C00012118AAA0473046022117AAA0471A996FF06F0050FA81F2C8B20E2A06D8012319
:202DBC0003FA02F245F201131A4203D1A0F1FE02022A04D242F28352B2EB914F1ED030460E
:202DDC0014F0FAF8DFF8D0130028087040F0D280304600211AAA042324F026FEDFF8C84369
:202DFC003046002119AAA0473046012118AAA0473046022117AAA0471A99C8B208EB48028A
:202E1C00CA463D4609EB8209C1F30142090A4C46FD2804F8160F61709DF86610E270A17063
:202E3C0001D9102135E0BDF864104FF6FF7291422FD112A81FF0C2FD304600214FF088526C
:202E5C004FF400534FF4005724F0EEFD6FF0030313FA87F7B8B250F80B104A1C01D1032807
:202E7C00F6D801220126D3B2042B06D8CBB2FF2B18BF16460132090AF5E740F80B10CB482A
:202E9C00129900684268CA48904757FA86F081B22078A9F81C109DF86210702889F81A10C7
:202EBC00BDF86010A9F81E109DF85E1089F81B10BDF85C10A9F8201011D07828D14614D0E5
:202EDC007C282F4616D07E281AD0FE281FD0FF2823D10798CDF808800130079020E00998C2
:202EFC00D1462F46013009901AE005982F460130059015E00698CDF80C80013006900FE0F4
:202F1C000898013008901FFA88F0019008E00A98CDF8108001300A9002E00B9801300B900F
:202F3C00397808F1010818E7012088F800001BB0BDE8F08F0B98984E00060BD10A98C0B2B4
:202F5C00012807D80998C0B2012803D80898C0B2012811D99348042200240270CAB2E0B26C
:202F7C00904210D214F028F831780134084339783070F3E7884E1BE0079BD8B2A04219D140
:202F9C00884800220270002089F8030089F80100481E7E2189F80200B9F81C00A9F806008F
:202FBC00002020F015FA99F80200FE2120F010FA3078BCE70998000624D00A98049A0006BE
:202FDC0003D1029A180600F08480764802210127D5B289F80220017017FA82F0B0FBF4F19C
:202FFC0001FB140089F80100284613F0E5FF30702846FE2120F0ECF989F80570002000F0A6
:20301C00D9F8D5E70A98049A000621D06548012189F80220017011FA82F0039AB0FBF4F143
:20303C0001FB140091B2FF2989F801001FD10199FF2919BF89F8031001EB410089F80300A8
:20305C0000EB400009EB8000808BA9F80600AFE7DDE90520104300063FF47CAF21F0C6FCF8
:20307C00A04280F085804F48032101703EE0480089F8032010FA82F009EB8000818B18296A
:20309C00A9F8061094D30739D0B212AA89B215F0D1FE9DF853004007B0D5B9F80610BDF839
:2030BC005620002399F8030000930323891A12AA073989B207F0DCF900287FF479AFBDF8F0
:2030DC00541000293FF474AF9DF858001CF032FB6EE721F08BFC0621A042324838BF032140
:2030FC000329017002D0062952D061E721F07EFC054689F80C0000EB400009EB8000408BDF
:20311C00A9F80D000CF0B4FE39782844B0FBF1F202FB110089F802000130C2B2B2FBF1F2C6
:20313C0002FB110089F801007C2020F06BF9FF2812D17E2020F066F9FF280DD1FF2020F088
:20315C0061F9FF2808D1782020F05CF9014699F80100FF2918BF0846C1B289F80300490096
:20317C0051FA80F009EB8000808BA9F806001AE70798000609D099F80200FE213C46374622
:20319C0020F026F92478029A40E7064806210170FEE700BF790E0020D800002040FD0020FF
:2031BC00930401209F0401203D7C0200D8010010004003402DE9F04F9BB00446DFF8080582
:2031DC00406818B18047002800F03C82DFF8FC04DFF8FCB40B940DF1300A4FF0F8080078D9
:2031FC00411E002C099118BF01218BF80F109BF802900BF118049BF80110002700250A912B
:20321C00C0B287421FD2B94517D0FEB2002152460423304624F008FC0C9810F4403F40F00C
:20323C00040018BF0135C0B27C2806D130460621F82223F071FB84F80080DFF890040C3497
:20325C0001370078DCE7E9B201380022884204D19BF80500002800F03282DDF82CA05046AF
:20327C00BAF1000F08BF1020049013AF00200390DDE909560024280400F0E6819BF80F000A
:20329C0010B901208BF80F00F0B200210CAA04234FF0000824F0C8FB0C98BAF1000F1DD08D
:2032BC0010F4403F17D04FF40050DFF820140134013DABF810009BF80F00097801388BF8E5
:2032DC000F00012050FA86F0B0FBF1F202FB11068BF80D60CFE7A046CDE90956C0B20A9D86
:2032FC000024702803D0E8B2702120F071F85FFA89F600210CAA0423304624F095FB9DF8FA
:20331C003000FE2803D03046FE2120F061F830460621FE2223F000FB4FF400500BF11601F9
:20333C008BF80C908BF80D50ABF814405A46ABF81000FF208BF80E00E8B2400050FA85F0DF
:20335C00D57B01EB8000B0F806B0DF4804707000A2F812B050FA89F001EB8003FE20194621
:20337C0001F8020F33F8060F02910790D7480193047812A81FF022FB0A980A9A089655FA75
:20339C0080F0013890FBF4F101FB14000090D5B20A92B54200F04A81A81BB0FA80F040095D
:2033BC000590002006900020C00740F093801FFA8BF0162871D9C4480078002840F03C81C7
:2033DC00ABF1070A28460DAA1FFA8AF4214615F031FDBDF8426006F11000A0421AD89DF807
:2033FC003E00962816D19DF83F00C10701D1800703D40020AAEB060B2CE0AAEB06009DF800
:20341C003D2031462B4684B2204618F085FD20B3ABF1080A1FFA8AF01728C0F00D81AAF1F9
:20343C001604362828463A4688BF2024AAEB040AA3B21FFA8AF124F0F7FA2004EAD017FAFF
:20345C0084F010F8010C962801D0013CF5E704EB0A0B0020DDF82CA0A6E7F01D83B20798EC
:20347C0013FA80F1B1F5005F01D90120F2E780B28B469A4918440A1A2846214624F0D4FABC
:20349C00069801300690BBF5005F07BF01204FF40051594600200791ACE7069810B18C4903
:2034BC0024F00BFC0098C0B2854200F0C2800A990120089E50FA81F084490978B0FBF1F2D1
:2034DC0002FB1102824902EB420001EB8000B0F81CB05CE7069810B17D4924F0EEFB002061
:2034FC00DDF828900590784C2078002840F0A48007981021C0F50052103883B20898C1F20F
:20351C0000121FF077FA217808431299207071480068426870489047059888B16B48007883
:20353C002918013991FBF0F202FB101968495FFA89F0400050FA89F001EB8000B0F81CB0FA
:20355C0063480799089C0123A0F814B08346018280F80E900198BBF9122001809BF80D10CE
:20357C00204621F059FABBF914209BF80E102046022321F051FABBF81000BAF1000FC0F5B3
:20359C00005004D004998842A4BF01210391049988424FF07C01B8BF7821089C20461FF01F
:2035BC0017FF0CF065FC05469BF80F000621FC22401B8BF80F00204623F0AEF90299FC2086
:2035DC009BF80E3008709BF8021015FA88F00A9301443E480078B1FBF0F202FB101909F1CC
:2035FC0001018BF80290CAB2B2FBF0F202FB10118BF8011003EB43010BEB8101898B1029E4
:20361C0006D10A990131B1FBF0F202FB10100A900998401BBAF1000F09903FF429AE0398A9
:20363C0080F00100C0077FF423AE0DE00120354658E7DDF8009056E726481299006842685D
:20365C002548904700223AE07C201FF0DBFE0446FF281DD17E201FF0D5FE0446FF2817D112
:20367C009BF8014004EB44000BEB8000807DFF280AD016489BF8021000780144013991FB2D
:20369C00F0F202FB101403E020467E211FF0A0FEE0B2FE218BF80340400050FA84F00BEB0B
:2036BC008000808BABF806009BF802001FF090FE00208BF80500BBF81000C0F5005210B254
:2036DC001BB0BDE8F08F00BFD80000209304012040FD0020D8010010004003400020001176
:2036FC002DE9F84305460C46480414D4A00023D4A0075DD4600500F18080200500F1078129
:20371C00200700F13C81600040F1F78019F03AF824F08044F1E024F0BAFEDFF824140F6D75
:20373C003FB1D7E90A1202F0E04201F00A01891848D024F0B4FE5DE0BC48DFF80874016815
:20375C0041F080010160B878012804D104201FF0A7FE0020B87024F09AFE0646B448406D4B
:20377C00016804208847DFF8E4130A68904219D12A7EBAB1FA68AAB1DFF8C403806C002853
:20379C0000F09880C16840F603020988914206D0C06840F604010088884240F08B8005F181
:2037BC00140089E040F6C4120860C5E9042285E009F0D6FEDFF88803006C002808BF24F025
:2037DC0002049AE0D7E90A65D7E90A12AA43B143C7E90A1224F063FE56EA0501B86818BFE3
:2037FC00002807D0D7F808C03869B7F9301032462B46E04724F480447FE024F048FE054696
:20381C0022F00EFA002800F0B780CD48876B002F00F0B280DFF82C830420CD49002288F869
:20383C001800C74822F0E1FB24F0CCFDC94824F028FEC5480068006B8047C8F81000012592
:20385C00042088F8025020F07FFB386990F82810C8F80400490703D5436A042100229847AC
:20387C0001201AF083FCD8F80400457611F0ECFFD8F8040081680B461A465B684BB11E8834
:20389C00A6F60306072EF7D805FA06F616F0830FF2D0537B03F0F003013353730023FD68D8
:2038BC0053602D88A5F60305012D00F28A80C8F810309FE005F110001DF0E0FA304624F0C1
:2038DC00EEFD20F059FB78B12E6A28466FF4807100224FF00073B0479948806B10B118F09A
:2038FC0051FF01E044F00204EE692846002100224FF08063B04724F0005434B1984821468C
:20391C002830BDE8F84324F004BEBDE8F8838D4EB078012804D104201FF0C2FD0020B0702A
:20393C0020F02AFB38B170686FF4807100224FF00073056AA847306950B183480068006BB7
:20395C00804732697168801A000BC860002030617B4D82490022284622F047FB0220307653
:20397C00286C20B17E480221283024F0D2FD18F009FF24F40064C0E724F024FD41E024F005
:20399C0086FD054622F04CF9A0B1DFF8B88198F8000000070ED498F9000000280AD46846C7
:2039BC0012F08AFD08B1009820B1DFF8B89199F8610048B324F006FD18F0E4FE24F0080412
:2039DC009BE7034633F8385FA5B190F8445090F8456005F0F00580F8445006F0F005013588
:2039FC0080F8455000255360C5634587507B00F0F000507358480022C2610160012022F0EB
:203A1C0061FD24F4806478E700260127602E11D009EB0600817A31B18772407A07FA00F099
:203A3C00C0B21FF057FD2036F0E700BFCC2108408C010010032088F81800464824F021FD5C
:203A5C0024F0C0FC444F3E4D0022786900207861F968F8602846444922F0C7FA3A480068EF
:203A7C00006B8047D8F80C10D8F82020411A02EB1130B0EB113F38BF4FF0FF3098F824105F
:203A9C00C8F8200021B1D8F80810B0EBC12F20D922F028FDB8B140F60900414621F83C0F22
:203ABC00002048804A7B02F0F00201324A730A7B02F0F0020A734860F8613960B8F83E00FB
:203ADC0010F4406FFAD00020C8F82000012088F824001CF053FB25480021016002200021FC
:203AFC0022F0F0FC02201FF0DBFC102011F088FA98F8010020B9D8F80400503024F001FD21
:203B1C001B48807810B90D2011F07AFA98F8250028B1002088F8250005201FF0C1FC00205F
:203B3C0088F818001348C8F81C000220B5F85610B5F85420914208BF072018F009F83BE758
:203B5C00BC060020940500208C010010B40D0020195C0200C0FB002000100440C1080100C0
:203B7C00FC05002070F9002005C8010000000460309E02009D0001002DE9F04F8DB0847851
:203B9C000226142C00F21F820546DFE814F02900150015004A0085001C021C021C021C025E
:203BBC001C021C021C021C021C021C021C028E009C00AF00BE00CC0001206A78022C8DF8FE
:203BDC003100089240F0C080E878291D03288DF82C0040F0E18009A8082223F055FFE0E079
:203BFC0010208DF82400102024F07BFC98B10446DFF8E00321466060E81C0FF0E9FE8DF832
:203C1C00240028B9204622F09BF88DF8240010B1204624F064FC002609AB64200021012292
:203C3C00C2E10020CDF82A00ADF82E00CDF8260002208DF82C00E81C24F04FFCADF82400F9
:203C5C006979A8798DF82D1023F0AEFF8346E81D24F043FC95F80C908046687AAC7A95F81E
:203C7C000BA04FEA49078DF83100384624F039FC002800F01081CDE9074806464FF0000836
:203C9C0005EB0800474570D00D3024F026FC26F8080008F10208F3E7E8781FF0EBFC8DF8F3
:203CBC00240009AB6420042189E1E978032900F25281281DDFE811F00400510155015D0194
:203CDC0017F0E8FF76E1E81C24F007FCC04C6668002E00F0E4806A79002A00F0E480336810
:203CFC00A91D184423F0D0FE0020D9E0B84EEC1C04212046376821F0FDF9002F4AD0B96823
:203D1C00814200F0A0803F68F7E7A888ADF82400E87809A922F00AFF8DF832000DF132031F
:203D3C00642013214BE10026E878ADF8246009A922F0D2F9BDF824000DF1320314210222E0
:203D5C00ADF8320064202FE1E81C02218DF82C1024F0C3FBADF82400002005F10608ADF890
:203D7C002E0068798DF82D0026E0BBF1000F00F0B580437B0DF131010E30CDE90496CDE94E
:203D9C00000107985946CDE9020A09A8089A1CF0DDFEA4E0012000E1084624F09EFBADF8A6
:203DBC002400287B8DF82D0005F10D0024F095FBADF82E0005F10F0898F8000023F0F4FE52
:203DDC00054608F1010024F088FB98F8036098F804A098F805B08146022C8DF8326009D199
:203DFC0008F1060024F079FB074608F1080007F10A0104E098F8067008F1070039464DB168
:203E1C000A3189B2FB2907D3DFF8C481D8F8040000286ED0022009E00DF132018DE8030CFC
:203E3C0009A84A463B46294604F064F9089E8DF8310006F0E000202840F0C4800DF13103C4
:203E5C0064202146BBE0EC1D204624F046FB6D7A002D00F0978005F102098246484624F076
:203E7C0040FB002800F098800026457080462A460670786800EB0A0108F1020023F004FE4E
:203E9C005FFA89F26420122143461DF07FFB404624F025FB97E010208DF8320024E010201F
:203EBC008DF8240016E0D6F800C0F38AB28A3169757EB77E06F11800CDE900C0301DCDE9B6
:203EDC00025704F017F98DF82400606824F007FB0020606009AB6420112170E002208DF8A1
:203EFC003200304624F0FBFA0DF132036420032165E007F11C0024F0F4FA0028C8F80400D3
:203F1C0055D000F11C010C22016000208DF83100D8F8040009A9043023F0B6FDD8F8040099
:203F3C000F214FF47A7205612A4DC17680F81AB080F819A00676C782A0F8149008212878B5
:203F5C0024F046FA089E00283FF473AF2878082119F0B4F86DE702202CE0007819F0DEF877
:203F7C0028E0007823F020FE18B323F007FB002020E024F0B2FAA97924F02AF8B0FA80F042
:203F9C00400917E03068B84201D138683060384624F0A5FA002000E0102000262070642096
:203FBC0012210222234666701DF0F0FA0BE010203CE701208DF8240009AB642010210122C4
:203FDC001DF0E4FA002630460DB0BDE8F08F00BFEC0C0020920401202DE9F04F8FB00C46E9
:203FFC0008040CD4A00426D4DFF88853287802282DD1E10740F00181A10641D558E0DFF83B
:20401C006C03007819F058FD90B10178DFF8602305460020602808D0135C08308B42F9D122
:20403C00104450F8041C28468847284622F0E4FB84F4004595E11CF06DFC28B10546FCF74D
:20405C0001FE284622F0D8FB84F4005589E1A1062ED4012814D8E10600F11781610600F135
:20407C002F81210600F13D81E10500F13F81210500F14181E10400F15481610400F15B8151
:20409C00A10700F1E080A10500F1FA80210700F11181610500F11981E0034FF0000540F106
:2040BC0060811BF00DF8B648C57084F4803558E1AE4F202138781DF0E9FADFF8C482012539
:2040DC00D8F80810084317D024F0D3F9054623F0A7FE68434FF47A71B0FBF1F0D8F808107A
:2040FC00401A4FEA500538BF6FF00045002908BF0D46002D00F0C28000200421002221F007
:20411C0025FB06464FF0060A4FF0FF094FF6FF780DF1080B002E4DD030460421002237462F
:20413C0021F014FB06463889401B38BF002038810004EFD1B87BD0B301280AD17889400745
:20415C0007D4386887F80DA0B721407B1CF09AFBE0E739685A468DF80690ADF80480086AAA
:20417C00C97F0CF095FD01281BD1B87BB97A8DF838000907788A40F08002ADF8362006D57B
:20419C0040F4C070ADF83600387B8DF83A00786910B1007BADF81800584601A9002202F01C
:2041BC0073FD387B87F80DA015F096FBB2E701207873AFE7DFF8C8816C4F21F0D7FB0020E5
:2041DC000121002221F0C2FA18B13878202118F075FF002004210022002621F0B7FA002805
:2041FC0047D006890421002221F0B0FAA0B10289B1B2914228BF1646F4E7654890F82C105A
:20421C000F2906D190F82600022802D300201FF06BFE84F00105A4E0A8B2B1B2814223D9B4
:20423C00D6FA55F0202180B24200387824F0D0F824F01FF9054623F0F3FD68434FF47A71B9
:20425C00B0FBF1F615E05348007818B302AD284624F033F823F00EFE4F490B784F490A782D
:20427C00294619F0FFFE22E03878202118F026FF0026C8F8086084F0200572E000259CE7AC
:20429C0014F0A6FF84F400756BE008F009F984F0100566E03E48418B012024F018F9287820
:2042BC00022804D131480121007819F0D7FB84F0020556E03248012184F00805817050E006
:2042DC000BF062FF84F040054BE0022808BF15F003FA2F480121808C24F0EBF884F4806596
:2042FC003FE022F0D7FD84F080053AE021F08AF884F4807535E01AF0F5FB20480078012872
:20431C000CD11D48007848B14FF47A7100FB01F216484FF40061007824F057F884F40065F8
:20433C001FE01748017819B1002101701AF0DAFB84F4805515E01448006880B1114909783D
:20435C0001290CD180471148006800B1804707484FF480414FF47A72007824F036F884F486
:20437C00804528460FB0BDE8F08F00BF94040120C4970200A80C0020AC0E0020AD0E0020AD
:20439C00600C0020AA0E0020DC090020E8090020F8F80020880E0020B00E0020B20E002003
:2043BC002DE9FE4F8846080426D45FEAC87004BF0020BDE8FE8FE548056824F05AF80446CA
:2043DC0023F02EFD60434FF47A714FF6FF72B0FBF1F14FF6FF70002D00F01A812B886C885C
:2043FC00CB1A9BB29C4240F21C81E31A94B2A342B8BF1A46ED68EEE7DFF840A3CDF8048096
:20441C009AF8000019F058FB002800F0FC8006460078012840F0EC80DAF8041096F833903E
:20443C00D6F814B096F8138021B148468847002840F0DE80718896F83100022220F042FF9B
:20445C000546002842D0287A297CA0F10108FF2900F0BB80707F4F46C00718BF0027E97CD9
:20447C00287D0144B94204D8E974FF2101FA00F06874A969A87C96F83020896A10FB0710F2
:20449C00F16A23F001FB287D697CB7FBF0F202FB107001228240D2B20A436A74C8457CD10D
:2044BC0096F83010AB7C13FB0713A9698B844FF4FF7303FA00F0C0B21043FF2868746CD1FB
:2044DC00287C19F027FEFF2028747FE0707FC00700F08E80B07F23F067FB002800F088805C
:2044FC0004461C2023F0FDFF002800F081801C21054623F075F9B07F02A921F0EDFD9DF87F
:20451C00090002212875284621F03CFE708896F8312096F8301096F83330A880287DEA713F
:20453C00FF2202FA00F0687460680078A9742874302013FB010080B221F0E2FA0028A861CE
:20455C005DD004461A20B11C2060708CA080A01D22F0FAFAF27F04F13000B17F96F82830B6
:20457C00C4F81CB084F81980A062307CE273744A217563750121A075928C2282F28EA285B3
:20459C00F28C6282B6F81100A4F817009AF8000085F8089018F092FD55E723F06AFF0446EB
:2045BC0023F03EFC60434FF47A71B0FBF1F0654928806348097800794843642148436249F4
:2045DC00097800FB0100688000E04F46E87C297D6A7C01440139B94218BFFF2A0CD186F820
:2045FC003300708806F11C0186F8342016F04BFA304622F001F903E7C845F9D1EFE72846BC
:20461C0021F0D0FDF4E7019880F40040BDE8FE8F92B282424BD049480121007823F0D8FE0F
:20463C0045E0A879022806D1287CFF2837D0A86922F0E2F833E023F01CFF044623F0F0FBBF
:20465C0060434FF47A71B0FBF1F03F49288095F83800097888421BD295F83620FF2A06D1D1
:20467C0095F83720013085F8380085F8362095F8351095F8394082F0FF0300200126C7B275
:20469C00A7421DD206FA07F71F4214D10130F6E7EA8BA87E95F82A10E9231DF0E9FD284605
:2046BC0021F080FD25480121007818F007FD88F00100BDE8FE8FFBB201441A4385F8362070
:2046DC00AB8F95F83440C8B204FB10339EB2A64203D2FF2285F8362002E0FF2A08D1234679
:2046FC00184A174E1278367972436426724302E095F83A2023466A802A8D0E0606D022F0DB
:20471C00200244432A852A6C224404E042F020012A6C2985297A85F82E10E9796A6285F8A5
:20473C002D10D9B269840549496811B188470028B8D105F1100004F083FBB3E7CC0C00205D
:20475C00F8F80020A00E0020A60E002044E100207FB50138072800F24C810C46DFE810F0D2
:20477C0008002C0054006E0089004901A600C900CB4800780138012800F23B81002C00F02E
:20479C0047810020032100241DF052FFC64DC74E0420042132222870307823F019FE082018
:2047BC00002106F0DFFE30786C704FF4805104B0BDE8704019F052B90020002523F0FCF9E7
:2047DC00BB480121017004208DF80D0074B1B548B34C45852078012803D1072021F0B2FE09
:2047FC002078022802D1062021F0ACFEAE48042132220570AD48007823F0EAFDA94890F863
:20481C002B1001F0FE01F2E0A54800780138012800F2EF80A54804213222007823F0D8FD91
:20483C00002C00F00F819F4C9F48012101702069002800F0EC801EF081FAF8E70120002C89
:20485C008DF80D007BD0974800219B4A80F82A10984823F075FB924C2078012803D10720CB
:20487C0021F070FE2078022870D1062021F06AFE6CE002208DF80D008A48002C73D0002199
:20489C008D4A80F82A108B4823F05AFB002003211DF0CEFE824C2078012803D1072021F080
:2048BC0051FE2078002877D1092073E07C4D00208DF80D00002C28787BD018B9092021F06C
:2048DC0041FE2878022806D10820002106F04AFE042021F037FE10F0EDFB73480021C8223D
:2048FC00017070480D2180F82A10704823F001FD78E005208DF80D0069480078022878D11F
:20491C00002C00F0C38068480022C178C270017042F20800002106F025FE62480D2190F898
:20493C002B2080F82A10C17802F0DF02002980F82B200CBF04200D2021F004FE59E058485E
:20495C00007818B95748022180F82A105648002132220170554823F0CCFC524890F82B1025
:20497C0001F0FD0143E0082180F82A104C490978012911D890F82E0070B900200DF10A01FD
:20499C008DF80A0052201CF089FB22F08DFE1DF0E9FA002021F0D6FD434800213222017068
:2049BC00424823F0A6FC3F4890F82B1001F0FB011DE03C4C022812D194F82E0078B194F864
:2049DC002B00002140F0200084F82B0005208DF80D00082006F0C6FD0A2021F0B3FD0220D3
:2049FC0084F82A002F4890F82B1001F0EF0180F82B102C480022032390F82A008DF80C0028
:204A1C002A48007803A900910A211DF09CF97FBD244C0720254D4FF4805184F82A00012066
:204A3C008DF80D00287819F019F80020002620F0EDFD2878022141F2883284F82B6023F004
:204A5C00C7FCD6E7174C022000218DF80B1084F82A001548017094F82B000DF10B0100F04F
:204A7C00FD0084F82B0001208DF80D0052201CF015FB22F019FE1DF075FA002021F062FD00
:204A9C0020690028B5D01EF059F9F9E70548022180F82A1090F82B1041F02001A7E700BF00
:204ABC00A80C0020380800200C0401209B0401209D0E0020F8F80020720E002092B0DFF821
:204ADC00EC92D9F8000010B1002180F8451048301FF01AFC23F0DBFC8046072010F04EFCFE
:204AFC0017F06CF810B1B24823F0D6FE19F096FB01AD284623F038F80427002029468DF855
:204B1C00047023F039F8AB4C206022F06FFC0AAD284622F0F1FE002029468DF8287022F0E9
:204B3C00F3FEA54E306022F06BFC06AD284622F0F3FE002029468DF8187022F0F5FE31680E
:204B5C009E4D286019B99E4823F0A6FE286810B99C4823F0A1FE206810B99B4823F09CFE87
:204B7C001BF0B8FDD9F800004FF0FF3438B1CDE9104410A9082221F0DDFE01281BD1CDE989
:204B9C001044082023F0ADFC002846D005460026052E04D823F051FBA8530236F8E74FF64D
:204BBC00300029460822E880884822F06DFF284623F095FC09E0D9F80010CDE9104400294B
:204BDC00DFD08248082222F05FFF10AA0120082123F088FA092800D0D8B920F05DFB80078C
:204BFC0012D4CDE91044CDE90E440EAB01200021082222F0DBFD60B90EA810A9082221F0CF
:204C1C0099FE002800F0CB80704A0120082123F06FFA6E49E2201CF041FA11F069FF28204D
:204C3C0023F05FFC6A4E0028306055D0694F6A4C07F10C0523F059FB22F0BEFE30680560AC
:204C5C0007F1100523F051FB64498968D1F84C1388473068456007F1140523F046FB1BF08A
:204C7C00F9F83068856007F1180523F03EFB18F0B3FD3068C56007F11C0523F036FB1EF069
:204C9C00A3FA3068056107F1200523F02EFB1DF0E1F93068456107F1240523F026FB1CF07E
:204CBC0075F93068856107F1280523F01EFB22F075F93068C56107F12C0523F016FB1FF001
:204CDC00ABFA3068056207F1300523F00EFB387022F0AEFC3068456217F07AFF4048414996
:204CFC004FF00009CDF8409001603F480321119010A81FF0E1F823F026F8404623F0CFFBDA
:204D1C0017F06AF823F0BCFA01201CF05FFE18F08BFF37480078022808D134480078012812
:204D3C0004D14FF40040012106F01CFC294F4FF48041387823F016F92E484FF0FF31006834
:204D5C0023F0A6FDDFF8B08078684FF0FF3123F09FFD3068002550F82510096821B9691C72
:204D7C00092D0D46F7D3EFE722F075FD316851F825100C68C1F8009022F0D8FB58F825201C
:204D9C00002021469047044622F065FD316851F825100A6822430A6022F0C8FBD4E70B48A0
:204DBC000EA9082222F070FE33E700BF400E002084980200F4030120F8030120FC030120BD
:204DDC00A2980200B5980200C8980200A603012070040120B8040020893402000C010020A3
:204DFC00F409002001BB0100008D1500C50E0020A80C00204C0401204C9B02002DE9F04FA5
:204E1C0089B08A4608040DD45FEACA7040F01D815FEA8A7000F12B815FEA0A7000F13381E7
:204E3C00002042E1A24F387818F046FEDFF88892A04C06464FF0000B48F21508002E00F03E
:204E5C0001813078312838D0322849D0D32840F0B380F089404573D0382840F0AD80CDF817
:204E7C0020B0CDE906BB304606A91FF02DF99DF81C10052968D8307B002840F09D809DF891
:204E9C001D00002800F09880052800F29580069822F03DFA002840F08F80707C8749787083
:204EBC00708808809DF81D00214601388DF81D0006A890E82C002CC17EE0B87803287BD817
:204EDC0099F82E10804822F022FA002874D1FF207C49607170880880B088794908806BE082
:204EFC006079FF2814D0002015F056FD0246B9F8701078783346CDF800B012F041F96079CE
:204F1C00002859D038780821322223F061FA53E099F81810706820FA01F2D2071ABF314491
:204F3C00097A002106F1080200231B2B42D020FA03F5ED0702D0D55CA9421ED80133F4E73C
:204F5C00304620F0C3FA37E0FF293DD0FE2956D199F872109DF81E00884202D860BBFF29AB
:204F7C002AD11BF09DFE069900201B2859D021FA00F2D20757D10130F7E7B9F86E004F4975
:204F9C00334608804E4802884E48018810200090002012F0F5F80120F870B87840B93C20D8
:204FBC0002214EF66022B880387823F011FAB8780130B87084F805B0304621F01DFC3878DC
:204FDC0018F07AFD064639E799F872109DF81E00884203D80028EFD1FF29EDD11BF060FE28
:204FFC00069838B1D9F82810814203D0C9F8280021F0B8FABDF8200022F00CF8DCE7307B6A
:20501C000028D9D170882D49802200230880707CCDE900BBCDE902BBCDE904BB10F0BCFFE7
:20503C00CAE71B2000E0C0B299F818108142C3D02649087099F80700642100FB01F2387865
:20505C00012162E78AF400402FE020491A4C08782076E1201CF022F821F084FA0020A4F8A5
:20507C007000012015F098FC8AF001001DE010488188B1B101394EF6602281800078022113
:20509C0023F0A6F90FE00B4C607938B12179206822F03DF910B96079013860718AF00800A2
:2050BC0003E0002181708AF0020009B0BDE8F08F540B002048030120F8F8002082030120E5
:2050DC009E0001207AFD002000F8FF07970401202DE9FE4F074608680024B0B1D7E9018AB4
:2050FC000E4623F0D4F98146D8F8E800082888BF0124B068204202D17068204208D00320C3
:20511C003074484623F0CBF900242046BDE8FE8FD8F8C01069B198F8F8100029EFD006214D
:20513C003174D8F8C410C8F8C4604E6198F8FC100DE000210522C8E93066C8E93411C8E9B8
:20515C00361198F8FC10002908BF0122327400220129726109D102204FF4E02188F8FC00BC
:20517C0098F8FB001EF0B8FD706889490138884205D804201EF0E8FE06201EF0E5FE0220EA
:20519C001EF0E2FE98F8F80040B9DAF83C003168814203D298F8FC0000286CD0D8E936104E
:2051BC0009B118B900E028B323F0A7F8DAF80000416941F001014161484623F070F998F8F0
:2051DC00F80008B10124A0E708F16C05D8F8EC10284622F0C9F90028F4D0D8F8C00003213E
:2051FC000174384609F0B0FE28460021002422F0BBF98AE79AF8040023F04BF9654CDAF89F
:20521C0010100222206991FAA1F1B1FA81F14368D8F8CC004068006898472069DAF81410B6
:20523C0002224368D8F8CC0091FAA1F1B1FA81F14068006898479AF8040023F024F99AF866
:20525C00040023F028F923F058F80020C8F8E000D8F8C0000068B0F5806F01D923F04DF819
:20527C0098F8FE000028A1D1DAF80000416841F0020141609AE798F8F90020B1D8F8EC0003
:20529C0001307FF48BAF484623F009F9B2683AB1D8F8E8000221092838BF0121009103E0D3
:2052BC0008F1F40200200090746834B1D8F8E8000227092838BF012702E008F1F604002745
:2052DC00DAF80000334D416841F002014160D6F800B0D946BBF1000F40D0D8F8E80001922F
:2052FC0009284FF0010011D22A68B9F1000F1FD0C0071DD02178DAF80000926890470028EC
:20531C001EBF3C44A9F101090120EDE72A68B9F1000F16D0C00714D02188DAF8000092682A
:20533C00904700281EBF3C44A9F101090120EDE7DAF80000D26802A99047DDE90120107067
:20535C0007E0DAF80000D26802A99047DDE9012010800098ABF1010B0244BBE7D8F8F0005D
:20537C00DAF80010CA680240102802D1002AF9D101E0002AF6D0706820F0BAFDD8F8C010AC
:20539C000020C8F8C400C8F8C00008741AE700BFFEFFFF0FC40100102DE9F04F85B0884659
:2053BC00080418D4A9480078012802D85FEAC87155D15FEA88714CD4022807D1A4480078FD
:2053DC00012803D15FEA487000F188805FEA087057D400202BE1DFF85CA29AF8000018F033
:2053FC006BFB002800F021810546807FC8B9688C132816D190486E8800F11C0900204946FD
:20541C004F46002818BF071D086850B1014631F8042BB242F4D144683C6023F060F82046D6
:20543C00F3E7A87A05F1020B022840F0E480DFF8089295F83170BBF8006009F11C00006863
:20545C00A0B10188B14202D18178B94242D00430F5E779480121017088F00200E7E0764827
:20547C00406900B1804788F00100E0E0D9F81C40002C57D001206168002955D001300C467B
:20549C00F9E77048DFF8B091807BD9F81C60000760D422F0EEFF044622F0C2FC6A4A60434D
:2054BC004FF47A71B0FBF1F0D9F818101288411A91427AD3B1FBF2FB0BFB02F2511A0844BE
:2054DC005E49C9F818001FFA8BF00978884288BF8B4641E059490978C170A3E05E495D48F5
:2054FC0000224FF6FE7300240978023079B130F8025C9D4208D04588013D45802D0406BFB4
:20551C00027020F8023C012401390630EEE734B1484804214FF4FA72007822F059FF88F09A
:20553C00040084E000240020454980B20988884261D2082022F0D5FF00285CD0002106804C
:20555C00877041603D490978C170D9F81C1079B360603FE04FF0010B00205FFA8BF44FF0D5
:20557C00000A071D002808BF09F11C0796B1F078C0FA5BF1A042F17006D8756830463D600F
:20559C0022F0ADFF2E46F1E7716830460AF1010A0E46E6E75FEA0A4007D100200821C9F8FA
:2055BC0018002448007818F059FA88F008003EE0C9F81C002348807B00070BD422F059FF47
:2055DC00044622F02DFC60434FF47A71B0FBF1F0C9F818001B48807B00070CD59AF800001C
:2055FC0008211CF053F830B91748082102889AF8000022F0EAFE2878022810D0012811D1D3
:20561C00297EAA89EB7C05F11C006C696E7E8DE85A0005F11003594605F08AF902E028461B
:20563C0014F082FD284621F0E7F888F4004005B0BDE8F08F910401205C0A0020A50E0020C9
:20565C006C0E0020F8F80020700E0020A80C0020C50E0020C2E90020820E00202DE9F04F4F
:20567C0087B0851C8346284622F07FFE01AC06461821204622F0B4F89BF801A004F10B00E6
:20569C002946009522F0E9FE6FF001009BF80A1002240122ADF8180000208DF81A408DF85A
:2056BC000C0001F00800C1F3C007890782EAD00507D4002808BF0124B946A8460027002555
:2056DC0007E004244FF000094FF00008002808BF03248548007850EA0A000BD0834890F843
:2056FC002600082809D122F02FF900285AD0BAF1010F57D14FF0C30901E04FF0C2090025D4
:20571C00BAF1000F10D07F48007890B9BAF1010F0FD1002E55D00020214601228DF81A0014
:20573C0001A813F019FE0AE001A81AF059F986B91CE001A82146524613F00EFEB6B1717958
:20575C00BAF1020F41F04002727104BF41F0600171719BF80A10490603D5717941F0800174
:20577C007171B17900240131B17100E00124B0FA80F149090D422CD107D1002D18BF814628
:20579C0041F20100494616F09EF814B9009818F0B9FBBDF818004FF6FE71884218BF22F039
:2057BC00AAFE16E0DEB33279A24218BFBAF1020F12D1D01EC0B201281BD857EA050020D1E6
:2057DC002AE00220214601228DF81A0001A813F0C3FD07B0BDE8F08F4FF000090099534697
:2057FC008DF81A903088ADF8180022F064FE012586E7501EC0B201280ED849EA080001288F
:20581C0007D130881FF07AFF50B93088ADF8180008E0308822F06FFE009818F073FB002683
:20583C00BDF818004FF6FE7188421ED11FF072FD10B1BDF8180011E0BAF1000F04D02C4D0E
:20585C0028881FF05BFF30B19BF80A0000F002001EF0AAFB00E02888ADF818004FF6FE71EF
:20587C00884202D14FF0C70949E79BF80A200099534622F020FE10B14FF001093FE71D487C
:20589C00016811B1BDF818008847BDF818000099224605F0D7FF0646174818490A68007896
:2058BC004FF4803122F094FD01211548C17096B1AAF10100C0B2012807D81020BAF1020F3C
:2058DC0008BF08207179084370714FF0000901258DF81A9014E74FF6FE7000254FF00109EE
:2058FC000026ADF818000BE77C0B0020F8F80020640E0020F009002094040120049F0200F7
:20591C00600C0020A80C00202DE9F04F85B0BAB1D0E9008A0DF11009002B14460D46074697
:20593C0018BF994622F0B3FD064698F8070050B198F82C0160B122F02AFD6FF008041DE17F
:20595C006FF009041AE122F022FD6FF00E0415E1012088F82C010020C8E94C54C8F83841B4
:20597C0088F80B00C8F84001C8F83C0088F80D00504622F045FB22F00AFD21F07DFD98F8DA
:20599C00052008B9002A77D00E99CDE90197481E10F1030F08D83AB908F5CA74204622F0A0
:2059BC006CFD204622F06BFD08F58A7408F5A27622F06DFD07460DF10C0BD8F83801002863
:2059DC0000F0BE8098F80B00002840F08D8098F80D00002840F08F8030460021B14621F0DA
:2059FC00C3FD22F0ECFC204659461EF0C6FE074622F04DFD0646D8F83801D8F84011874212
:205A1C0088BF0746039829443A4622F0F7FD204639461DF07BF8D8F83801D8F84011C01BDE
:205A3C00C8F83801C819C8F8400122F0B0FC012F03DBD8F838010028D5D122F028FD074648
:205A5C00D8F8400128B1504622F0DAFA029810F023FE98F80500012851D0022866D0D8F8FA
:205A7C0038114E4600296AD022F0A9FC22F0A4FB22F00DFD0746A0E798F84400C00615D5EE
:205A9C00D8F84060D8F84830384610210022B0470CE0D8F8400121462A1850461DF068FDBC
:205ABC00D8F84011241A0144C8F84011002CF0D1504622F069F80028FAD0504622F094FAF7
:205ADC0098F84400800607D5D8F84040D8F84830384620210022A047002488F82C41D8F833
:205AFC004001C9F8000049E00020019E6FF00D0488F80B0032E0019E6FF00C042EE0D8F8A7
:205B1C0038010024019EA0BB384688F82C4122F0C6FC98F81100DDF808904FF0010A88F8FB
:205B3C0012A078B3002422F0B2FC16E0D8F840010024002808BF6FF00F04019E12E010B1AA
:205B5C00019E00240AE022F03AFC22F035FB22F033FB002422F09BFC019E074698F8050064
:205B7C00012806D0002088F82C0108F5CA7022F088FCD8F84001306022F021FC204605B085
:205B9C00BDE8F08F002401200028CBD0D8F84830D8F84021D8F8D87148462946A8F811A0DD
:205BBC000094B84798F8120088F81140ECE770472DE9F04F8DB0044600209A4616460F46AC
:205BDC00CDE90B00CDE909008748856880460FF0E9FF262803D00FF0E5FF25281BD13088CB
:205BFC0040F60201884218BFB0F5C15F03D1F07B022810D93EE043F6070188420BD196F805
:205C1C002400032807D33069784940F0806020F0604088422ED100206FB366B3387825FA32
:205C3C0000F0C00726D03046002122F054FC7048C4E90176006880B109A800900CA90BAA82
:205C5C000AAB304609F046FC0B980B214FF6FF72502320F077FBFF280CD022F018FC654F6B
:205C7C0006467878012802D840B1012070E0304622F015FC00200DB0BDE8F08F09F09EFB3B
:205C9C005D480DF10409016841F0020101605B48C8F80000484621F057FFDFF864B15A4953
:205CBC004A469BF801009BF800500390554828301AF0CCFB554856494A461AF0C7FB484642
:205CDC0021F062FEDFF84C81534A19214B46029540461AF031F9514A08F11C001A214B465E
:205CFC001AF02AF94E484F4922F017FB4E484F4922F013FB4E48006810F4402F06D04D4ADD
:205D1C0007F12800042100231FF054FF9BF8020010B10D200FF032FB08F1400021F0E1FAC9
:205D3C0008F1380021F0DDFA4349002007223876B8843862386181F860200521C7E902105B
:205D5C003E49F96138700420002120F0BBFB78782C4941F8204001307870304622F09FFB5A
:205D7C00BAF1000F06D10DF1040A35492022504622F044FCDAE90012BAF81000DAE906352D
:205D9C00002AB2FA82F608BF40F6C4126261216060832563760926764FF4FA76C4E9036237
:205DBC0001226276274AC4E90722C4E90923DAF80C0000B12062DAF8140000B16062DAF870
:205DDC00080000B1E06104F13800C82121F008FD04F1500000211FF090FD1B4904F1B8006E
:205DFC0022F09BFA204646E7CC2108400F000005040D00209405002000200940110000E0C0
:205E1C00309E0200FC050020F9690200C8FC0020D9430100BC06002005C801005DAD010055
:205E3C0004FC0020F55B0200C0FB0020A5690200B44F0050CDF1010070F900209D000100B0
:205E5C00189C0200FF9D0000178402002DE9F04F85B0D0E900498046D9F80000D0F840A06C
:205E7C001AF4F06FC0F844A039D0216CB9B300225FEA4A512260A27317D5D4E91401411A45
:205E9C0040461EF037FED9F800008169C90605D401688DF80B109DF80B10F6E721684A1C35
:205EBC00A17B226009B90121A173616C40684FF0004600F00F0505EA0100B0FA80F126FA07
:205EDC0001F1014004D0276C17B1A36C4046B847B5FA85F026FA00F028404042A063D4F8C3
:205EFC00E001D9F83C100AF0400B40680068D0F80425114051EA0B0165D0404618F01CFECD
:205F1C0059464046BBF1000F18BF01210FF0F4FE207901284AD1206F002847D0CDF8049097
:205F3C00D8F8009004AE09F14C052846314620F0A0F8D9F870100746D9F86800D9F878201B
:205F5C008F4288BF0F46049910443A4622F056FB284639461EF0FAFBD9F87000D9F878105A
:205F7C00C01B3944C9F87000C9F878100FB10028DBD1404618F0E0FD404600210FF0BCFED4
:205F9C00DDF80490BBF1000F02D0A079012801D0206F58B90020A36CA16EA26FD4F81051C0
:205FBC00206784F8640000904046A847BBF1000F1CBF0120E07404F17C0022F0A2FAD4F863
:205FDC00E0014068006800F204500068D9F83810084255D0D4F83C01002851D0404617F09F
:205FFC00CDF8404610F058FB607901283BD1D4F83801C0B304F58A7503A928461EF0BDFB89
:20601C000646D4F83801D4F83011D4F84021864288BF064603981144324622F0EFFA2846AD
:20603C0031461CF073FDD4F83801D4F84011801B3144C4F838014046C4F8401110F02CFB70
:20605C00D4F8380178B994F82C0160B1002084F82C01A36CD4F83011D4F84021D4F8D8511D
:20607C0000904046A847D4F83C0128B9D9F80000816B41F40061816304F5A27022F041FA86
:20609C005FEA0A5026D5D9F8000081690907FCD4016B21F480710163217A89B1002020724E
:2060BC0094F84400800606D5256C25B1A36C404620210022A84702201DF0F2F9D9F800005A
:2060DC00816B21F400618163607918B904F5A27022F017FA05B0BDE8F08F70472DE9FC479D
:2060FC000446019005789448465D9448E840ADF80260C00740F01E810D2D13D1904E0DF112
:20611C000201B068D0F8282453209047BDF802104FF6FD70814214D8208990B14FF0000A8F
:20613C00A146AEE00C2D0ED0072D13D0052D0ED1A078012800F0FE80207C304400F12407B4
:20615C0016E0B068CDE06068C08AC0050AD44FF0000A09E0A07848B1A07D00EBC00006EBB7
:20617C00800705E04FF0010A374605E006F11B07ADF802704FF0000A38461FF0C1FC38B33D
:20619C008146072D44D1207889F80000607889F80100A07889F802000028E17889F80310B0
:2061BC00D4F80510C9F804105AD0A07D002889F8080049D0A169002946D000EBC00009F10E
:2061DC0010068200304621F05FFCC9F80C6040E00C2D40F0AF80A14659F8040F002800F0E1
:2061FC00A98022F054F9804655488068D0F854134846884738461FF083FC8146404622F0B9
:20621C004EF9B9F1000F00F0958021F0C6FF38E021F0C3FF052D34D109F11806D9F8041068
:20623C002422304621F030FCD9F8141099F8102009F13C00C9F8046021F026FCD9F8040030
:20625C002430C9F814001CE0002089F80800C9F80C00A069A8B122F042F90020A0750FE0B4
:20627C001B2009F110061B2289F808003046A16921F00AFCC9F80C60A06922F030F90020C9
:20629C00A0613048016819B148468847002846D10D2D2BD1606801788A0720D42A4AC1F376
:2062BC008301927C91421AD140783F2817D894F83000022813D199F8470009F146011CF075
:2062DC00E9FC01984FF6FF72418E91421FD14068807902281BD3484618F0D2FD50B318485B
:2062FC008068D0F8541301A8884723E00C2D0ED160781A280BD0D9F8040040B1C08AC0070C
:20631C0005D099F8100009F10F011CF0C3FCBAF1000F04D10D484946007817F0FBFE0C2DF2
:20633C0008D1019850F8041F21B105498968D1F85413D9E7BDE8FC87649D020019C2060057
:20635C000C0100203C0E0020F8F80020940401202DE9F04F8DB00646806A447874B18D4942
:20637C0009788C4280F012818B49023022462AB130F8023B013A21F8023BF8E78748C18A77
:20639C00708988422FD183480078A04240F2FE80B589814A2146284620F082FB284615F06B
:2063BC005BFE064682480778BE4204D14FF6FE7015F052FE0646BE4280F0E880DFF8F48186
:2063DC0008EBC6094F4657F8040F08B122F087F8002C00F0B180600022F083F800283860A4
:2063FC0040F0AC80D2E0B27C002A00F0CF806A4F0025AC4205D037F815208A4203D0013502
:20641C00F7E7A04600E0A846002113F0A5F8002800F0AD8081464079012840F0A88099F836
:20643C00060010F0180F00F0A280B9F80210204620F024FCA54202D3002800F0988058481C
:20645C00CDE90498B6F80C904FF6FE7A00780890544800780A90002006960B9052481130D7
:20647C00099052480430079000200C90DDE909564FF0000BF6B135F8117C574518BF4F456F
:20649C0002D1013E1C35F5E72046394620F0F6FB0028F6D1287801380528F2D80C980BF15C
:2064BC00010BC007EDD00B985FFA8BF1C0B28142E7D356E0DDE907862EB338F8047C574513
:2064DC0018BF4F4503D1013E08F12408F4E72046394620F0D3FB0028F5D198F805000138A3
:2064FC000528F0D898F8000001380228EBD30C980BF1010BC007E6D00B985FFA8BF1C0B2C7
:20651C008142E0D32DE05FEA0B6028D00B98000625D101205FFA8BF50B90012D4FF001008E
:20653C000C90A3D021F089FEC0B2B0FBF5F101FB15000B90012098E7002038601E4989F8A9
:20655C000140A9F80250097808F83610F4B1E8B1114962000DB0BDE8F04F21F095BA4FF6E4
:20657C00FE770498069EDDF8148047800A4FB37CF47CB269B1890125581EB07470895FFABB
:20659C0088F68DE8D00003950FF0FEFD0DB0BDE8F08F00BF2C9F0200F8010120F8F80020F3
:2065BC00379F0200269F020024C10020F0A60020F69E020050970020BE0E00202DE9F04F87
:2065DC0087B005462C200E4621F08BFF002844D0778B044621F060FC0021E184012187427C
:2065FC0008BF02212170707BA0703169081A6060204617F08FFA3178834F01F00301387B74
:20661C00012908BF05206070C0B221F08DFA4FF0FF316077A182217F326908440A44317D82
:20663C003261081A3075E070A069013017D0207C032816D8DFE800F0021702090620214656
:20665C006082284615F072FF10B3042021466082284607F0F9F905461BE01025CFE0A325DF
:20667C0017E0A12515E00020B3256082F87A80B997F8410001280CD1A07D4FF6FF7618F012
:20669C00BFFD0025A082B04208BF6FF05E0500E000252078022807D104F1080620F01EFF91
:2066BC000146304621F0D9FE280640F0A580574F3878013801281AD894F8260010B994F8E5
:2066DC002700A0B1A078E178227F08441044043021F007FF58B1A178E2780646207F11446D
:2066FC0008446168021D304621F0CEF900E0002620460DF0E1FC05463878012802D12DB9D9
:20671C00002575E0022873D1002D71D0002E73D00DF1080800274FF0010B4FF4D00908F101
:20673C00080A94F8260018B994F8270000285FD0A178E278207F114408443146021D60688D
:20675C0021F0A2F994F8260020B184F82670C4F8129007E094F8270020B12D4884F827708B
:20677C00C4F8120020460DF0A7FC10B10021054639E04046142121F033F8608A8DF819B0B4
:20679C00F0B9A08A40F20311884216D0682817D16068C17B052929D12A30FF21082220F0BC
:2067BC00C1FD18B34FF0FF306946CDE900001948006821F052FEFC2000E0FF208DF818007F
:2067DC00504669460022002512F06EFA01469DF8000038B10420142243461EF0F3FB0321DF
:2067FC00002500E0032103299BD101E00221FAE716B1304621F073FE204621F070FEE8B299
:20681C0007B0BDE8F08F00BFF8F80020A80C002000000301E40301202DE9F04F93B00446F0
:20683C001DF016F908B1112006E1207F4FF6FE75B8B183480078810041EA401061882077D0
:20685C00FF201EF0CFFE002180B1E08A05F1010B012640F00400E082207F40F00100207740
:20687C0007E0002000264FF6FE7B08E000264FF6FE7B74480078022838BF012188010490B1
:20689C00678838461CF02AF808B10020607694F81AA0BAF1000F04D16B4890F800A084F866
:2068BC001AA094F90000C5B2B0F1FF3F07DDE07E40B966480178E1760131017002E005F0EC
:2068DC0003052570207EDFF88491012805D199F80B0010B90DB900202076DFF8688198F845
:2068FC000000012831D899F80E0080072DD5E6B1E08A410606D5BAF1010F03D120F004005C
:20691C00E08222E0A188E07E627DADF822708DF82AA0ADF824108DF82B0006A803F03EFFA4
